:020000040800F2
:10000000A8050020ED0100089F2E00086F270008BA
:100010009D2E0008CD080008A7360008000000004B
:10002000000000000000000000000000B7310008E0
:10003000CF08000800000000A12E0008B931000818
:10004000070200080702000807020008070200086C
:10005000070200080702000807020008070200085C
:10006000070200080702000807020008070200084C
:10007000070200080702000807020008070200083C
:10008000070200080000000007020008070200083D
:10009000070200080702000807020008070200081C
:1000A000070200080702000807020008070200080C
:1000B000070200080702000835320008070200089E
:1000C00007020008070200080702000807020008EC
:1000D00007020008070200080702000807020008DC
:1000E00007020008070200080702000807020008CC
:1000F00007020008070200080702000800000000CD
:1001000000000000070200080000000007020008CD
:1001100007020008000000000702000807020008AC
:10012000070200080702000807020008070200088B
:10013000070200080000000000000000070200089D
:10014000070200080702000800000000000000008D
:10015000000000000000000000000000000000009F
:10016000000000000000000000000000070200087E
:10017000070200080000000000000000000000006E
:10018000000000000702000800000000000000005E
:10019000000000000000000000000000000000005F
:1001A000000000000000000007020008070200082D
:1001B000070200080702000807020008000000000C
:1001C000000000000702000800000000000000001E
:1001D0000702000807020008DFF80CD000F01AFB45
:1001E00000480047D1420008A80500200648804783
:1001F00006480047FEE7FEE7FEE7FEE7FEE7FEE70C
:10020000FEE7FEE7FEE7FEE719320008D901000825
:10021000D2B201E000F8012B491EFBD27047002248
:10022000F6E710B513460A4604461946FFF7F0FFF5
:10023000204610BD2DE9FE4F804681EA0300C00F25
:100240000C46009021F0004123F00045B8EB02007D
:10025000A94105D24046214690461C460B4602461F
:1002600023F00040104347D0270DC7F30A00C3F323
:100270000A510290401A019040286BDAC3F3130030
:1002800040F4801B0098924620B10023D2EB030A71
:1002900063EB0B0B01985946C0F14002504600F049
:1002A00065F906460D4650465946019A00F06DF92B
:1002B00010EB08006141002487EA115284EAE773D9
:1002C0001A4340D0009A62B3019A012A4FEA0752BA
:1002D00015DC001B61EB02014FF0004202EA0752FD
:1002E000CDE90042001C41F5801132462B4600F05A
:1002F000A4F903B0BDE8F08F40462146F9E7001BA2
:1003000061EB0201001C41F5801300185B412018CD
:10031000A2F5001747EB030140EAD570B6196D410D
:1003200011E06D084FEA360645EAC0754FEA0752FC
:10033000001B61EB0201001C41F5801149084FEAE6
:1003400030000019514132462B4603B0BDE8F04F52
:1003500000F064B90098012240000023D0EB0202B3
:1003600063EBE073009821464FEAE074B8EB0000BD
:1003700061EB0401E9E783F000435BE781F00041B2
:1003800058E72DE9FE4F81EA030404F0004421F010
:10039000004100944FF0000B23F0004350EA0104A9
:1003A0005ED052EA03045BD0C3F30A54C1F30A558A
:1003B0002C44A4F2F3340194A0FB0254C1F31301C2
:1003C00041F48011C3F3130343F4801301FB02448F
:1003D00000FB034E840A970A44EA815447EA835794
:1003E000A4FB076802958D0A05FB07854FEA932C4D
:1003F00004FB0C542705029D4FEA065847EA1637BE
:10040000B5EB08056EEB070C870E920E47EA8117D5
:1004100042EA8312A7FB0201B6EB0B0164EB000476
:100420002B0D43EA0C335E1844EB1C50DA46514660
:10043000E7FB0201C5F313044FEA0B3343EA1453FD
:100440004FEA0432019C43EA0603A4F10C0402942F
:10045000009CCDE900B400F0F0F803B0BDE8F08FE7
:1004600000200146F9E70EB540F233410291002128
:10047000CDE900110A460B4600F0DFF803B000BDDD
:1004800000F0004230F000400AD0C10D01F560716B
:10049000C0F3160042EA0151C208400711437047F9
:1004A00000200146704701F0004330B421F00041C4
:1004B00050EA010206D00A0DA2F56072C1F31301E1
:1004C000002A02DC30BC00207047440F44EAC1041B
:1004D000C100E01830BC00EBC25000F068B830B585
:1004E0000B46014600202022012409E021FA02F5F2
:1004F0009D4205D303FA02F5491B04FA02F528448C
:10050000151EA2F10102F1DC30BD2DE9F05F0546B8
:10051000002092469B4688460646814640241BE0C2
:10052000284641464746224600F086F953465A4639
:10053000C01A914110D311461846224600F016F811
:100540002D1A67EB01084F4622460120002100F0DA
:100550000DF817EB00094E41201EA4F10104DFDC69
:10056000484631462A464346BDE8F09F202A04DB30
:10057000203A00FA02F1002070479140C2F12003B6
:1005800020FA03F3194390407047202A06DBCB176B
:10059000203A41FA02F043EAE07306E041FA02F33E
:1005A000D040C2F12002914008431946704700290B
:1005B000A8BF7047401C490008BF20F001007047E9
:1005C00010B4B0FA80FC00FA0CF050EA010404BF49
:1005D00010BC704749B1CCF1200421FA04F411FA9F
:1005E0000CF118BF012121430843A3EB0C01CB1DE3
:1005F0004FEA00614FEA102042BF002010BC704754
:1006000000EBC35010440029A4BF10BC7047401C2D
:10061000490008BF20F0010010BC704710B5141E3F
:1006200073F1000408DA401C41F1000192185B41AB
:100630001A4301D120F0010010BD2DE9F04D924682
:100640009B4611B1B1FA81F202E0B0FA80F2203299
:100650009046FFF78BFF04460F4640EA0A0041EA46
:100660000B0153465A46084313D0114653EA010082
:1006700019D0C8F14002504600F0DEF805460E469B
:10068000504659464246FFF771FF084305D0012006
:1006900004E020463946BDE8F08D0020054346EAD7
:1006A000E0762C4337430A986305E40AA0EB080080
:1006B0000022FD0A44EA47540A3002D500200146D0
:1006C000E9E7010510196941DDE9084500196941AB
:1006D000BDE8F04DA2E72DE9F04D81EA030404F0F6
:1006E000004B21F0004514464FF0000A23F0004172
:1006F00050EA050220D054EA01021DD0C5F30A5782
:100700000246C5F31303C1F31300C1F30A5640F4C4
:10071000801543F48013A7EB0608101BD64608F299
:10072000FD3873EB050002D308F1010801E09218CF
:100730005B41B8F1000F03DA00200146BDE8F08DFF
:1007400000204FF48011064684460EE0171B73EB21
:10075000050705D3121B63EB050306434CEA010CA6
:1007600049084FEA300092185B4150EA0107EDD189
:1007700052EA030012D082EA040083EA050108432A
:1007800005D0101BAB4106D20122002306E0002257
:100790004FF0004302E06FF0010253101AEB060025
:1007A0004CEB085110EB0A0041EB0B01BDE8F04D9A
:1007B000FFF734BFC1F30A52C1F3130140F2FF3314
:1007C00041F480119A4202DA00200146704740F25B
:1007D00033439A42A2F2334202DC524200F02CB878
:1007E000FFF7C4BE30B5041E71F1000404DB4FF006
:1007F0000044404264EB0101141E73F1000405DB68
:100800001C464FF00043524263EB0403994208BF79
:10081000904230BD064C074D06E0E06840F0010311
:1008200094E8070098471034AC42F6D3FFF7D8FCA1
:1008300084550008A4550008202A04DB203A21FA38
:1008400002F00021704721FA02F3D040C2F12002E9
:10085000914008431946704770B5044600688168A6
:1008600011F0010F2DD18168174A11421AD1816808
:10087000D5432940491C816000F0E0FD06461BE09D
:10088000816811F0010F03D181682940491C816002
:1008900000F0D4FD801B02280ED920680068C043F8
:1008A000C00709D0E06D40F01000E065206E40F018
:1008B00001002066012070BD20680168C943C90796
:1008C000DED1002070BD00003F000080FEE77047D1
:1008D000002240F6B83306E00021491C89B2994253
:1008E000FBD3521C92B28242F6D37047704700008D
:1008F0002DE9F047044690F858009CB00E464FF0A2
:100900000009012815D0012084F85800002517950A
:10091000189520684FF0A04840450ED1284F009709
:10092000384602F00FF98246206802F00BF960B1F8
:100930000EE002201CB0BDE8F087E06D40F0200022
:10094000E06584F858500120F4E7BAF1000F09D0AF
:10095000E06D40F02000E0654FF0010984F8585048
:100960004846E7E71748326840F61F71002A826858
:1009700022F4604216D094F8383042EA4332736869
:100980001A438260D8F80820BB6802F0010203F025
:1009900001031A43E2D1B36832681A4383688B4378
:1009A0001A430BE08260D8F80820BB6802F001020D
:1009B00003F001031A43D1D182688A438260CDE7F4
:1009C00000010050000300502DE9F84F00270446B5
:1009D000009790F85800DFF8D8930D46B8460128E4
:1009E00011D0012684F85860206802F0A7F860B1A1
:1009F000E06D40F02000E0655FF0010784F858806A
:100A00003846BDE8F88F0220FBE7D5E900210C232A
:100A1000206803EA91131844036B01F01F014FF0A3
:100A20001F0C0CFA01FCC2F3846223EA0C038A4017
:100A300013430363206802F081F88246206802F0C5
:100A400079F85AEA00003CD1AA6829682068B2F116
:100A5000004F37D002F07AF82068416921F0004158
:100A6000416120686969C268C2F3C10252009140C5
:100A70002A69042A31D000EB82002B68026EDFF86D
:100A800034C303F0F84302EA0C020B431A4342F06A
:100A90000041016620682A69A96900EB8200026EA4
:100AA00022F080720A430266297F226828690129A0
:100AB00010D0002102EB8000026E22F000720A4387
:100AC00002667DE0002202F041F82068416941F0B1
:100AD0000041C5E74FF00071ECE7002102F024F877
:100AE000400320684FF0000172D002F01DF890FA28
:100AF000A0F0B0FA80F1286842036ED090FAA0F01E
:100B0000B0FA80F0814204D100221146206802F040
:100B10002CF80121206802F007F8400320684FF00C
:100B200001015DD002F000F890FAA0F0B0FA80F177
:100B30002868420359D090FAA0F0B0FA80F08142C0
:100B400004D100220121206802F00FF80221206860
:100B500001F0EAFF400320684FF0020148D001F0A5
:100B6000E3FF90FAA0F0B0FA80F12868420344D085
:100B700090FAA0F0B0FA80F0814204D10022022164
:100B8000206801F0F2FF0321206801F0CDFF40034F
:100B900020684FF0030133D001F0C6FF90FAA0F0B7
:100BA000B0FA80F1286842032FD090FAA0F0B0FA92
:100BB00080F0814204D100220321206801F0D5FF9A
:100BC0002068816811F0010F22D0A8E000E004E065
:100BD00001F0AAFFC0F384618DE7C0F3846091E760
:100BE00001F0A2FFC0F38461A2E7C0F38460A6E72E
:100BF00001F09AFFC0F38461B7E7C0F38460BBE7FC
:100C000001F092FFC0F38461CCE7C0F38460D0E7C9
:100C1000EB6829684B4550F8B03FC1F3120101D190
:100C20000B4300E08B430360E868484577D12868B0
:100C300041031CD090FAA0F1B1FA81F1491C01F0F6
:100C40001F0109294FEA403132D8002912D000BFD4
:100C500090FAA0F1B1FA81F101F1010101F01F0157
:100C600006FA01F609D100BFC0F3846109E0C0F3C0
:100C70008461E3E7C0F38461EEE790FAA0F1B1FA92
:100C800081F101F1010101F01F0146EA816102D108
:100C9000C0F3846003E090FAA0F0B0FA80F000F1B5
:100CA000010000F01F0000EB400041EA005132E07B
:100CB00000290ED090FAA0F1B1FA81F101F1010101
:100CC00001F01F0106FA01F606D100BFC0F38461EE
:100CD00006E0C0F38461F1E790FAA0F1B1FA81F186
:100CE00001F1010101F01F0146EA816102D1C0F367
:100CF000846003E090FAA0F0B0FA80F000F1010007
:100D000000F01F002C4A00EB400002EB005041EACB
:100D1000000141F00071AA68206801F017FF274820
:100D20002A6802423FF46AAE25488168254B01F0EB
:100D3000E0719A4202D0244B9A421CD10B021AD481
:100D40002268B2F1A04F7FF459AE826841F40001ED
:100D500022F0E0720A4382601C481D490068B0FB23
:100D6000F1F0401C00EB4000800000E0401E0090CD
:100D70000028FBD142E6174D174BAA4207D1CD01FF
:100D800005D422689A42F5D041F0807109E0134DF4
:100D9000AA42EFD14A02EDD422689A42EAD041F445
:100DA0008001826822F0E0720A43826026E6000039
:100DB00000007F4000F0FF03000020FE00000880DC
:100DC00000030050000021C31000C0901800002054
:100DD000400D0300000052C700010050000084CB0A
:100DE0000068006C70470000F8B54FF00005040083
:100DF0002E46009502D0E06D10B107E00120F8BD4D
:100E0000204600F0EFF8266684F858602068816874
:100E1000C1F3407119B181686A4A1140816020684C
:100E20008168C1F3007189B98168674A114041F056
:100E300080518160654866490068B0FBF1F0400070
:100E4000801C00E0401E00900028FBD120688168D3
:100E5000C1F3007141B9E16D41F01001E165216E0E
:100E600041F001012166012501F068FEE16DC9062E
:100E700000D430B1E06D40F01000E0650125284657
:100E8000F8BDE06D20F4807040F00200E06520685D
:100E9000806810F0010F11D14FF0A04080684D49DB
:100EA00000F00100896801F00101084306D14A48B9
:100EB0006168826822F47C120A438260E168E06B18
:100EC000627F0843A16841EA4231084394F8241044
:100ED00040EA0140012904D1218D404A02EB414101
:100EE0000843E16A29B101F47871226B014342EAB7
:100EF00001002168CA683A4B1A400243CA60206860
:100F00000169626B21F0406111430161206801F0C9
:100F100015FE0646206801F00DFE30432ED1207FDD
:100F200094F83810800340EA41022068C16844F216
:100F3000020399431143C1602069002820680169B8
:100F40000AD041F480310161206850F8C01F226945
:100F50006FF30D01114307E021F480310161206836
:100F600050F8C01F6FF30D01016094F84000012894
:100F70000CD02068016921F001010161606901283C
:100F80002068016B21F00F0111D013E0D4E91101A9
:100F90000843D4E913121143084321680A6940F257
:100FA000FC739A43104340F001000861E6E7226AAF
:100FB000521E11430163E06D20F0020040F0010079
:100FC000E0655CE7C0FFFF5FC0FFFF7F1800002007
:100FD000400D030000010050000300500000FEFF20
:100FE0000740F0FF2DE9F04397B00446142111A803
:100FF000FFF715F944216846FFF711F94FF000504B
:1010000021682D4D0327DFF8B49086132C4C4FF048
:101010000008B1F1A04F10D02A4A914248D1009661
:101020000F90684600F008FB08B1FFF75FFC2868E6
:10103000401C2860012824D02BE000960F906846C1
:1010400000F0FAFA08B1FFF751FC2868401C28604C
:10105000012807D1E06C40F40050E064E06C00F43B
:1010600000501690E06C40F00200E064E06C11A9C2
:1010700000F0020016904FF4805081E8810148464C
:1010800014E0E06C40F40050E064E06C00F40050C8
:101090001690E06C40F00200E064E06C11AA00F0F1
:1010A0000200169082E8C00111A9484600F098F8A5
:1010B00017B0BDE8F08300001400002000040048D1
:1010C00000100240000100502DE9F041044638486C
:1010D000806800F01F05206801F030FD18B1022182
:1010E0000846BDE8F08194F8580001280CD0012092
:1010F00084F858002046FFF7AFFB01004FF00003D3
:1011000004D084F85830EBE70220EAE7E06D40F6BF
:101110000162904340F48070E065264A20684FF0F9
:10112000A046904201D1374600E00746874200D0F2
:101130001DB9E76D27F48017E765E76DFF0404D557
:10114000276E27F00607276600E023661C27076046
:1011500084F858302068904201D1334600E00346BD
:10116000834215D0A5B1052D12D0092D10D0E36D05
:1011700043F48013E365904200D13046C06880019B
:10118000AED5E06D20F4005040F48050E065A7E754
:10119000C268920105D5E26D22F4005242F48052F9
:1011A000E2658268044B1A40121D826098E70000D5
:1011B0000003005000010050C0FFFF7F70B50446DF
:1011C00000F03CF90546601C02D004484068044425
:1011D00000F034F9401BA042FAD370BD2800002073
:1011E0002DE9F04FDFF82092002301260324A9F116
:1011F000040B85B00F2709F1040AABF1040EFAE0E5
:1012000006FA03F52A407CD091F804C00CF0030CD8
:10121000BCF1010F02D0BCF1020F26D1D0F808C0FA
:10122000CDF800C04FEA430C04FA0CF8CDF810C01A
:10123000DDF800C02CEA080CCDF800C0D1F80C8015
:10124000DDF810C008FA0CF8DDF800C048EA0C0818
:10125000C0F80880D0F804C02CEA050C0D79C5F35D
:1012600000159D4045EA0C0545600D79ED43AD073D
:101270000ED0C5684FEA430804FA08FC25EA0C05BD
:10128000D1F808C00CFA08FC4CEA050CC0F80CC0F8
:101290000D7905F00305022D16D1DD0800EB850C54
:1012A000CDF808C0DCF820805D074FEAD56C07FA5E
:1012B0000CF528EA05080D6905FA0CF5DDF808C0FB
:1012C00045EA0805CCF8205005684FEA430CCDF8F4
:1012D00008C004FA0CFC25EA0C0591F804C00CF0D7
:1012E0000308DDF808C008FA0CF848EA0508C0F859
:1012F00000804D6815F4403F7CD0444DD5F860C067
:1013000000E077E04CF0010CC5F860C02D6E23F0D2
:10131000030C05F0010500953D4D65440295AD684F
:101320004FEA837C4FEA1C7807FA08FC25EA0C0593
:10133000B0F1904F06D0DFF8DCC0604505D14FF02A
:10134000010C20E04FF0000C1DE0DFF8CCC0604540
:1013500002D14FF0020C16E0DFF8C0C0604502D1A8
:101360004FF0030C0FE0DFF8B8C0604502D14FF03A
:10137000040C08E0DFF8ACC0604502D14FF0050C6A
:1013800001E04FF0060C0CFA08FC4CEA050C029D3B
:10139000C5F808C0D9F80050CC46D1F80480954370
:1013A0005FEAC82800D51543CCF80050DAF80050A1
:1013B000D446D1F8048095435FEA882800D51543C8
:1013C000CCF80050DBF80050DC46D1F8048095439F
:1013D0005FEA883800D51543CCF80050DEF800509D
:1013E000F446D1F8048095435FEAC83800D5154328
:1013F000CCF800505B1C0A6832FA03F57FF400AFAA
:1014000005B0BDE8F08F0000080401400010024064
:10141000000001400004004800080048000C00489B
:1014200000100048001400480069084000D0012066
:1014300070470AB1816170478162704701488068D6
:10144000704700002800002002488168426811446B
:10145000816070472800002010B50024032000F0B0
:1014600073F8002000F008F808B1012401E000F052
:1014700025F8204610BD000070B50E4E054600242C
:10148000706898B14FF47A71B1FBF0F00A490968BD
:10149000B1FBF0F000F040FD40B9102D06D2002263
:1014A0002946501E00F030F8356000E00124204647
:1014B00070BD000028000020180000200A4882B0FB
:1014C000016E41F001010166016E01F00101009120
:1014D000816D41F080518165806D00F080500090F9
:1014E00002B000F0A1B8000000100240002809DBA3
:1014F00000F01F02012191404009800000F1E0202E
:10150000C0F8001170470000F0B40E4B1B680C4689
:10151000C3F30223C3F10705042D00D90425191DC7
:10152000072901D2002300E0DB1E012606FA05F19F
:10153000491E214099409E40761E16403143F0BC22
:1015400002F0C6B80CED00E0064900F0070208689A
:101550004FF6FF03184040EA0220034A1043086098
:10156000704700000CED00E00000FA052B492C4B01
:101570000A6832214A432B4940B1B0F5007F086820
:1015800029D020F4C06040F480602CE00868C0F3EB
:101590004120022804D051F8800F20F4807022E00E
:1015A000D1F8800020F48070C1F88000086820F431
:1015B000C06040F400700860B2FBF3F0401C00E033
:1015C000401E4A69520501D50028F9D148694005F5
:1015D0000AD503207047C0F34120022806D051F8F5
:1015E000800F40F48070086000207047D1F88000C0
:1015F00040F48070C1F88000086820F4C06040F4B6
:1016000000700860B2FBF3F0401C00E0401E4A6925
:101610005205DBD50028F9D1D8E7000018000020DA
:1016200040420F00007000400248816841F4804150
:1016300081607047007000402DE9F843044600685F
:1016400000269D4D00035ED5A86D0027C00008D47C
:10165000A86D40F08050A865A86D012700F080506B
:101660000090DFF85892D9F8001041F48071C9F861
:101670000010FFF7E3FE804606E000BFFFF7DEFE46
:10168000A0EB080002282BD8D9F80000C005F5D53A
:10169000D5F8900010F4407014D0216C814211D024
:1016A000D5F89000D5F8901020F4407041F48031C6
:1016B000C5F89010D5F8901021F48031C5F890103D
:1016C000C5F89000C00711D0FFF7B8FE804641F280
:1016D000883907E0FFF7B2FEA0EB0801494501D9C0
:1016E00003260BE0D5F890008007F3D5D5F89000DD
:1016F000216C20F440700843C5F890001FB1A86D1C
:1017000020F08050A8652078C00707D0D5F8880061
:10171000616820F003000843C5F88800207880073E
:1017200007D5D5F88800A16820F00C000843C5F85B
:1017300088002078400707D5D5F88800E16820F0B8
:1017400030000843C5F888002078000707D5D5F891
:101750008800216920F0C0000843C5F8880020787F
:10176000800607D5D5F88800616920F440600843F9
:10177000C5F888002078400607D5D5F88800A1690B
:1017800020F440500843C5F888002078000607D5AB
:10179000D5F88800E16920F440400843C5F8880086
:1017A0002088C00507D5D5F88800216A20F440308C
:1017B0000843C5F888002088800507D5D5F888003B
:1017C000616A20F440200843C5F88800208840055D
:1017D0000FD5D5F88800A16A20F440100843C5F859
:1017E0008800A06AB0F5801F03D1E86840F480103B
:1017F000E860208800050FD5D5F88800E16A20F45C
:1018000040000843C5F88800E06AB0F5800F03D1B6
:10181000E86840F48010E8602088C0040FD5D5F84F
:101820008800216B20F040700843C5F88800206BC9
:10183000B0F1807F03D1E86840F48010E860208830
:101840004FF0006180040ED5D5F88800626B20F05F
:1018500040601043C5F88800606B884203D1E86897
:1018600040F48010E860208840040ED5D5F8880048
:10187000A26B20F040601043C5F88800A06B88423E
:1018800003D1E86840F48010E860208800040FD598
:10189000D5F88800E16B20F040500843C5F8880077
:1018A000E06BB0F1805F03D1E86840F48030E8601D
:1018B0003046BDE8F8830000001002400070004090
:1018C0002DE9F0470E4605004FF0000725D0DFF860
:1018D000AC81D8F8000000F00F00B0420CD2D8F86C
:1018E000001021F00F013143C8F80010D8F80000B3
:1018F00000F00F00B04210D12968614CC80741F2D6
:10190000883A5AD06868DFF87C91032808D002280A
:1019100020682DD0400500282CDB0120BDE8F08791
:1019200020688001F9D5E06800F00302E068C0F3A8
:101930000310401C032A19D0534A00BFB2FBF0F039
:10194000E268C2F306225043E268C2F34162521CCD
:101950005200B0FBF2F0484517D9A06810F0F00F24
:101960000CD0880711D5A86840B10EE0474AE5E7DA
:101970008003D0E700F092F8484506D9A06820F02F
:10198000F00040F08000A0608027A068696820F027
:1019900003000843A060FFF751FD814606E000BF49
:1019A000FFF74CFDA0EB090151453AD8A0686968E2
:1019B00000F00C00B0EB810FF2D12868810714D53C
:1019C000400703D5A06840F4E060A06028780007D5
:1019D00005D5A06820F4605040F4E060A060A068E5
:1019E000A96820F0F000084304E0802F03D1A0682C
:1019F00020F0F000A060D8F80010404601F00F0180
:101A0000B14216D9016821F00F0131430160FFF79F
:101A100015FD074607E000BFFFF710FDC11B51454C
:101A200001D903207AE7D8F8000000F00F00B04297
:101A3000F2D12878400705D5A068E96820F4E06075
:101A40000843A0602878000706D5A068296920F41B
:101A5000605040EAC100A06000F020F8A1680C4A84
:101A6000C1F30311515C01F01F01C840094908602E
:101A700009480068BDE8F047FFF7FEBC00200240BF
:101A80000010024000B4C4040024F40000366E01CB
:101A9000745500081800002028000020184910B5CF
:101AA0008868C0F381021748012A0BD08A68164B58
:101AB000C2F38102022A06D08A68C2F38102032A95
:101AC00003D0002010BD184610BDCA6802F0030400
:101AD000CA68C2F30312521C032C02D0B0FBF2F00E
:101AE00001E0B3FBF2F0CA68C968C2F306225043B2
:101AF000C1F34161491C4900B0FBF1F010BD000089
:101B0000001002400024F40000366E012DE9F84375
:101B100004007AD02078FA4DC00747D0A868E96859
:101B200000F00C0001F003010C2802D0082817D0A7
:101B300001E0032914D06068B0F5803F17D0B0F5FC
:101B4000A02F286817D020F480302860286820F45F
:101B5000802028606068E0B1FFF770FC064614E062
:101B60002868800322D560680028D2D01EE028684B
:101B700040F48030EDE740F480202860F7E700BFB4
:101B8000FFF75CFC801B642870D828688003F7D5B9
:101B90000CE0FFF753FC064605E000BFFFF74EFCE4
:101BA000801B6428F0D828688003F7D42078800749
:101BB0004CD5A868E96800F00C0001F003010C287E
:101BC00002D004280DD001E002290AD0E0680028E4
:101BD00028682BD040F480702860FFF72FFC064661
:101BE00019E02868400502D5E068002891D06868AF
:101BF000217C20F0FE4040EA01606860C148006836
:101C0000FFF73AFC002800D120E076E1FFF716FC50
:101C1000801B0228B8D828684005F7D56868217C61
:101C200020F0FE4040EA016068600FE020F4807020
:101C30002860FFF703FC064605E000BFFFF7FEFB48
:101C4000801B0228A0D828684005F7D42078000718
:101C500029D560690028D5F8940013D040F0010020
:101C6000C5F89400FFF7EAFB064606E090E000BFE7
:101C7000FFF7E4FB801B022886D8D5F89400800784
:101C8000F6D510E020F00100C5F89400FFF7D6FB70
:101C9000064604E0FFF7D2FB801B022878D8D5F86F
:101CA00094008007F6D42078400761D5A86D0026FF
:101CB000C00008D4A86D40F08050A865A86D01262A
:101CC00000F08050009090480168C90511D4016867
:101CD000804641F480710160FFF7B0FB074604E0E5
:101CE000FFF7ACFBC01B022852D8D8F80000C00593
:101CF000F6D5A068012815D00528D5F8900016D093
:101D000020F00100C5F89000D5F8900020F0040004
:101D1000C5F89000A06841F28838B8B1FFF78EFB93
:101D200007460EE0D5F8900040F00100F0E740F0E3
:101D30000400C5F89000F5E7FFF780FBC11B4145A3
:101D400026D8D5F890008007F6D50CE0FFF776FB93
:101D5000074604E0FFF772FBC11B414518D8D5F8D0
:101D600090008007F6D41EB1A86D20F08050A865C1
:101D70002078800629D5A0690028D5F8980013D0CE
:101D800040F00100C5F89800FFF758FB064606E052
:101D900077E000BFFFF752FB801B022877D8D5F809
:101DA00098008007F6D510E020F00100C5F89800F3
:101DB000FFF744FB064604E0FFF740FB801B0228C8
:101DC00065D8D5F898008007F6D4E069F0B3A96823
:101DD000C1F38101032961D00228286820F08070B6
:101DE00028600BD0E86820F00300E860E868474905
:101DF0000840E860FFF722FB04464BE0FFF71EFBBC
:101E0000064604E0FFF71AFB801B02283FD828682B
:101E10008001F7D4F4E908016FF00F0202EB011121
:101E20000843218A5204490802EB4151A26841EA61
:101E300002210843217D4FF07E42490802EB4161B7
:101E40000843217B40EAC160E96800E062E0304A73
:101E500011400843E860286840F080702860E86816
:101E600040F08070E860FFF7E9FA044605E000BF43
:101E7000FFF7E4FA001B022809D828688001F7D58B
:101E800048E004E0FFF7DAFA001B022802D9032039
:101E9000BDE8F88328688001F4D43BE00128F7D03E
:101EA000E868226A00F00301914226D1616A00F0DD
:101EB000F0020901103991421FD1A26A00F4FE41DB
:101EC000B1EB022F19D194F82C2000F07841B1EB3E
:101ED000C26F12D1218E00F4C00249084905A1F554
:101EE0000011914209D194F8341000F0C060490803
:101EF0004906A1F1007181420CD00120C8E7000021
:101F0000001002402800002000700040FFFFEEFE9D
:101F10000C809F010020BBE710B5401EB0F1807F10
:101F200001D3012010BD4FF0E02460610F21601744
:101F300001F0CEFB0020A06107202061002010BD31
:101F4000704770477047704770477047F0B590F81A
:101F50003C20012A3AD0012580F83C50022280F82A
:101F60003D2003685A689C68194E1A4FB34201D04D
:101F7000BB4204D122F4700C4A6842EA0C02DFF83A
:101F800058C002EA0C02D1F800C04CEA020CC3F8B7
:101F900004C00268B2420DD0B2F1804F0AD00F4B9C
:101FA0009A4207D00E4B9A4204D0BA4202D00D4B4F
:101FB0009A4204D1896824F080031943916080F823
:101FC0003D50002180F83C100846F0BD0220F0BDD5
:101FD000002C0140003401408FFFFFFD0004004051
:101FE0000008004000400140704710B5040003D0D5
:101FF00094F83D0010B107E0012010BD002084F8E6
:102000003C00204600F022F8022084F83D00211D0B
:10201000206801F015F9012084F8480084F83E009A
:1020200084F83F0084F8400084F8410084F84200BE
:1020300084F8430084F8440084F8450084F846009E
:1020400084F8470084F83D00002010BD08B5016801
:102050001048B1F1804F14D00F4A914219D1816DCF
:1020600041F004018165806D002200F004000090C1
:1020700011461E20FFF748FABDE808401E20FFF772
:1020800035BA816D41F001018165806D00F001007C
:10209000009008BD001002400008004090F83D107C
:1020A000012901D001207047022180F83D1001680C
:1020B000CA6842F00102CA600068104988420ED026
:1020C000B0F1804F0BD00E49884208D00D498842AC
:1020D00005D00D49884202D00C49884207D1816859
:1020E0000B4A1140062906D0B1F5803F03D00168A4
:1020F00041F001010160002070470000002C014008
:10210000000400400008004000340140004001404D
:102110000700010070B5044690F83C000025012836
:1021200014D0012684F83C60022084F83D00226827
:102130009068364B184020F47F4090600868702803
:102140002ED010DC10F00F0F03D021E04FF0020072
:1021500070BD4FEA2012072A1AD2DFE802F052526D
:1021600052524A3840002A4BC21A984249D009DCE0
:10217000B0F5805F0DD0B0F5005F1CD0B0F1101F3E
:1021800006D13EE0102A3CD0202A3AD0502A38D03E
:10219000012584F83D60002084F83C00284670BD8D
:1021A000CB68D1E90121206801F0AFF8206881688F
:1021B00041F0770109E0CB68D1E90121206801F005
:1021C000A4F82068816841F480418160E1E7CA6831
:1021D0004968206801F044FA5021206806E0CA6886
:1021E0004968206801F04DFA6021206801F098F8F4
:1021F000CFE7CA684968206801F032FA40212068B8
:10220000F4E7226801461046F0E7000088FFCEFFA1
:1022100020001000704770B50446006801694FF057
:102220000005C943890715D4C168C943890711D47A
:10223000E91E01610120207720688069800720461F
:1022400002D0FFF7E7FF04E000F00AF9204600F0B3
:10225000CCF9257720680169C943490717D4C168BB
:10226000C943490713D46FF00401016102202077AC
:102270002068806910F4407F204602D0FFF7CAFF33
:1022800004E000F0EDF8204600F0AFF92577206873
:102290000169C943090716D4C168C943090712D4A3
:1022A0006FF008010161042020772068C069800771
:1022B000204602D0FFF7AEFF04E000F0D1F8204640
:1022C00000F093F9257720680169C943C90617D43E
:1022D000C168C943C90613D46FF010010161082019
:1022E00020772068C06910F4407F204602D0FFF7B5
:1022F00091FF04E000F0B4F8204600F076F925776D
:1023000020680169C943C90708D1C168C943C90721
:1023100004D1891E0161204600F0E6F920680169B8
:10232000C943090609D4C168C943090605D46FF039
:10233000800101612046FFF704FE20680169C9435E
:10234000C90509D4C168C943090605D46FF4807171
:1023500001612046FFF7F4FD20680169C943490681
:1023600009D4C168C943490605D46FF04001016131
:10237000204600F0FBF920680169C943890609D4A9
:10238000C168C943890605D46FF020010161204668
:10239000FFF7D8FD20680169C943C90209D4C168A3
:1023A000C943C90205D46FF4801101612046FFF7CB
:1023B000CBFD20680169C943890209D4C168C943BA
:1023C000890205D46FF4001101612046FFF7BBFDBF
:1023D00020680169C943490209D4C168C943490257
:1023E00005D46FF4800101612046FFF7AEFD20683F
:1023F0000169C94309020BD4C168C943090207D462
:102400006FF4000101612046BDE87040FFF7ECBDAC
:1024100070BD000010B586B0044614216846FDF773
:10242000FEFE2068B0F1804F15D10C48C16C41F020
:102430000101C164C06C694600F0010005900220F2
:1024400000900190002002900390012004904FF032
:102450009040FEF7C5FE06B010BD0000001002401F
:10246000704770B5044690F83C0000260D460128E0
:102470000BD0012084F83C000C2A4AD007DC82B142
:10248000042A20D0082A06D131E0022070BD102A8B
:1024900053D0142A63D00126002084F83C00304633
:1024A00070BD206800F046FF2068816941F0080196
:1024B00081612068816921F004018161206881695E
:1024C0002A69114311E0206800F082FF20688169C9
:1024D00041F4006181612068816921F4806181613A
:1024E000206881692A6941EA02218161D4E7206874
:1024F00000F0B6FF2068C16941F00801C1612068A1
:10250000C16921F00401C1612068C1692A691143D0
:1025100011E0206800F0ECFF2068C16941F400611F
:10252000C1612068C16921F48061C1612068C1690D
:102530002A6941EA0221C161AEE7206801F020F872
:102540002068016D41F0080101652068016D21F0EE
:10255000040101652068016D2A69114311E02068BA
:1025600001F046F82068016D41F4006101652068C2
:10257000016D21F4806101652068016D2A6941EADD
:102580000221016588E710B5040003D094F83D00EE
:1025900010B107E0012010BD002084F83C00204667
:1025A00000F022F8022084F83D00211D206800F090
:1025B00047FE012084F8480084F83E0084F83F007C
:1025C00084F8400084F8410084F8420084F8430015
:1025D00084F8440084F8450084F8460084F84700F5
:1025E00084F83D00002010BD7047704730B50446A8
:1025F000022269B1042912D0082917D00C291CD055
:10260000102921D094F84300012824D0012030BDA6
:1026100094F83E000128F9D184F83E201DE094F89A
:102620003F000128F2D184F83F2016E094F84000E2
:102630000128EBD184F840200FE094F841000128F4
:10264000E4D184F8412008E094F842000128DDD16B
:1026500084F8422001E084F843200122206800F041
:1026600047FE194B20681949194A984209D08842F7
:1026700007D0904205D0174DA84202D0164DA8426F
:1026800003D1456C45F400454564206898420CD060
:10269000B0F1804F09D0114B984206D0104B9842B0
:1026A00003D0884201D0904207D181680D4A114081
:1026B000062906D0B1F5803F03D0016841F0010141
:1026C0000160002030BD0000002C014000340140BA
:1026D0000040014000440140004801400004004027
:1026E000000800400700010070B500681C498842DE
:1026F00035D11C4D01212846FEF796FE00B1012080
:10270000194C022120702846FEF78EFE00B10120F0
:10271000E07004212846FEF787FE00B10120002169
:10272000A07101234FEA010501EB4102101946781F
:1027300026B1012E06D0022E0ED109E0A25C5AB9B4
:10274000437009E0A25C32B983700222427003E058
:10275000A25C012A00D14570491C0329E4DB70BD4D
:1027600000080040000400481C0000207047FEE7FD
:1027700000B585B014216846FDF751FD4FF6FF7096
:10278000009000200321CDE9020101906946024832
:10279000FEF726FD05B000BD0008004800B585B075
:1027A00014216846FDF73BFD4FF6FF7000900120B5
:1027B0000190032003900020029069460248FEF732
:1027C0000FFD05B000BD00000008004870B50024F2
:1027D00006462146204600F003F900F041F94FF487
:1027E0009635304600F010F9641CAC42F9D370BD48
:1027F00030B587B014216846FDF711FD1E48C16C45
:1028000041F00401C164C16C01F004010591C16C87
:1028100041F00101C164C16C01F001010591C16C7D
:1028200041F00201C164C06C012500F00200059076
:102830004FF44870CDE900050024039469460294E2
:102840000E48FEF7CDFC280203940090CDE9015418
:102850004FF0904469462046FEF7C2FCFFF79EFF0A
:10286000A06940F48070A06104481830016841F408
:102870000871016007B030BD00100240000400483C
:10288000203AD2B2034B02EB420203EB021200F0F9
:1028900019B80000A4430008F0B50E46074600250D
:1028A00040F23F1407E021463846FFF7E9FF103CAD
:1028B0006D1CA4B2761C3278002A01D0142DF2D3FC
:1028C000F0BD00002DE9F04791468A4600260446F7
:1028D00000F086F8DFF84080012700BF00F0C0F864
:1028E0005FF0000539F8160007FA05F10842404686
:1028F00001D1408800E0008800F086F86D1C102DA2
:10290000F0D3641CE4B25146204600F069F8761C0E
:10291000182EE3D3BDE8F0870000002010B5FFF7C4
:1029200067FF002000F014F8084CA080A088A0F5F4
:102930000241303906D000F03DFB002000F008F8DD
:10294000A08010BD00F0ADFAF7E700000000002005
:1029500070B51D490A6842F400720A600A6842F4C0
:1029600080720A60184C103C226842F020022260FB
:10297000164A1060086840F02000086000BF00BFE1
:1029800000BF206840F020002060206840F4807084
:102990002060FFF7EDFE4FF09041886A40F48070B0
:1029A000886200BF00BF00BF0848001F006885B2F2
:1029B000886940F480708861FFF7F0FE206840F479
:1029C00000702060284670BD2804004814080048A4
:1029D00001B5BDF800000149488008BD0000002095
:1029E00010B50C460146202000F068F82146BDE8ED
:1029F0001040212000F062B801B5BDF80000014987
:102A0000088008BD00000020134A116841F40071DD
:102A10001160114910390B6843F480730B600B6827
:102A200043F020030B600D4B1860106840F020004D
:102A3000106000BF00BF00BF086840F020000860C1
:102A4000086840F48070086000BF00BF00BF0868DD
:102A500040F40070086070472804004814080048DB
:102A60001449086840F400700860086840F48070F9
:102A7000086010481038026842F0200202600E4BD5
:102A800022221A600A6842F020020A6000BF00BFDA
:102A900000BF016841F020010160016841F48071CC
:102AA000016000BF00BF00BF016841F40071016018
:102AB000704700002804004814080048184B10B55F
:102AC0001A6842F400721A601A6842F480721A603E
:102AD000134A103A146844F020041460114C20602A
:102AE000186840F02000186000BF00BF00BF1068E9
:102AF00040F020001060106840F480701060216089
:102B0000186840F02000186000BF00BF00BF1068C8
:102B100040F020001060106840F48070106010BD1C
:102B2000280400481408004800EB8100006E00F003
:102B3000F84070478068C0F3C00070478068C0F3F9
:102B4000800070478068C0F380007047042303EA68
:102B5000D15310B518444369C1F3045107248C4084
:102B6000A3438A401343436110BD00EB8100016E13
:102B700021F00041114301667047000030B58BB071
:102B8000002408940994202168460A94FDF747FB25
:102B90001C484FF0A041042501604FF40031C0E90A
:102BA0000114C4600461C0E905450477447701213C
:102BB000016280F82440C462046380F83840C46332
:102BC00080F84040FEF710F908B1FDF78FFE08A924
:102BD0000C480894FDF78CFE08B1FDF787FE0A4803
:102BE00000900620CDE901047F200594CDE903057E
:102BF00069460448FDF7E8FE002801D0FDF776FE9F
:102C00000BB030BD340000200008302E30B589B044
:102C100020216846FDF703FB19481849002401608C
:102C20004902C0E90114C46004250461C0E90545F6
:102C3000047744770121016280F82440C462046370
:102C400080F83840C46380F84040FEF7CDF808B102
:102C5000FDF74CFE0B4800900620CDE901047F20D3
:102C60000594CDE9030569460548FDF7ADFE00284A
:102C700001D0FDF73BFE09B030BD0000000100505F
:102C8000A00000200080F03E2DE9F04F87B0142115
:102C90006846FDF7C4FA3C48C16C41F00401C164C8
:102CA000C16C01F004010591C16C41F02001C164C7
:102CB000C16C01F020010591C16C41F00101C164BA
:102CC000C16C01F001010591C16C41F00201C164C8
:102CD000C16C01F002010591C16C41F00801C164B1
:102CE000C06CDFF8A88000F008004FF6FF74059074
:102CF000002221464046FEF79CFB4FF480764FF0C1
:102D00009049002231464846FEF793FBDFF880A049
:102D1000002204215046FEF78CFBDFF878B04FF418
:102D20004877002239465846FEF783FB0125CDE956
:102D3000004500240294694640460394FEF750FA89
:102D400007208DE8310069465846FEF749FA00969B
:102D5000CDE90154694648460394FEF741FA042040
:102D60000090CDE90154694650460394FEF738FAC5
:102D70000097CDE90154694658460394FEF730FAAE
:102D800007B0BDE8F08F00000010024000080048C6
:102D9000000C00480004004810B58EB000240794D1
:102DA000089409940A940B940C941C2168460D9481
:102DB000FDF735FA1E484FF08041016040F21F31A7
:102DC000C0E901146321C0E903148461FFF70DF920
:102DD00008B1FDF78BFD4FF48050079007A9144808
:102DE000FFF798F908B1FDF781FD1148FFF7CBFB1C
:102DF00008B1FDF77BFD0B940BA90D480D94FFF76F
:102E0000A5F808B1FDF772FD602000903220CDE9F1
:102E100001040422694606480494FFF722FB08B126
:102E2000FDF764FD0248FFF7F5FA0EB010BD000093
:102E30000C01002010B588B00024174800940194BC
:102E400002940394049405941249069401604F215E
:102E5000C0E9011442F20F71C0E903148461FFF765
:102E6000C4F808B1FDF742FD4FF480500090694668
:102E70000948FFF74FF908B1FDF738FD049404A99C
:102E800005480694FFF762F8002801D0FDF72EFDF3
:102E900008B010BD0008004058010020FEE7704750
:102EA000704730B501210020FFF708FE4FF47A701B
:102EB000FDF70EFD00210120FFF700FE41F29071A9
:102EC0001020FFF7FBFD4FF41C516020FFF7F6FDCB
:102ED00001216120FFF7F2FD02214620FFF7EEFD00
:102EE00048F210011320FFF7E9FD48F2FE0112201D
:102EF000FFF7E4FD4FF4A0610220FFF7DFFD41F290
:102F000030010320FFF7DAFD40F203342146302080
:102F1000FFF7D4FD21463120FFF7D0FD21463220B6
:102F2000FFF7CCFDE51E29463320FFF7C7FD03213F
:102F30003420FFF7C3FD21463520FFF7BFFD1421E4
:102F40003620FFF7BBFD21463720FFF7B7FD2146AE
:102F50003820FFF7B3FD21463920FFF7AFFD2946A2
:102F60003A20FFF7ABFD03213B20FFF7A7FD2146E9
:102F70003C20FFF7A3FD4FF4A0513D20FFF79EFD3D
:102F80004FF400719220FFF799FD21469320FFF73F
:102F900095FD40F60D019020FFF790FD41F21801DC
:102FA0000320FFF78BFDBDE8304040F2731107208E
:102FB000FFF784BD10B543F20801E320FFF77EFD63
:102FC0001221E720FFF77AFD41F23121EF20FFF7D0
:102FD00075FD00210120FFF771FD4FF4E061022033
:102FE000FFF76CFD41F230010320FFF767FD002180
:102FF0000420FFF763FD40F207210820FFF75EFD84
:1030000000210920FFF75AFD00210A20FFF756FD95
:1030100000210C20FFF752FD00210D20FFF74EFD8F
:1030200000210F20FFF74AFD00211020FFF746FD89
:1030300007211120FFF742FD00211220FFF73EFD7E
:1030400000211320FFF73AFDC820FEF7B7F841F240
:1030500090611020FFF732FD40F227211120FFF789
:103060002DFD3220FEF7AAF81D211220FFF726FDC4
:103070003220FEF7A3F84FF400611320FFF71EFD86
:1030800014212920FFF71AFD0B212B20FFF716FD35
:103090003220FEF793F800212020FFF70FFD0021DA
:1030A0002120FFF70BFD07213020FFF707FD40F23D
:1030B00007713120FFF702FD06213220FFF7FEFCE9
:1030C00040F204713520FFF7F9FC41F60471362017
:1030D000FFF7F4FC04213720FFF7F0FC0021382033
:1030E000FFF7ECFC40F206713920FFF7E7FC40F2F5
:1030F00001713C20FFF7E2FC0F213D20FFF7DEFCD1
:1031000000215020FFF7DAFCEF215120FFF7D6FC19
:1031100000215220FFF7D2FC40F23F115320FFF76D
:10312000CDFC4FF41C516020FFF7C8FC0121612049
:10313000FFF7C4FC00216A20FFF7C0FC00218020BB
:10314000FFF7BCFC00218120FFF7B8FC00218220A2
:10315000FFF7B4FC00218320FFF7B0FC002184209E
:10316000FFF7ACFC00218520FFF7A8FC1021902080
:10317000FFF7A4FC00219220FFF7A0FC032193207D
:10318000FFF79CFC4FF488719520FFF797FC002116
:103190009720FFF793FC00219820FFF78FFC41F266
:1031A00018010320FFF78AFCBDE8104040F27311BC
:1031B0000720FFF783BC7047FEF746B900B593B010
:1031C00038216846FDF72BF814210EA8FDF727F8E3
:1031D0004FF40070FEF7CAF90220C10103914021AB
:1031E00004910090079008901421CDE909010B90FB
:1031F0000C900D906846FEF789FC0F200E9003207E
:103200000F90002010901190129002210EA8FEF74E
:1032100057FB13B000BD00000548016841F4700180
:10322000016003494FF0006080390860704700007A
:1032300088ED00E00148FEF7EEBF000058010020D5
:103240002DE9F0430268234B234D244E244C4FF0CC
:103250008049984207D0484505D0A84203D0B042E3
:1032600001D0A04203D122F070074A683A431D4FB3
:10327000DFF874C0DFF8748098420DD048450BD059
:10328000A84209D0B04207D0A04205D0B84203D02E
:10329000604501D0404503D122F44075CA682A43F5
:1032A0004D6922F080022A4302608A68C2620A687D
:1032B0008262984207D0A04205D0B84203D0604550
:1032C00001D0404501D10969016301214161BDE897
:1032D000F0830000002C0140000400400008004082
:1032E00000340140004001400044014000480140DA
:1032F00010B501F01F030121046A99408C43046258
:10330000016A9A401143016210BD10B5846842EA17
:10331000032224F47F440A432243826010BD00004C
:103320008268034B1A400A4342F0070181607047EC
:103330008FFFCFFF2DE9F043026A22F00102026203
:10334000056A436882691C4C25F0020522400C681E
:1033500022F0030214438A68194E2A43174D194F6D
:10336000DFF864C0DFF86490A84207D0B04205D00F
:10337000B84203D0604501D0484506D122F0080884
:10338000CA6842EA080222F00402A84207D0B0420A
:1033900005D0B84203D0604501D0484505D14D69FC
:1033A00023F440731D438B692B4343608461496858
:1033B00041630262BDE8F0838FFFFEFF002C0140F5
:1033C00000340140004001400044014000480140F9
:1033D000F0B5026A22F010020262056A426883694F
:1033E000194C1B4E23400C6823F4407343EA042419
:1033F00025F020038D6843EA0513144DA84201D03F
:10340000B04206D1CF6823F0800343EA071323F0CC
:103410004003A8420AD0B04208D00E4DA84205D0C1
:103420000D4DA84202D00D4DA84207D14D6922F49E
:10343000406242EA85028D6942EA85024260846107
:10344000496881630362F0BDFF8FFFFE002C0140DD
:103450000034014000400140004401400048014068
:10346000F0B5026A22F480720262056A4368C2699A
:10347000194C1B4E22400C6822F00302144325F421
:1034800000728D6842EA0522144DA84201D0B04274
:1034900006D1CF6822F4006242EA072222F4806259
:1034A000A8420AD0B04208D00E4DA84205D00E4D19
:1034B000A84202D00D4DA84207D14D6923F44053D4
:1034C00043EA05138D6943EA05134360C461496803
:1034D000C1630262F0BD00008FFFFEFF002C0140BF
:1034E00000340140004001400044014000480140D8
:1034F000F0B5026A22F480520262056A4268C3692A
:10350000194C1B4E23400C6823F4407343EA0424F7
:1035100025F400538D6843EA0533144DA84201D0C9
:10352000B04206D1CF6823F4004343EA073323F4C3
:103530008043A8420AD0B04208D00E4DA84205D020
:103540000D4DA84202D00D4DA84207D14D6922F47D
:10355000404242EA85128D6942EA85124260C461A6
:10356000496801640362F0BDFF8FFFFE002C01403B
:103570000034014000400140004401400048014047
:1035800030B5026A22F480320262046A4268036D36
:10359000114D2B400D681D4324F400330C8943EA80
:1035A00004430E4CA0420BD00D4CA04208D00D4C51
:1035B000A04205D00C4CA04202D00C4CA04204D139
:1035C0004C6922F4803242EA04224260056549686F
:1035D0008164036230BD00008FFFFEFF002C0140BC
:1035E00000340140004001400044014000480140D7
:1035F00030B5026A22F480120262046A4268036DE6
:10360000114D24F400142B400D6843EA05230D8965
:1036100044EA05540D4DA8420BD00D4DA84208D0E8
:103620000C4DA84205D00C4DA84202D00B4DA8422B
:1036300004D14D6922F4802242EA8522426003656A
:103640004968C164046230BDFF8FFFFE002C014059
:103650000034014000400140004401400048014066
:1036600010B5036A046A24F001040462846924F03A
:10367000F00444EA021423F00A020A43846102625D
:1036800010BD10B5036A23F0100303628369046A56
:1036900023F4704343EA023224F0A00343EA011109
:1036A0008261016210BDFEE70FB4084B10B504A99A
:1036B00002AA039800F0EEF8044602A9002000F0E8
:1036C00080FC204610BC5DF814FB0000C33F0008DE
:1036D0000907090E002804DB00F1E02080F800143F
:1036E000704700F00F0000F1E02080F8141D7047D3
:1036F00002E008C8121F08C1002AFAD170477047BB
:10370000002001E001C1121F002AFBD17047000018
:103710002DE9FF5F82B00021DDE90430020DDDF804
:1037200040B0034318D044F61050A2F2FF32424397
:103730001514119801281FD0A5EB0B00401C5FEA5F
:10374000000A4FF000064E4FDFF83891B046504661
:1037500015D5CAF1000413E0119801244AA30128E9
:1037600001D16FEA0B010298119AC0E90031C0E95A
:10377000024206B0BDE8F09FCBF10000DFE704464F
:103780000021404A491842EB0450CDE9001012E0F4
:10379000E00707D032463B4640464946FCF7F1FD7C
:1037A0008046894632463B4610461946FCF7E9FDFD
:1037B00006460F466410002CEAD1DDE90401DDE97C
:1037C0000023BAF1000F06DAFCF7DBFD42464B4658
:1037D000FCF7D7FD05E0FCF77EFF42464B46FCF7C1
:1037E0007AFF04460E460022284BFCF7FBFF03D865
:1037F0004FF0FF30014607E00022254B20463146BE
:10380000FCF718FDFCF7D6FF102409E0002C0ADBBA
:103810000A220023FCF779FE039B30321A55641EFE
:1038200050EA0102F2D1641C039AC4F1110314445A
:10383000119A012A03D0012208430DD10AE008435E
:1038400004D000204FF0110B119072E7A3EB0B0591
:103850006D1E0DE05B4504DD4FF0000205F1010532
:1038600004E003DA4FF00002A5F10105002AECD0D4
:1038700002981199C0E90231C0E9004579E70000DA
:10388000000014400000F03F300000000000F04352
:103890000000E03F2DE9FF4F95B09B468946064664
:1038A00000250FE2252877D100242746F84A012178
:1038B000059400E0044316F8013F203B01FA03F0B1
:1038C0001042F7D130782A2811D06FF02F033078CA
:1038D000A0F13002092A16D8059A44F0020402EB3E
:1038E000820203EB42021044761C0590EFE759F880
:1038F000042B0592002A03DA504244F40054059048
:1039000044F00204761C30782E2816D116F8010FE8
:1039100044F004042A280DD06FF02F023078A0F173
:103920003003092B09D807EB870302EB4303C718C1
:10393000761CF3E759F8047B761C30786C280FD09E
:1039400006DC4C2817D068280DD06A2814D104E072
:10395000742810D07A280FD10DE044F400140AE046
:1039600044F4801401E044F440147278824202D19D
:1039700004F58014761C761C307866280BD013DC96
:10398000582877D009DC002875D04528F6D046287D
:10399000F4D047281AD19DE118E0632835D0642877
:1039A00079D0652812D195E1702873D008DC67289A
:1039B000F1D069286FD06E280DD06F2806D1B5E000
:1039C00073282CD0752875D0782874D05A4617994A
:1039D00090476D1C75E1C4F30250022809D00328FA
:1039E0000DD0D9F8001004280DD00D6009F104099C
:1039F00067E1D9F80010EA17C1E90052F6E7D9F8F3
:103A000000100D80F2E70D70F0E719F8041B8DF837
:103A1000001000208DF80100EA46012003E059F86B
:103A200004AB4FF0FF3061074FF0000102D40DE00E
:103A300008F101018846B9420FDA8045F8DB1AF82F
:103A400008100029F4D108E008F1010188468142FC
:103A5000FADB1AF808100029F6D105985B46A0EBAE
:103A6000080721463846179A00F094FA284400EBDC
:103A7000080507E04DE029E10DE01AF8010B5A4670
:103A800017999047B8F10108F7D25B4621463846AE
:103A9000179A13E142E00A220092C4F302524FF057
:103AA000000A022A08D059F804CB032A4FEAEC7125
:103AB0000AD00DE029E02AE009F1070121F0070210
:103AC000F2E802C1914609E00FFA8CFC4FEAEC7172
:103AD000042A03D14FFA8CFC4FEAEC71002907DA73
:103AE0000A460021DCF1000C61EB02012D2202E00C
:103AF000220504D52B228DF80420012203E0E207E1
:103B000001D02022F7E7904659E00A2102E0102276
:103B10000DE010214FF0000A00910BE010224FF051
:103B2000000A44F004040827009203E008224FF042
:103B3000000A0092C4F30252022A05D059F804CBBD
:103B40000021032A08D009E009F1070121F007024A
:103B5000F2E802C1914605E01FFA8CFC042A01D16B
:103B60000CF0FF0C4FF00008220728D5702806D073
:103B7000009B83F0100353EA0A0305D00EE04022B5
:103B80008DF80420012208E05CEA010206D0302210
:103B90008DF804208DF8050002229046009B83F0EA
:103BA000080353EA0A030AD15CEA010201D1620761
:103BB00005D530228DF804204FF001087F1E5828CB
:103BC00004D034A003900EA802900DE036A0F9E7CF
:103BD00053466046009AFCF798FC84460398825C42
:103BE0000298401E029002705CEA0100F0D1029837
:103BF00006A9081A00F1200A600702D524F48034CF
:103C000000E00127574502DDA7EB0A0000E0002095
:103C100000EB0A01009005984144401A0590E0032A
:103C200006D45B462146179A059800F0B3F905447F
:103C3000002706E001A85A46C05D179990476D1C01
:103C40007F1C4745F6DBE0030CD55B462146179AFF
:103C5000059800F09FF9054404E030205A46179972
:103C600090476D1C0099481E00900029F5DC08E083
:103C7000029802995A460078491C02911799904778
:103C80006D1CBAF10001AAF1010AF1DC65E1000046
:103C90000928010030313233343536373839616222
:103CA00063646566000000003031323334353637E6
:103CB00038394142434445460000000000F058F9BD
:103CC0000544761C307800287FF4ECAD19B0284606
:103CD000BDE8F08F620700D4062709F1070222F041
:103CE000070CFCE80223E14603F000485FEA080CF9
:103CF00002D00FF2702C0DE05FEA045C02D50FF2E7
:103D0000682C07E05FEAC47C02D00FF2602C01E06F
:103D1000AFF2700C4FF0FF3823F00043CDF850C0E5
:103D200065280CD006DC452809D046281DD0472838
:103D30003DD13DE0662818D067287ED138E00021CB
:103D4000112F01DB112000E0781CCDE9000106A94C
:103D50000EA8FFF7DDFCDDE90F010E9A03910021AB
:103D6000009207F1010A04914DE04FF000400097E6
:103D7000CDE9011006A90EA8FFF7CAFCDDE90F0284
:103D800003920E9B11990022DDF80CA0009304927F
:103D900011B9791C00EB010AB7EB0A0004D4C0F199
:103DA000FF3007F1010A0490AAEB0700019044E0FC
:103DB000012F00DA01270021112F01DD112000E081
:103DC0003846CDE9000106A90EA8FFF7A1FCDDE900
:103DD0000F010E9A0391002104910092BA46210727
:103DE0000CD40399514500DA8A46BAF1010F05DD7A
:103DF000009AAAF10101515C302908D0B84202DAD8
:103E000010F1040F06DA0121CDE9011015E0AAF145
:103E10000101E9E7002805DC049901440491AAEBBB
:103E2000000102E0411C514500DD8A460499401A18
:103E3000401C01904FF000400290200704D40198EC
:103E4000504501DBCDF8048000208DF84F0002982A
:103E50000DF14F07B0F1004F25D02B200E900298A6
:103E60004FF0020800280CDA404202902D200E90FC
:103E700007E00A210298FCF732FB3031029007F884
:103E8000011DB8F10001A8F10108F2DC0298002838
:103E9000EFD1791E0E980870307800F0200040F0C5
:103EA000450007F8020D12A8C01B00F1070814987E
:103EB000007800B1012000EB0A01019801EBE071EC
:103EC00005984144401A401E0590E00306D45B4625
:103ED0002146179A059800F05DF80544149800787B
:103EE00018B15A46179990476D1CE00324D55B46DC
:103EF0002146179A059800F04DF805441CE00498F7
:103F0000002807DBDDE90301884203DD0098405CFF
:103F1000179901E0179930205A469047049805F107
:103F20000105401C04900198401E019004D12E20F0
:103F30005A46179990476D1CBAF10001AAF1010A7F
:103F4000DDDC05E017F8010B5A46179990476D1C08
:103F5000B8F10001A8F10108F4DC5B462146179A8C
:103F60000598ABE62D0000002B00000020000000AB
:103F70002DE9F041044600251E461746880404D466
:103F800005E039462020B0476D1C641EF9D528464F
:103F9000BDE8F0812DE9F041044600251E4690461B
:103FA000C80301D5302700E02027880404D505E0A8
:103FB00041463846B0476D1C641EF9D52846BDE819
:103FC000F0810A68531C0B601070704710B52F4CBD
:103FD00086B02078002830D12DA16846FFF764FB19
:103FE00069461820FEF758FC2E4800F091F810EEB4
:103FF000100AFCF745FA41EC100B2BA153EC102BE7
:104000006846FFF751FB69464820FEF745FC2B4800
:1040100000F07EF810EE100AFCF732FA41EC100BBB
:1040200027A153EC102B6846FFF73EFB6946602042
:10403000FEF732FC2078002825D026A16846FFF73D
:1040400033FB69461820FEF727FC6068FCF718FA76
:1040500041EC100B24A153EC102B6846FFF724FB16
:1040600069464820FEF718FCA068FCF709FA41EC05
:10407000100B22A153EC102B6846FFF715FB694685
:104080006020FEF709FC06B010BD0000080000200B
:104090002020202020204441544120202020202086
:1040A00000000000A0000020202020565233373AA4
:1040B000252E3266562020202020200034000020AB
:1040C000202020565233383A252E326656202020A2
:1040D000202020002020202020205041524120205C
:1040E00020202020000000002020205650313A25BA
:1040F0002E3166562020202020200000202020562F
:1041000050323A252E3166562020202020200000F3
:1041100010B50446FCF7D8FF2046FCF761FEFCF71B
:10412000A2F99FED081B53EC112BFCF72AF99FED28
:10413000071B53EC112BFCF724F9FCF7B4F900EE44
:10414000100A10BD6666666666660A4000000000DA
:104150000000303F2DE9F0411E4D00262DED048B6F
:10416000A8781D4C012804D1207880F0010020702F
:10417000AE7068799FED199B1A4F9FED1B8A01283D
:1041800010D1207868B16068FCF77AF953EC192BEC
:10419000FCF750F8FCF787F96060B84201DD84ED68
:1041A000018A6E71287A012810D1207868B1A06840
:1041B000FCF766F953EC192BFCF73CF8FCF773F9A4
:1041C000A060B84201DD84ED028A2E72BDEC048B42
:1041D000BDE8F0811C000020080000203333333399
:1041E0003333D33F333353400000000010B5024651
:1041F0004FF480710748FDF71CF9074C0122042198
:104200002046FDF716F920460022BDE810400421A3
:10421000FDF70FB900080048000C004810B5024631
:104220004FF400710748FDF704F9074C01220421FF
:104230002046FDF7FEF820460022BDE8104004218C
:10424000FDF7F7B800080048000C004810B501223F
:104250004FF47F410748FDF7ECF8074C0122042199
:104260002046FDF7E6F820460022BDE81040042174
:10427000FDF7DFB800080048000C004810B5FFF754
:10428000E5FF1048FFF744FF0F4CD4ED010AB4EEF0
:10429000E00AF1EE10FA01DD002000E00120FFF756
:1042A000A5FF0A48FFF734FFD4ED020AB4EEE00A96
:1042B000F1EE10FA01DD002000E00120BDE8104021
:1042C000FFF7ACBFA0000020080000203400002051
:1042D000FDF7C2F8FEF772FFFEF7D6FCFEF7AAFD67
:1042E000FEF74CFCFEF792FCFEF756FDFEF716FBC0
:1042F0001348FDF7D3FE04211248FEF777F9114861
:1043000001680A6822F440720A600268136840F685
:104310009F710B43136001610020FEF757FA0020E4
:10432000FEF756FB4FF6FF70FEF766FBFFF74EFEFB
:10433000FFF710FFFFF7A2FF00F006F8F6E7000016
:10434000580100200C01002010B513482DED028B00
:10435000FFF7DEFEB0EE408A1048FFF7D9FE1048A6
:10436000B4EEC08A0168F1EE10FA0A6822F44072D5
:104370000A6006DD01680A6842F04F020A604F21B8
:1043800005E00268136840F69F710B4313600161FA
:10439000BDEC028B10BD0000A00000203400002006
:1043A0000C010020000000000000000000000000E0
:1043B00000000000000000000000000000000000FD
:1043C00000000000000000000000000000000000ED
:1043D0000000000000008001800180018001800158
:1043E00080018001800180018001800180018001C5
:1043F00000000000800180010000000000000000BB
:104400000000000000000000CC00CC00CC00CC007C
:10441000CC00CC0000000000000000000000000004
:10442000000000000000000000000000000000008C
:10443000000000000000000000000000000000007C
:10444000600C600C600C30063006FE1FFE1F30064C
:1044500038071803FE1FFE1F180318038C018C0178
:104460008C01000000008000E003F80F9C0E8C1C03
:104470008C188C009800F801E007800E801C8C18C6
:104480008C189C18B80CF00FE0038000800000002E
:10449000000000000000000000000E181B0C110CB2
:1044A00011061106110311039B018E01C038C06C67
:1044B00060446044304430441844186C0C380000A8
:1044C000000000000000E001F0033807180618069D
:1044D0003003F001F000F8009C310E33061E061C7C
:1044E000061C063FFC73F0210000000000000000E5
:1044F00000000000000000000C000C000C000C008C
:104500000C000C0000000000000000000000000093
:10451000000000000000000000000000000000009B
:10452000000000000000000200038001C000C00085
:10453000600060003000300030003000300030009B
:104540003000300060006000C000C0008001000347
:1045500000020000000020006000C0008001800117
:104560000003000300060006000600060006000621
:10457000000600060003000380018001C000600007
:10458000200000000000000000000000000000000B
:10459000C000C000D806F807E0013003380700006B
:1045A000000000000000000000000000000000000B
:1045B00000000000000000000000000000000000FB
:1045C00080018001800180018001FC3FFC3F80016F
:1045D00080018001800180010000000000000000D7
:1045E00000000000000000000000000000000000CB
:1045F00000000000000000000000000000000000BB
:104600000000000000008001800100010001800026
:10461000000000000000000000000000000000009A
:10462000000000000000000000000000E007E007BC
:10463000000000000000000000000000000000007A
:10464000000000000000000000000000000000006A
:10465000000000000000000000000000000000005A
:10466000000000000000C000C000000000000000CA
:10467000000000000000000C000C00060006000610
:104680000003000300038003800180018001C0005B
:10469000C000C000600060000000000000000000DA
:1046A000000000000000E003F007380E180C0C18A2
:1046B0000C180C180C180C180C180C180C180C18DA
:1046C000180C380EF007E0030000000000000000A6
:1046D00000000000000000018001C001F00198010D
:1046E00088018001800180018001800180018001BA
:1046F00080018001800180010000000000000000B6
:10470000000000000000E003F80F180C0C180C1853
:1047100000180018000C000600038001C0006000B3
:1047200030001800FC1FFC1F00000000000000000B
:10473000000000000000E001F807180E0C0C0C0C43
:10474000000C0006C003C007000C001800180C186D
:104750000C18180CF807E00300000000000000002F
:10476000000000000000000C000E000F000F800D84
:10477000C00C600C600C300C180C0C0CFC3FFC3FA7
:10478000000C000C000C000C0000000000000000F9
:10479000000000000000F80FF80F180018000C00CF
:1047A000EC03FC071C0E001C0018001800180C1865
:1047B0001C0C180EF807E0030000000000000000C9
:1047C000000000000000C007F00F381C1818180087
:1047D0000C00CC03EC0F3C0E1C1C0C180C180C1815
:1047E000181C380EF007E003000000000000000075
:1047F000000000000000FC1FFC1F000C000600066B
:10480000000380038001C001C000E0006000600080
:104810007000300030003000000000000000000098
:10482000000000000000E003F007380E180C180C20
:10483000180C3806F007F007180C0C180C180C1898
:104840000C18380CF80FE003000000000000000016
:10485000000000000000E003F007380E1C0C0C18EC
:104860000C180C181C1C381EF81BE0190018000C42
:10487000000C1C0EF807F001000000000000000012
:104880000000000000000000000000000000000028
:104890008001800100000000000000000000000016
:1048A0000000000080018001000000000000000006
:1048B00000000000000000000000000000000000F8
:1048C00080018001000000000000000000000000E6
:1048D0000000000080018001000100018000000054
:1048E00000000000000000000000000000000000C8
:1048F000000000000010001C800FE003F80018000A
:10490000F800E003800F001C001000000000000011
:104910000000000000000000000000000000000097
:1049200000000000F81F000000000000F81F000059
:104930000000000000000000000000000000000077
:104940000000000000000000000000000000000067
:104950000000000008003800F001C007001F001828
:10496000001FC007F0013800080000000000000030
:10497000000000000000E003F80F180C0C180C18E1
:104980000018000C000600038001C000C000C00039
:1049900000000000C000C000000000000000000097
:1049A0000000000000000000E00718180420C229E1
:1049B000224A114409440944094409221113E20C12
:1049C000024004201818E00700000000000000006A
:1049D00000000000000080038003C006C006C0067F
:1049E000600C600C301830183018F83FF83F1C701D
:1049F0000C600C6006C006C0000000000000000053
:104A0000000000000000FC03FC0F0C0C0C180C183C
:104A10000C180C0CFC07FC0F0C180C300C300C3074
:104A20000C300C18FC1FFC07000000000000000008
:104A3000000000000000C007F01F38381C300C7068
:104A40000660060006000600060006000600066076
:104A50000C701C30F01FE007000000000000000098
:104A6000000000000000FE03FE0F060E06180618E8
:104A7000063006300630063006300630063006189E
:104A80000618060EFE0FFE030000000000000000E6
:104A9000000000000000FC3FFC3F0C000C000C007C
:104AA0000C000C00FC1FFC1F0C000C000C000C0088
:104AB0000C000C00FC3FFC3F000000000000000068
:104AC000000000000000F83FF83F18001800180030
:104AD00018001800F81FF81F180018001800180018
:104AE0001800180018001800000000000000000066
:104AF000000000000000E00FF83F3C780E6006E088
:104B000007C00300030003FE03FE03C007C006C086
:104B10000EC03CF0F83FE00F000000000000000075
:104B20000000000000000C300C300C300C300C3059
:104B30000C300C30FC3FFC3F0C300C300C300C3097
:104B40000C300C300C300C30000000000000000075
:104B500000000000000080018001800180018001D0
:104B6000800180018001800180018001800180013D
:104B70008001800180018001000000000000000031
:104B80000000000000000006000600060006000607
:104B900000060006000600060006000600061806CD
:104BA00018063807F003E0010000000000000000D4
:104BB00000000000000006300618060C060606037A
:104BC0008601C60066007600DE008E01060306063A
:104BD000060C061806300660000000000000000009
:104BE000000000000000180018001800180018004D
:104BF00018001800180018001800180018001800F5
:104C000018001800F81FF81F000000000000000046
:104C10000000000000000EE01EF01EF01EF036D86E
:104C200036D836D836D866CC66CC66CCC6C6C6C6AC
:104C3000C6C6C6C686C386C30000000000000000CA
:104C40000000000000000C301C303C303C306C3068
:104C50006C30CC30CC308C310C330C330C360C3601
:104C60000C3C0C3C0C380C30000000000000000034
:104C7000000000000000E007F81F1C380E700660FE
:104C800003C003C003C003C003C003C003C0066069
:104C90000E701C38F81FE007000000000000000044
:104CA000000000000000FC0FFC1F0C380C300C3022
:104CB0000C300C300C18FC1FFC070C000C000C0016
:104CC0000C000C000C000C000000000000000000B4
:104CD000000000000000E007F81F1C380E7006609E
:104CE00003E003C003C003C003C003C007E00663C2
:104CF0000E3F1C3CF83FE0F700C000000000000041
:104D0000000000000000FE0FFE1F063806300630CF
:104D100006300638FE1FFE0706030606060C0618B8
:104D20000618063006300660000000000000000093
:104D3000000000000000E003F80F1C0C0C180C1819
:104D40000C001C00F803E00F001E0038063006308F
:104D50000E301C1CF80FE0070000000000000000EF
:104D6000000000000000FE7FFE7F800180018001C6
:104D7000800180018001800180018001800180012B
:104D8000800180018001800100000000000000001F
:104D90000000000000000C300C300C300C300C30E7
:104DA0000C300C300C300C300C300C300C300C3023
:104DB0000C301818F81FE007000000000000000089
:104DC00000000000000003600630063006300C18BA
:104DD0000C180C18180C180C380E3006300670071A
:104DE00060036003C001C00100000000000000007B
:104DF0000000000000000360C361C361C36166334B
:104E0000663366336633663366336C1B6C1B6C1B10
:104E10002C1A3C1E380E380E000000000000000066
:104E20000000000000000FE00C7018303018700C0B
:104E3000600EC00780038003C003E006700C301CC6
:104E400018180C300E6007E00000000000000000A1
:104E500000000000000003C006600C301C38381849
:104E6000300C6006E007C0038001800180018001F2
:104E7000800180018001800100000000000000002E
:104E8000000000000000FC7FFC7F00600030001884
:104E9000000C000600038001C00060003000180014
:104EA0000C000600FE7FFE7F0000000000000000F6
:104EB000000000000000E003E0036000600060000C
:104EC00060006000600060006000600060006000E2
:104ED0006000600060006000600060006000E0034F
:104EE000E00300000000300030006000600060005F
:104EF000C000C000C000C00180018001800100032B
:104F0000000300030006000600000000000000008F
:104F1000000000000000E003E003000300030003C2
:104F20000003000300030003000300030003000369
:104F30000003000300030003000300030003E00379
:104F4000E003000000000000C001C0016003600336
:104F5000600330063006180C180C0000000000003A
:104F60000000000000000000000000000000000041
:104F70000000000000000000000000000000000031
:104F80000000000000000000000000000000000021
:104F9000000000000000FFFFFFFF00000000000015
:104FA0000000000000000C000C000C000C000C00C5
:104FB0000C000000000000000000000000000000E5
:104FC00000000000000000000000000000000000E1
:104FD00000000000000000000000000000000000D1
:104FE000F003F8071C0C0C0C000FF00FF80C0C0C65
:104FF0000C0C1C0FF80FF01800000000000000005F
:105000000000000000001800180018001800180028
:10501000D803F80F380C181818181818181818187A
:105020001818380CF80FD80300000000000000002A
:105030000000000000000000000000000000000070
:10504000C003F007300E180C1800180018001800E4
:10505000180C300EF007C003000000000000000034
:1050600000000000000000180018001800180018C8
:10507000C01BF01F301C181818181818181818180A
:105080001818301CF01FC01B0000000000000000BA
:105090000000000000000000000000000000000010
:1050A000C003F00F300C1818F81FF81F1800180074
:1050B0003818301CF00FC00700000000000000008E
:1050C000000000000000800FC00FC000C000C00042
:1050D000F007F007C000C000C000C000C000C00062
:1050E000C000C000C000C0000000000000000000C0
:1050F00000000000000000000000000000000000B0
:10510000E00DF80F180E0C0C0C0C0C0C0C0C0C0C0D
:105110000C0C180EF80FE00D000C0C0C1C06F80718
:10512000F001000000001800180018001800180016
:10513000D807F80F381C1818181818181818181845
:10514000181818181818181800000000000000009F
:10515000000000000000C000C000000000000000CF
:10516000C000C000C000C000C000C000C000C0003F
:10517000C000C000C000C00000000000000000002F
:10518000000000000000C000C0000000000000009F
:10519000C000C000C000C000C000C000C000C0000F
:1051A000C000C000C000C000C000C000C000F800C7
:1051B0007800000000000C000C000C000C000C003B
:1051C0000C0C0C060C038C01CC006C00FC009C0148
:1051D0008C030C030C060C0C000000000000000007
:1051E000000000000000C000C000C000C000C000FF
:1051F000C000C000C000C000C000C000C000C000AF
:10520000C000C000C000C00000000000000000009E
:10521000000000000000000000000000000000008E
:105220007C3CFF7EC7E383C183C183C183C183C14B
:1052300083C183C183C183C100000000000000005E
:10524000000000000000000000000000000000005E
:105250009807F80F381C1818181818181818181864
:10526000181818181818181800000000000000007E
:10527000000000000000000000000000000000002E
:10528000C003F00F300C1818181818181818181830
:105290001818300CF00FC0030000000000000000E0
:1052A00000000000000000000000000000000000FE
:1052B000D803F80F380C18181818181818181818D8
:1052C0001818380CF80FD803180018001800180028
:1052D00018000000000000000000000000000000B6
:1052E000C01BF01F301C1818181818181818181898
:1052F0001818301CF01FC01B0018001800180018E8
:105300000018000000000000000000000000000085
:10531000B007F00370003000300030003000300083
:1053200030003000300030000000000000000000BD
:10533000000000000000000000000000000000006D
:10534000E003F003380E180C3800F003C007000C1F
:10535000180C380EF007E003000000000000000009
:1053600000000000000000008000C000C000C0007D
:10537000F007F007C000C000C000C000C000C000BF
:10538000C000C000C007800700000000000000004F
:10539000000000000000000000000000000000000D
:1053A000181818181818181818181818181818187D
:1053B0001818381CF01FE019000000000000000061
:1053C00000000000000000000000000000000000DD
:1053D0000C18180C180C180C300630063006600338
:1053E00060036003C001C001000000000000000075
:1053F00000000000000000000000000000000000AD
:10540000C141C141C361636363636363363636364A
:1054100036361C1C1C1C1C1C000000000000000078
:10542000000000000000000000000000000000007C
:105430001C38381C300C6006600360036003600396
:105440006006300C381C1C38000000000000000012
:10545000000000000000000000000000000000004C
:105460001830301830187018600C600CE00CC00652
:10547000C00680038003800380018001C001F0002A
:1054800070000000000000000000000000000000AC
:10549000FC1FFC1F000C000600038001C000600020
:1054A00030001800FC1FFC1F00000000000000007E
:1054B00000000000000000038001C000C000C00028
:1054C000C000C000C000600060003000600040000C
:1054D000C000C000C000C000C000C00080010003C8
:1054E0000000000000008001800180018001800137
:1054F00080018001800180018001800180018001A4
:105500008001800180018001800180018001800193
:105510008001000000006000C000C0018001800127
:1055200080018001800100030003000600030001E8
:10553000800180018001800180018001C000600045
:10554000000000000000000000000000000000005B
:1055500000000000F010F81F080F0000000000001D
:10556000000000000000000000000000000000003B
:105570000000000000000000000000000102030421
:1055800006070809A45500080000002034000000A8
:10559000F0360008D85500083400002074050000DB
:1055A000003700080000FFFF0000000000000000BE
:1055B0009A9919409A991940000000000024F400BB
:1055C00001000000000000000000000010000000CA
:0855D0000100000000000000D2
:04000005080001D915
:00000001FF
