:020000040800F2
:1000000080050020ED010008533300089D2A0008F8
:10001000513300080D0900080B3C000800000000E7
:100020000000000000000000000000006B36000827
:100030000F09000800000000553300086D36000865
:10004000070200080702000807020008070200086C
:10005000070200080702000807020008070200085C
:10006000070200080702000807020008070200084C
:10007000070200080702000807020008070200083C
:10008000070200080000000007020008070200083D
:10009000070200080702000807020008070200081C
:1000A000070200080702000807020008070200080C
:1000B000E9360008F53600080702000807020008C4
:1000C00007020008070200080702000807020008EC
:1000D00007020008070200080702000807020008DC
:1000E00007020008070200080702000807020008CC
:1000F00007020008070200080702000800000000CD
:1001000000000000070200080000000007020008CD
:1001100007020008000000000702000807020008AC
:10012000070200080702000807020008070200088B
:10013000070200080000000000000000070200089D
:10014000070200080702000800000000000000008D
:10015000000000000000000000000000000000009F
:10016000000000000000000000000000070200087E
:10017000070200080000000000000000000000006E
:10018000000000000702000800000000000000005E
:10019000000000000000000000000000000000005F
:1001A000000000000000000007020008070200082D
:1001B000070200080702000807020008000000000C
:1001C000000000000702000800000000000000001E
:1001D0000702000807020008DFF80CD000F028FB37
:1001E00000480047A94700088005002006488047CE
:1001F00006480047FEE7FEE7FEE7FEE7FEE7FEE70C
:10020000FEE7FEE7FEE7FEE7CD360008D90100086D
:10021000D2B201E000F8012B491EFBD27047002248
:10022000F6E710B513460A4604461946FFF7F0FFF5
:10023000204610BD2DE9FE4F81EA030404F000447E
:1002400021F0004100944FF0000B23F0004350EAEE
:1002500001045ED052EA03045BD0C3F30A54C1F335
:100260000A552C44A4F2F3340194A0FB0254C1F3C8
:10027000130141F48011C3F3130343F4801301FB12
:10028000024400FB034E840A970A44EA815447EA79
:100290008357A4FB076802958D0A05FB07854FEA83
:1002A000932C04FB0C542705029D4FEA065847EA9D
:1002B0001637B5EB08056EEB070C870E920E47EA72
:1002C000811742EA8312A7FB0201B6EB0B0164EB34
:1002D00000042B0D43EA0C335E1844EB1C50DA4645
:1002E0005146E7FB0201C5F313044FEA0B3343EA1F
:1002F00014534FEA0432019C43EA0603A4F10C04B0
:100300000294009CCDE900B400F06DF903B0BDE8A3
:10031000F08F00200146F9E72DE9F04D81EA030452
:1003200004F0004B21F0004514464FF0000A23F082
:10033000004150EA050220D054EA01021DD0C5F365
:100340000A570246C5F31303C1F31300C1F30A565B
:1003500040F4801543F48013A7EB0608101BD64623
:1003600008F2FD3873EB050002D308F1010801E043
:1003700092185B41B8F1000F03DA00200146BDE896
:10038000F08D00204FF48011064684460EE0171BC6
:1003900073EB050705D3121B63EB050306434CEA19
:1003A000010C49084FEA300092185B4150EA0107FE
:1003B000EDD152EA030012D082EA040083EA05017B
:1003C000084305D0101BAB4106D20122002306E0F2
:1003D00000224FF0004302E06FF0010253101AEBCD
:1003E00006004CEB085110EB0A0041EB0B01BDE895
:1003F000F04D00F0E9B80EB540F233410291002112
:10040000CDE900110A460B4600F0EDF803B000BD3F
:1004100070B5C1F30A5201F000450024C1F3130185
:1004200040F2FF3341F480119A4201DA002070BD9E
:1004300040F233439A42A2F2334203DC524200F0CC
:100440007CF800E090402C43F1D0404270BD00F0B9
:10045000004230F000400AD0C10D01F56071C0F3D8
:10046000160042EA0151C2084007114370470020BC
:100470000146704701F0004330B421F0004150EADA
:10048000010206D00A0DA2F56072C1F31301002A21
:1004900002DC30BC00207047440F44EAC104C100B4
:1004A000E01830BC00EBC25000F057B830B50B4636
:1004B000014600202022012409E021FA02F59D4294
:1004C00005D303FA02F5491B04FA02F52844151E68
:1004D000A2F10102F1DC30BD2DE9F05F05460020FC
:1004E00092469B4688460646814640241BE02846A5
:1004F00041464746224600F020F853465A46C01A65
:10050000914110D311461846224600F0A3F92D1A46
:1005100067EB01084F4622460120002100F09AF9BE
:1005200017EB00094E41201EA4F10104DFDC484610
:1005300031462A464346BDE8F09F202A04DB203A94
:1005400021FA02F00021704721FA02F3D040C2F1F3
:10055000200291400843194670470029A8BF704700
:10056000401C490008BF20F00100704710B4B0FAE9
:1005700080FC00FA0CF050EA010404BF10BC704784
:1005800049B1CCF1200421FA04F411FA0CF118BF9E
:10059000012121430843A3EB0C01CB1D4FEA00616D
:1005A0004FEA102042BF002010BC704700EBC35040
:1005B00010440029A4BF10BC7047401C490008BF6C
:1005C00020F0010010BC704710B5141E73F1000438
:1005D00008DA401C41F1000192185B411A4301D135
:1005E00020F0010010BD2DE9F04D92469B4611B15F
:1005F000B1FA81F202E0B0FA80F22032904600F0C7
:1006000029F904460F4640EA0A0041EA0B01534625
:100610005A46084313D0114653EA010019D0C8F1D5
:1006200040025046FFF789FF05460E4650465946A0
:10063000424600F00FF9084305D0012004E02046AF
:100640003946BDE8F08D0020054346EAE0762C43AC
:1006500037430A986305E40AA0EB08000022FD0A6C
:1006600044EA47540A3002D500200146E9E7010573
:1006700010196941DDE9084500196941BDE8F04DEF
:10068000A2E72DE9FE4F804681EA0300C00F0C4629
:10069000009021F0004123F00045B8EB0200A94191
:1006A00005D24046214690461C460B46024623F0A2
:1006B0000040104347D0270DC7F30A00C3F30A5187
:1006C0000290401A019040286BDAC3F3130040F403
:1006D000801B0098924620B10023D2EB030A63EB03
:1006E0000B0B01985946C0F14002504600F0B2F899
:1006F00006460D4650465946019A00F0BAF810EBEE
:1007000008006141002487EA115284EAE7731A4322
:1007100040D0009A62B3019A012A4FEA075215DCD1
:10072000001B61EB02014FF0004202EA0752CDE9E3
:100730000042001C41F5801132462B46FFF753FF63
:1007400003B0BDE8F08F40462146F9E7001B61EB9E
:100750000201001C41F5801300185B412018A2F52E
:10076000001747EB030140EAD570B6196D4111E05F
:100770006D084FEA360645EAC0754FEA0752001B7E
:1007800061EB0201001C41F5801149084FEA30007D
:100790000019514132462B4603B0BDE8F04FFFF738
:1007A00013BF0098012240000023D0EB020263EB4C
:1007B000E073009821464FEAE074B8EB000061EB6B
:1007C0000401E9E783F000435BE781F0004158E76B
:1007D000C1F30A52C1F3130140F2FF3341F4801117
:1007E0009A4202DA00200146704740F233439A42AF
:1007F000A2F2334202DC5242FFF79FBE00F02AB859
:1008000030B5041E71F1000404DB4FF00044404297
:1008100064EB0101141E73F1000405DB1C464FF06C
:100820000043524263EB0403994208BF904230BD3B
:10083000064C074D06E0E06840F0010394E807002D
:1008400098471034AC42F6D3FFF7CAFCC05A0008F0
:10085000E05A0008202A04DB203A00FA02F10020C6
:1008600070479140C2F1200320FA03F319439040EE
:100870007047202A06DBCB17203A41FA02F043EA00
:10088000E07306E041FA02F3D040C2F12002914049
:10089000084319467047000070B504460068816837
:1008A00011F0010F2DD18168174A11421AD18168C8
:1008B000D5432940491C816000F03EFD06461BE0FF
:1008C000816811F0010F03D181682940491C8160C2
:1008D00000F032FD801B02280ED920680068C0435A
:1008E000C00709D0E06D40F01000E065206E40F0D8
:1008F00001002066012070BD20680168C943C90756
:10090000DED1002070BD00003F000080FEE7704790
:10091000002240F6B83306E00021491C89B2994212
:10092000FBD3521C92B28242F6D37047704700004C
:100930002DE9F84F00270446009790F85800DFF89B
:10094000D8930D46B846012811D0012684F8586086
:10095000206802F04BFB60B1E06D40F02000E065E4
:100960005FF0010784F858803846BDE8F88F022010
:10097000FBE7D5E900210C23206803EA9113184412
:10098000036B01F01F014FF01F0C0CFA01FCC2F3C6
:10099000846223EA0C038A4013430363206802F055
:1009A00025FB8246206802F01DFB5AEA00003CD17C
:1009B000AA6829682068B2F1004F37D002F01AFB0C
:1009C0002068416921F00041416120686969C2687D
:1009D000C2F3C102520091402A69042A31D000EBCF
:1009E00082002B68026EDFF834C303F0F84302EA9A
:1009F0000C020B431A4342F00041016620682A6949
:100A0000A96900EB8200026E22F080720A4302663E
:100A1000297F22682869012910D0002102EB80007B
:100A2000026E22F000720A4302667DE0002202F0AC
:100A3000E1FA2068416941F00041C5E74FF00071DB
:100A4000ECE7002102F0C8FA400320684FF00001F3
:100A500072D002F0C1FA90FAA0F0B0FA80F12868E2
:100A600042036ED090FAA0F0B0FA80F0814204D137
:100A700000221146206802F0CCFA0121206802F021
:100A8000ABFA400320684FF001015DD002F0A4FAF8
:100A900090FAA0F0B0FA80F12868420359D090FA99
:100AA000A0F0B0FA80F0814204D100220121206838
:100AB00002F0AFFA0221206802F08EFA40032068AB
:100AC0004FF0020148D002F087FA90FAA0F0B0FA95
:100AD00080F12868420344D090FAA0F0B0FA80F088
:100AE000814204D100220221206802F092FA0321FF
:100AF000206802F071FA400320684FF0030133D000
:100B000002F06AFA90FAA0F0B0FA80F12868420385
:100B10002FD090FAA0F0B0FA80F0814204D10022E8
:100B20000321206802F075FA2068816811F0010F36
:100B300022D0A8E000E004E002F04EFAC0F38461A5
:100B40008DE7C0F3846091E702F046FAC0F3846158
:100B5000A2E7C0F38460A6E702F03EFAC0F3846126
:100B6000B7E7C0F38460BBE702F036FAC0F38461F4
:100B7000CCE7C0F38460D0E7EB6829684B4550F8B8
:100B8000B03FC1F3120101D10B4300E08B4303607E
:100B9000E868484577D1286841031CD090FAA0F155
:100BA000B1FA81F1491C01F01F0109294FEA4031D6
:100BB00032D8002912D000BF90FAA0F1B1FA81F129
:100BC00001F1010101F01F0106FA01F609D100BF90
:100BD000C0F3846109E0C0F38461E3E7C0F384619A
:100BE000EEE790FAA0F1B1FA81F101F1010101F013
:100BF0001F0146EA816102D1C0F3846003E090FAEC
:100C0000A0F0B0FA80F000F1010000F01F0000EB4E
:100C1000400041EA005132E000290ED090FAA0F1E4
:100C2000B1FA81F101F1010101F01F0106FA01F6AB
:100C300006D100BFC0F3846106E0C0F38461F1E730
:100C400090FAA0F1B1FA81F101F1010101F01F0167
:100C500046EA816102D1C0F3846003E090FAA0F01B
:100C6000B0FA80F000F1010000F01F002C4A00EB08
:100C7000400002EB005041EA000141F00071AA6817
:100C8000206802F0B7F927482A6802423FF46AAEAA
:100C900025488168254B01F0E0719A4202D0244B2F
:100CA0009A421CD10B021AD42268B2F1A04F7FF4F1
:100CB00059AE826841F4000122F0E0720A4382607A
:100CC0001C481D490068B0FBF1F0401C00EB4000DF
:100CD000800000E0401E00900028FBD142E6174D46
:100CE000174BAA4207D1CD0105D422689A42F5D00C
:100CF00041F0807109E0134DAA42EFD14A02EDD4D0
:100D000022689A42EAD041F48001826822F0E072BF
:100D10000A43826026E6000000007F4000F0FF03E7
:100D2000000020FE0000088000030050000021C3E6
:100D30001000C09008000020400D0300000052C7C2
:100D400000010050000084CB0068006C7047000078
:100D5000F8B54FF0000504002E46009502D0E06D76
:100D600010B107E00120F8BD204600F0EFF826663C
:100D700084F8586020688168C1F3407119B18168B6
:100D80006A4A1140816020688168C1F3007189B9A5
:100D90008168674A114041F0805181606548664929
:100DA0000068B0FBF1F04000801C00E0401E0090A5
:100DB0000028FBD120688168C1F3007141B9E16D61
:100DC00041F01001E165216E41F00101216601252C
:100DD00002F00CF9E16DC90600D430B1E06D40F0CD
:100DE0001000E06501252846F8BDE06D20F4807014
:100DF00040F00200E0652068806810F0010F11D11A
:100E00004FF0A04080684D4900F00100896801F072
:100E10000101084306D14A486168826822F47C12C5
:100E20000A438260E168E06B627F0843A16841EA9F
:100E30004231084394F8241040EA0140012904D1CA
:100E4000218D404A02EB41410843E16A29B101F496
:100E50007871226B014342EA01002168CA683A4B6B
:100E60001A400243CA6020680169626B21F0406148
:100E700011430161206802F0B9F80646206802F0CB
:100E8000B1F830432ED1207F94F83810800340EA27
:100E900041022068C16844F2020399431143C160D2
:100EA00020690028206801690AD041F4803101617D
:100EB000206850F8C01F22696FF30D01114307E04D
:100EC00021F480310161206850F8C01F6FF30D01DB
:100ED000016094F8400001280CD02068016921F0DD
:100EE00001010161606901282068016B21F00F0197
:100EF00011D013E0D4E911010843D4E913121143CE
:100F0000084321680A6940F2FC739A43104340F099
:100F100001000861E6E7226A521E11430163E06D99
:100F200020F0020040F00100E0655CE7C0FFFF5FD9
:100F3000C0FFFF7F08000020400D030000010050AB
:100F4000000300500000FEFF0740F0FF10B598B00E
:100F50000446142111A8FFF762F944216846FFF7FF
:100F60005EF915492068884223D1C40140050094E8
:100F70000F90684600F0DEFA08B1FFF7D7FC0F4883
:100F8000C16C41F40051C164C16C01F4005116916F
:100F9000C16C41F00201C164C06C11A900F00200F3
:100FA00016900320CDE9114000201390044800F072
:100FB00095F818B010BD000000010050001002406C
:100FC000000400482DE9F04104463848806800F0EC
:100FD0001F05206802F00AF818B102210846BDE892
:100FE000F08194F8580001280CD0012084F85800B2
:100FF0002046FFF751FC01004FF0000304D084F8B5
:101000005830EBE70220EAE7E06D40F601629043DA
:1010100040F48070E065264A20684FF0A046904278
:1010200001D1374600E00746874200D01DB9E76D81
:1010300027F48017E765E76DFF0404D5276E27F0D6
:101040000607276600E023661C27076084F85830EF
:101050002068904201D1334600E00346834215D018
:10106000A5B1052D12D0092D10D0E36D43F48013E6
:10107000E365904200D13046C0688001AED5E06D96
:1010800020F4005040F48050E065A7E7C268920168
:1010900005D5E26D22F4005242F48052E265826886
:1010A000044B1A40121D826098E7000000030050B4
:1010B00000010050C0FFFF7F70B5044600F03CF90E
:1010C0000546601C02D004484068044400F034F92E
:1010D000401BA042FAD370BD0C0000202DE9F04F58
:1010E000DFF82092002301260324A9F1040B85B028
:1010F0000F2709F1040AABF1040EFAE006FA03F532
:101100002A407CD091F804C00CF0030CBCF1010F14
:1011100002D0BCF1020F26D1D0F808C0CDF800C033
:101120004FEA430C04FA0CF8CDF810C0DDF800C00B
:101130002CEA080CCDF800C0D1F80C80DDF810C006
:1011400008FA0CF8DDF800C048EA0C08C0F808807E
:10115000D0F804C02CEA050C0D79C5F300159D40AC
:1011600045EA0C0545600D79ED43AD070ED0C56825
:101170004FEA430804FA08FC25EA0C05D1F808C038
:101180000CFA08FC4CEA050CC0F80CC00D7905F00F
:101190000305022D16D1DD0800EB850CCDF808C043
:1011A000DCF820805D074FEAD56C07FA0CF528EAD9
:1011B00005080D6905FA0CF5DDF808C045EA0805D3
:1011C000CCF8205005684FEA430CCDF808C004FA6B
:1011D0000CFC25EA0C0591F804C00CF00308DDF8BE
:1011E00008C008FA0CF848EA0508C0F800804D6805
:1011F00015F4403F7CD0444DD5F860C000E077E066
:101200004CF0010CC5F860C02D6E23F0030C05F006
:10121000010500953D4D65440295AD684FEA837C1C
:101220004FEA1C7807FA08FC25EA0C05B0F1904F4C
:1012300006D0DFF8DCC0604505D14FF0010C20E09E
:101240004FF0000C1DE0DFF8CCC0604502D14FF03C
:10125000020C16E0DFF8C0C0604502D14FF0030C6D
:101260000FE0DFF8B8C0604502D14FF0040C08E091
:10127000DFF8ACC0604502D14FF0050C01E04FF043
:10128000060C0CFA08FC4CEA050C029DC5F808C0D7
:10129000D9F80050CC46D1F8048095435FEAC828BD
:1012A00000D51543CCF80050DAF80050D446D1F8F8
:1012B000048095435FEA882800D51543CCF8005098
:1012C000DBF80050DC46D1F8048095435FEA8838AB
:1012D00000D51543CCF80050DEF80050F446D1F8A4
:1012E000048095435FEAC83800D51543CCF8005018
:1012F0005B1C0A6832FA03F57FF400AF05B0BDE865
:10130000F08F00000804014000100240000001407E
:101310000004004800080048000C00480010004885
:10132000001400480069084000D0012070470AB14D
:101330008161704781627047014880687047000092
:101340000C000020024881684268114481607047A7
:101350000C00002010B50024032000F073F80020DA
:1013600000F008F808B1012401E000F025F820465B
:1013700010BD000070B50E4E05460024706898B18F
:101380004FF47A71B1FBF0F00A490968B1FBF0F053
:1013900000F040FD40B9102D06D200222946501E13
:1013A00000F030F8356000E00124204670BD0000F8
:1013B0000C000020080000200A4882B0016E41F0B5
:1013C00001010166016E01F001010091816D41F0A2
:1013D00080518165806D00F08050009002B000F077
:1013E000A1B8000000100240002809DB00F01F0235
:1013F000012191404009800000F1E020C0F8001177
:1014000070470000F0B40E4B1B680C46C3F3022378
:10141000C3F10705042D00D90425191D072901D2A0
:10142000002300E0DB1E012606FA05F1491E2140DB
:1014300099409E40761E16403143F0BC02F0FABB44
:101440000CED00E0064900F0070208684FF6FF03C4
:10145000184040EA0220034A104308607047000029
:101460000CED00E00000FA052B492C4B0A683221F4
:101470004A432B4940B1B0F5007F086829D020F4D9
:10148000C06040F480602CE00868C0F3412002286E
:1014900004D051F8800F20F4807022E0D1F8800051
:1014A00020F48070C1F88000086820F4C06040F427
:1014B00000700860B2FBF3F0401C00E0401E4A6977
:1014C000520501D50028F9D1486940050AD5032005
:1014D0007047C0F34120022806D051F8800F40F435
:1014E0008070086000207047D1F8800040F4807060
:1014F000C1F88000086820F4C06040F40070086003
:10150000B2FBF3F0401C00E0401E4A695205DBD5F7
:101510000028F9D1D8E700000800002040420F0061
:10152000007000400248816841F48041816070474A
:10153000007000402DE9F8430446006800269D4DE8
:1015400000035ED5A86D0027C00008D4A86D40F048
:101550008050A865A86D012700F080500090DFF84A
:101560005892D9F8001041F48071C9F80010FFF7C3
:10157000E3FE804606E000BFFFF7DEFEA0EB0800BA
:1015800002282BD8D9F80000C005F5D5D5F8900071
:1015900010F4407014D0216C814211D0D5F8900025
:1015A000D5F8901020F4407041F48031C5F89010C7
:1015B000D5F8901021F48031C5F89010C5F890004E
:1015C000C00711D0FFF7B8FE804641F2883907E026
:1015D000FFF7B2FEA0EB0801494501D903260BE055
:1015E000D5F890008007F3D5D5F89000216C20F451
:1015F00040700843C5F890001FB1A86D20F08050DE
:10160000A8652078C00707D0D5F88800616820F069
:1016100003000843C5F888002078800707D5D5F86F
:101620008800A16820F00C000843C5F888002078E5
:10163000400707D5D5F88800E16820F0300008435E
:10164000C5F888002078000707D5D5F888002169FB
:1016500020F0C0000843C5F888002078800607D530
:10166000D5F88800616920F440600843C5F8880017
:101670002078400607D5D5F88800A16920F44050AD
:101680000843C5F888002078000607D5D5F88800FB
:10169000E16920F440400843C5F888002088C0056F
:1016A00007D5D5F88800216A20F440300843C5F8F2
:1016B00088002088800507D5D5F88800616A20F465
:1016C00040200843C5F88800208840050FD5D5F88C
:1016D0008800A16A20F440100843C5F88800A06A79
:1016E000B0F5801F03D1E86840F48010E8602088DE
:1016F00000050FD5D5F88800E16A20F440000843C2
:10170000C5F88800E06AB0F5800F03D1E86840F4BE
:101710008010E8602088C0040FD5D5F88800216BC0
:1017200020F040700843C5F88800206BB0F1807F3E
:1017300003D1E86840F48010E86020884FF0006131
:1017400080040ED5D5F88800626B20F0406010430D
:10175000C5F88800606B884203D1E86840F48010C7
:10176000E860208840040ED5D5F88800A26B20F0F0
:1017700040601043C5F88800A06B884203D1E86838
:1017800040F48010E860208800040FD5D5F8880068
:10179000E16B20F040500843C5F88800E06BB0F1E1
:1017A000805F03D1E86840F48030E8603046BDE8EF
:1017B000F883000000100240007000402DE9F0475F
:1017C0000E4605004FF0000725D0DFF8AC81D8F8B1
:1017D000000000F00F00B0420CD2D8F8001021F049
:1017E0000F013143C8F80010D8F8000000F00F00D6
:1017F000B04210D12968614CC80741F2883A5AD0EA
:101800006868DFF87C91032808D0022820682DD072
:10181000400500282CDB0120BDE8F087206880010E
:10182000F9D5E06800F00302E068C0F30310401C43
:10183000032A19D0534A00BFB2FBF0F0E268C2F3AA
:1018400006225043E268C2F34162521C5200B0FBD0
:10185000F2F0484517D9A06810F0F00F0CD08807B7
:1018600011D5A86840B10EE0474AE5E78003D0E70C
:1018700000F092F8484506D9A06820F0F00040F04A
:101880008000A0608027A068696820F003000843FA
:10189000A060FFF751FD814606E000BFFFF74CFD59
:1018A000A0EB090151453AD8A068696800F00C0026
:1018B000B0EB810FF2D12868810714D5400703D51A
:1018C000A06840F4E060A0602878000705D5A06813
:1018D00020F4605040F4E060A060A068A96820F0A7
:1018E000F000084304E0802F03D1A06820F0F0004E
:1018F000A060D8F80010404601F00F01B14216D99F
:10190000016821F00F0131430160FFF715FD074623
:1019100007E000BFFFF710FDC11B514501D90320AF
:101920007AE7D8F8000000F00F00B042F2D1287832
:10193000400705D5A068E96820F4E0600843A0608E
:101940002878000706D5A068296920F4605040EA8D
:10195000C100A06000F020F8A1680C4AC1F3031197
:10196000515C01F01F01C84009490860094800683E
:10197000BDE8F047FFF7FEBC002002400010024027
:1019800000B4C4040024F40000366E01B05A00080C
:10199000080000200C000020184910B58868C0F32A
:1019A00081021748012A0BD08A68164BC2F38102C4
:1019B000022A06D08A68C2F38102032A03D00020DB
:1019C00010BD184610BDCA6802F00304CA68C2F30D
:1019D0000312521C032C02D0B0FBF2F001E0B3FB67
:1019E000F2F0CA68C968C2F306225043C1F34161EC
:1019F000491C4900B0FBF1F010BD0000001002408E
:101A00000024F40000366E012DE9F84304007AD07A
:101A10002078FA4DC00747D0A868E96800F00C00AC
:101A200001F003010C2802D0082817D001E0032997
:101A300014D06068B0F5803F17D0B0F5A02F2868AB
:101A400017D020F480302860286820F48020286097
:101A50006068E0B1FFF770FC064614E02868800378
:101A600022D560680028D2D01EE0286840F480307B
:101A7000EDE740F480202860F7E700BFFFF75CFC4B
:101A8000801B642870D828688003F7D50CE0FFF726
:101A900053FC064605E000BFFFF74EFC801B6428A0
:101AA000F0D828688003F7D4207880074CD5A86840
:101AB000E96800F00C0001F003010C2802D00428B2
:101AC0000DD001E002290AD0E068002828682BD058
:101AD00040F480702860FFF72FFC064619E0286864
:101AE000400502D5E068002891D06868217C20F08C
:101AF000FE4040EA01606860C1480068FFF73AFCB8
:101B0000002800D120E076E1FFF716FC801B0228B8
:101B1000B8D828684005F7D56868217C20F0FE40D9
:101B200040EA016068600FE020F480702860FFF7F1
:101B300003FC064605E000BFFFF7FEFB801B022802
:101B4000A0D828684005F7D42078000729D5606917
:101B50000028D5F8940013D040F00100C5F8940097
:101B6000FFF7EAFB064606E090E000BFFFF7E4FB64
:101B7000801B022886D8D5F894008007F6D510E09F
:101B800020F00100C5F89400FFF7D6FB064604E0FC
:101B9000FFF7D2FB801B022878D8D5F89400800785
:101BA000F6D42078400761D5A86D0026C00008D47F
:101BB000A86D40F08050A865A86D012600F0805007
:101BC000009090480168C90511D40168804641F42D
:101BD00080710160FFF7B0FB074604E0FFF7ACFB44
:101BE000C01B022852D8D8F80000C005F6D5A0685E
:101BF000012815D00528D5F8900016D020F0010056
:101C0000C5F89000D5F8900020F00400C5F89000C9
:101C1000A06841F28838B8B1FFF78EFB07460EE0A6
:101C2000D5F8900040F00100F0E740F00400C5F85E
:101C30009000F5E7FFF780FBC11B414526D8D5F89A
:101C400090008007F6D50CE0FFF776FB074604E02E
:101C5000FFF772FBC11B414518D8D5F890008007EB
:101C6000F6D41EB1A86D20F08050A86520788006BB
:101C700029D5A0690028D5F8980013D040F00100BC
:101C8000C5F89800FFF758FB064606E077E000BF6E
:101C9000FFF752FB801B022877D8D5F89800800701
:101CA000F6D510E020F00100C5F89800FFF744FBDE
:101CB000064604E0FFF740FB801B022865D8D5F8F4
:101CC00098008007F6D4E069F0B3A968C1F38101F8
:101CD000032961D00228286820F0807028600BD08A
:101CE000E86820F00300E860E86847490840E860D9
:101CF000FFF722FB04464BE0FFF71EFB064604E01D
:101D0000FFF71AFB801B02283FD828688001F7D410
:101D1000F4E908016FF00F0202EB01110843218A78
:101D20005204490802EB4151A26841EA02210843EA
:101D3000217D4FF07E42490802EB41610843217B3F
:101D400040EAC160E96800E062E0304A11400843BF
:101D5000E860286840F080702860E86840F0807093
:101D6000E860FFF7E9FA044605E000BFFFF7E4FA90
:101D7000001B022809D828688001F7D548E004E054
:101D8000FFF7DAFA001B022802D90320BDE8F88326
:101D900028688001F4D43BE00128F7D0E868226A83
:101DA00000F00301914226D1616A00F0F0020901BE
:101DB000103991421FD1A26A00F4FE41B1EB022F0B
:101DC00019D194F82C2000F07841B1EBC26F12D1F8
:101DD000218E00F4C00249084905A1F50011914285
:101DE00009D194F8341000F0C06049084906A1F107
:101DF000007181420CD00120C8E7000000100240B1
:101E00000C00002000700040FFFFEEFE0C809F01E0
:101E10000020BBE710B5401EB0F1807F01D3012048
:101E200010BD4FF0E02460610F21601701F002FF48
:101E30000020A06107202061002010BD704770477E
:101E400070470000F0B590F83C20012A4AD00122EA
:101E500080F83C20CA688B6822F440721A434B68B1
:101E600022F480621A430B6822F400621A430B6961
:101E700022F480521A434B6922F400521A430B6B2E
:101E800022F480421A430B8B22F4702242EA03426E
:101E9000154C03680026154DA34201D0AB4203D177
:101EA000CF6922F080523A43A34201D0AB4214D111
:101EB0000F8D22F4700242EA07520F6A22F08072FC
:101EC0003A434F6A22F000723A43A34201D0AB4238
:101ED00003D1C96A22F000520A435A6480F83C6078
:101EE0000020F0BD0220F0BD002C01400034014074
:101EF0007047704770470000F0B590F83C20012A09
:101F00003AD0012580F83C50022280F83D20036839
:101F10005A689C68194E1A4FB34201D0BB4204D193
:101F200022F4700C4A6842EA0C02DFF858C002EA58
:101F30000C02D1F800C04CEA020CC3F804C00268DD
:101F4000B2420DD0B2F1804F0AD00F4B9A4207D067
:101F50000E4B9A4204D0BA4202D00D4B9A4204D1A1
:101F6000896824F080031943916080F83D50002176
:101F700080F83C100846F0BD0220F0BD002C014066
:101F8000003401408FFFFFFD0004004000080040C6
:101F900000400140704710B5040003D094F83D00A4
:101FA00010B107E0012010BD002084F83C0020465D
:101FB00000F022F8022084F83D00211D206801F085
:101FC0009FFB012084F8480084F83E0084F83F001D
:101FD00084F8400084F8410084F8420084F843000B
:101FE00084F8440084F8450084F8460084F84700EB
:101FF00084F83D00002010BD10B586B004461421C1
:102000006846FEF70CF921682548B1F1804F15D0DC
:10201000244A914237D1816D41F002018165806D82
:10202000002200F00200059011461D20FFF7EAF99A
:102030005FF01D00FFF7D8F906B010BD816D41F0CB
:1020400001018165816D01F001010591C16C41F0D3
:102050000101C164C06C694600F0010005902220B6
:102060000090022001900020029003900120049033
:102070004FF09040FFF732F8002211461C20FFF786
:10208000C1F91C20D6E7084A9142D5D1016E41F42E
:1020900080210166006E00F480200590CCE70000EE
:1020A00000100240000400400048014090F83D103C
:1020B000012901D001207047022180F83D100168FC
:1020C000CA6842F00102CA600068104988420ED016
:1020D000B0F1804F0BD00E49884208D00D4988429C
:1020E00005D00D49884202D00C49884207D1816849
:1020F0000B4A1140062906D0B1F5803F03D0016894
:1021000041F001010160002070470000002C0140F7
:10211000000400400008004000340140004001403D
:102120000700010070B5044690F83C000025012826
:1021300014D0012684F83C60022084F83D00226817
:102140009068364B184020F47F40906008687028F3
:102150002ED010DC10F00F0F03D021E04FF0020062
:1021600070BD4FEA2012072A1AD2DFE802F052525D
:1021700052524A3840002A4BC21A984249D009DCD0
:10218000B0F5805F0DD0B0F5005F1CD0B0F1101F2E
:1021900006D13EE0102A3CD0202A3AD0502A38D02E
:1021A000012584F83D60002084F83C00284670BD7D
:1021B000CB68D1E90121206801F007FB2068816824
:1021C00041F0770109E0CB68D1E90121206801F0F5
:1021D000FCFA2068816841F480418160E1E7CA68C7
:1021E0004968206801F09CFC5021206806E0CA681C
:1021F0004968206801F0DCFC6021206801F0F0FAF9
:10220000CFE7CA684968206801F08AFC402120684D
:10221000F4E7226801461046F0E7000088FFCEFF91
:102220002000100070472DE9F041054690F83C0071
:1022300000260C46012810D0012085F83C0072B120
:10224000042A1CD0082A2CD00C2A50D001260020A9
:1022500085F83C003046BDE8F0810220FBE7D4E978
:102260000012E368286801F06DFC2868816921F09C
:102270000C01816128688169A26811430FE0D4E9EB
:102280000012E368286801F0A5FC2868816921F440
:102290004061816128688169A26841EA0221816107
:1022A000D5E72868D4E9002C277B016A21F48071E6
:1022B0000162C169036A21F0030141EA0C0121F0C6
:1022C000F00C39074FF420674CEA116123F42063C6
:1022D00007EA02221A43C16102622868C16921F03B
:1022E0000C01C1612868C169A268114328E028680F
:1022F000D4E90027E168036A23F480530362D0F82D
:102300001CC0036A2CF4407C4CEA07274FF6FF7C84
:1023100027F470470CEA013139434FF4204723F486
:10232000204307EA02321A43C16102622868C16988
:1023300021F44061C1612868C169A26841EA0221B3
:10234000C16184E710B5040003D094F83D0010B1DA
:1023500007E0012010BD002084F83C00204600F07A
:1023600022F8022084F83D00211D206801F0C8F900
:10237000012084F8480084F83E0084F83F0084F887
:10238000400084F8410084F8420084F8430084F857
:10239000440084F8450084F8460084F8470084F837
:1023A0003D00002010BD704730B50446002571B1D6
:1023B000042911D0082914D00C2917D0102918D0BD
:1023C00094F8430094F84720012817D114E094F8BA
:1023D0003E0094F84420F7E794F83F0094F8452035
:1023E000F2E794F8400094F84620EDE794F84100B5
:1023F000E8E794F84200E5E7012A01D0012030BD6A
:10240000022079B1042916D008291DD00C2949D001
:1024100010294AD084F8430084F847000C2947D09B
:1024200001253DE084F83E0084F844002068C2683D
:1024300042F0020210E084F83F0084F84500206872
:10244000C26842F0040207E084F8400084F84600C5
:102450002068C26842F00802C2600122206801F0D0
:10246000A7F91649206888420ED0B0F1804F0BD0F2
:102470001349884208D01349884205D0124988423E
:1024800002D01249884207D18168114A11400629B9
:1024900006D0B1F5803F03D0016841F00101016031
:1024A000284630BD84F84100B6E784F84200B3E71F
:1024B0002068C26842F01002CEE70000002C014004
:1024C000000400400008004000340140004001408A
:1024D0000700010070B50446006801694FF000056F
:1024E000C943890715D4C168C943890711D4E91EB6
:1024F000016101202077206880698007204602D092
:10250000FFF790FE04E000F00BF9204600F0CDF953
:10251000257720680169C943490717D4C168C943B1
:10252000490713D46FF0040101610220207720686D
:10253000806910F4407F204602D0FFF773FE04E06C
:1025400000F0EEF8204600F0B0F925772068016928
:10255000C943090716D4C168C943090712D46FF0EB
:1025600008010161042020772068C06980072046A7
:1025700002D0FFF757FE04E000F0D2F8204600F04A
:1025800094F9257720680169C943C90617D4C16841
:10259000C943C90613D46FF01001016108202077E8
:1025A0002068C06910F4407F204602D0FFF73AFE51
:1025B00004E000F0B5F8204600F077F925772068B0
:1025C0000169C943C90708D1C168C943C90704D112
:1025D000891E0161204600F0E7F920680169C943BE
:1025E000090609D4C168C943090605D46FF0800102
:1025F00001612046FFF723FC20680169C943C90532
:1026000009D4C168C943090605D46FF4807101611A
:102610002046FFF713FC20680169C943490609D425
:10262000C168C943490605D46FF0400101612046E5
:1026300000F033FA20680169C943890609D4C168EA
:10264000C943890605D46FF0200101612046FFF7D8
:10265000F7FB20680169C943C90209D4C168C943AD
:10266000C90205D46FF4801101612046FFF741FCD7
:1026700020680169C943890209D4C168C943890234
:1026800005D46FF4001101612046FFF731FC20688A
:102690000169C943490209D4C168C943490205D443
:1026A0006FF4800101612046FFF724FC2068016976
:1026B000C94309020BD4C168C943090207D46FF4A6
:1026C000000101612046BDE87040FFF763BC70BDAA
:1026D00010B586B0044614216846FDF7A0FD0E49EA
:1026E0002068884216D10D48C16C41F00101C164D7
:1026F000C06C694600F00100059080200090022027
:102700000190002002900390012004904FF090402F
:10271000FEF7E4FC06B010BD004801400010024086
:10272000704770B5044690F83C0000260D4601281D
:102730000BD0012084F83C000C2A4AD007DC82B17F
:10274000042A20D0082A06D131E0022070BD102AC8
:1027500053D0142A63D00126002084F83C00304670
:1027600070BD206801F046F82068816941F00801D9
:1027700081612068816921F004018161206881699B
:102780002A69114311E0206801F082F8206881690C
:1027900041F4006181612068816921F48061816177
:1027A000206881692A6941EA02218161D4E72068B1
:1027B00001F0B6F82068C16941F00801C1612068E4
:1027C000C16921F00401C1612068C1692A6911430E
:1027D00011E0206801F0ECF82068C16941F4006163
:1027E000C1612068C16921F48061C1612068C1694B
:1027F0002A6941EA0221C161AEE7206801F020F9AF
:102800002068016D41F0080101652068016D21F02B
:10281000040101652068016D2A69114311E02068F7
:1028200001F046F92068016D41F4006101652068FE
:10283000016D21F4806101652068016D2A6941EA1A
:102840000221016588E710B5040003D094F83D002B
:1028500010B107E0012010BD002084F83C002046A4
:1028600000F022F8022084F83D00211D206800F0CD
:1028700047FF012084F8480084F83E0084F83F00B8
:1028800084F8400084F8410084F8420084F8430052
:1028900084F8440084F8450084F8460084F8470032
:1028A00084F83D00002010BD7047704730B50446E5
:1028B000022269B1042912D0082917D00C291CD092
:1028C000102921D094F84300012824D0012030BDE4
:1028D00094F83E000128F9D184F83E201DE094F8D8
:1028E0003F000128F2D184F83F2016E094F8400020
:1028F0000128EBD184F840200FE094F84100012832
:10290000E4D184F8412008E094F842000128DDD1A8
:1029100084F8422001E084F843200122206800F07E
:1029200047FF194B20681949194A984209D0884233
:1029300007D0904205D0174DA84202D0164DA842AC
:1029400003D1456C45F400454564206898420CD09D
:10295000B0F1804F09D0114B984206D0104B9842ED
:1029600003D0884201D0904207D181680D4A1140BE
:10297000062906D0B1F5803F03D0016841F001017E
:102980000160002030BD0000002C014000340140F7
:102990000040014000440140004801400004004064
:1029A00000080040070001002DE9F04105460168DC
:1029B0002B48002681423CD12A4F01213846FEF7A0
:1029C000B1FC00B10120284C022120703846FEF7EE
:1029D000A9FC00B10120E07004213846FEF7A2FCFA
:1029E00000B10120A07101214FF09040FEF79AFC48
:1029F00000B10120002160725FF0010301EB410290
:102A00001019477827B1012F06D0022F0ED109E007
:102A1000A25C5AB9437009E0A25C32B98370022209
:102A2000427003E0A25C012A00D14670491C0429CF
:102A3000E4DB2868B0F1804F0FD1287F04280CD147
:102A40000421284600F014F80749083948602A682C
:102A50005662064AB2FBF0F00880BDE8F081000043
:102A600000040040000400482000002040420F0005
:102A70000246002041B1042909D008290AD00C29B6
:102A800001D11068006C70471068406B7047106887
:102A9000806B70471068C06B70477047FEE700009E
:102AA00000B585B014216846FDF7B9FB4FF6FF70FD
:102AB000009000200321CDE90201019069460248FF
:102AC000FEF70CFB05B000BD0008004800B585B05E
:102AD00014216846FDF7A3FB4FF6FF70009001201C
:102AE0000190032003900020029069460248FEF7FF
:102AF000F5FA05B000BD00000008004870B50024DC
:102B000006462146204600F003F900F041F94FF453
:102B10009635304600F010F9641CAC42F9D370BD14
:102B200030B587B014216846FDF779FB1E48C16CAB
:102B300041F00401C164C16C01F004010591C16C54
:102B400041F00101C164C16C01F001010591C16C4A
:102B500041F00201C164C06C012500F00200059043
:102B60004FF44870CDE900050024039469460294AF
:102B70000E48FEF7B3FA280203940090CDE9015401
:102B80004FF0904469462046FEF7A8FAFFF79EFFF3
:102B9000A06940F48070A06104481830016841F4D5
:102BA0000871016007B030BD001002400004004809
:102BB000203AD2B2034B02EB420203EB021200F0C6
:102BC00019B80000E0480008F0B50E460746002599
:102BD00040F23F1407E021463846FFF7E9FF103C7A
:102BE0006D1CA4B2761C3278002A01D0142DF2D3C9
:102BF000F0BD00002DE9F04791468A4600260446C4
:102C000000F086F8DFF84080012700BF00F0C0F830
:102C10005FF0000539F8160007FA05F10842404652
:102C200001D1408800E0008800F086F86D1C102D6E
:102C3000F0D3641CE4B25146204600F069F8761CDB
:102C4000182EE3D3BDE8F0870000002010B5FFF791
:102C500067FF002000F014F8084CA080A088A0F5C1
:102C60000241303906D000F0FFFB002000F008F8E8
:102C7000A08010BD00F06FFBF7E70000000000200F
:102C800070B51D490A6842F400720A600A6842F48D
:102C900080720A60184C103C226842F020022260C8
:102CA000164A1060086840F02000086000BF00BFAE
:102CB00000BF206840F020002060206840F4807051
:102CC0002060FFF7EDFE4FF09041886A40F480707D
:102CD000886200BF00BF00BF0848001F006885B2BF
:102CE000886940F480708861FFF7F0FE206840F446
:102CF00000702060284670BD280400481408004871
:102D000001B5BDF800000149488008BD0000002061
:102D100010B50C460146202000F068F82146BDE8B9
:102D20001040212000F062B801B5BDF80000014953
:102D3000088008BD00000020134A116841F40071AA
:102D40001160114910390B6843F480730B600B68F4
:102D500043F020030B600D4B1860106840F020001A
:102D6000106000BF00BF00BF086840F0200008608E
:102D7000086840F48070086000BF00BF00BF0868AA
:102D800040F40070086070472804004814080048A8
:102D90001449086840F400700860086840F48070C6
:102DA000086010481038026842F0200202600E4BA2
:102DB00022221A600A6842F020020A6000BF00BFA7
:102DC00000BF016841F020010160016841F4807199
:102DD000016000BF00BF00BF016841F400710160E5
:102DE000704700002804004814080048184B10B52C
:102DF0001A6842F400721A601A6842F480721A600B
:102E0000134A103A146844F020041460114C2060F6
:102E1000186840F02000186000BF00BF00BF1068B5
:102E200040F020001060106840F480701060216055
:102E3000186840F02000186000BF00BF00BF106895
:102E400040F020001060106840F48070106010BDE9
:102E5000280400481408004810B50122110208484F
:102E6000FEF765FA074C012204212046FEF75FFABF
:102E700020460022BDE810400421FEF758BA0000A9
:102E800000080048000C004810B500224FF4807183
:102E90000748FEF74CFA074C012204212046FEF7B2
:102EA00046FA20460022BDE810400421FEF73FBA52
:102EB00000080048000C004810B5012251020848E3
:102EC000FEF735FA074C012204212046FEF72FFABF
:102ED00020460022BDE810400421FEF728BA000079
:102EE00000080048000C004810B500224FF40071A3
:102EF0000748FEF71CFA074C012204212046FEF782
:102F000016FA20460022BDE810400421FEF70FBA51
:102F100000080048000C004810B501229102084842
:102F2000FEF705FA074C012204212046FEF7FFF9BF
:102F300020460022BDE810400421FEF7F8B9000049
:102F400000080048000C004810B500224FF48061D2
:102F50000748FEF7ECF9074C012204212046FEF752
:102F6000E6F920460022BDE810400421FEF7DFB953
:102F700000080048000C004810B50122D1020848A2
:102F8000FEF7D5F9074C012204212046FEF7CFF9C0
:102F900020460022BDE810400421FEF7C8B9000019
:102FA00000080048000C004810B500224FF40061F2
:102FB0000748FEF7BCF9074C012204212046FEF722
:102FC000B6F920460022BDE810400421FEF7AFB953
:102FD00000080048000C004800EB8100006E00F083
:102FE000F84070478068C0F3C00070478068C0F345
:102FF00080007047042303EAD15310B51844436995
:10300000C1F3045107248C40A3438A401343436116
:1030100010BD00EB8100016E21F0004111430166FB
:103020007047000030B589B020216846FDF7F7F8F9
:1030300019481849002401604902C0E90114C4601C
:1030400004250461C0E90545047744770121016244
:1030500080F82440C462046380F83840C46380F878
:103060004040FDF775FE08B1FDF760FC0B4800908D
:103070000620CDE901047F200594CDE903056946CA
:103080000548FDF755FC002801D0FDF74FFC09B0BD
:1030900030BD0000000100502C0000200080F03EF8
:1030A0002DE9F04F87B014216846FDF7B8F83F4886
:1030B000C16C41F00401C164C16C01F004010591CF
:1030C000C16C41F02001C164C16C01F02001059187
:1030D000C16C41F00101C164C16C01F001010591B5
:1030E000C16C41F00201C164C16C01F002010591A3
:1030F000C16C41F00801C164C06CDFF8B48000F01D
:1031000008004FF6FF740590002221464046FEF766
:103110000EF94FF480764FF0904900223146484630
:10312000FEF705F9DFF88CA0002204215046FEF7D7
:10313000FEF8DFF884B04FF448770022394658464D
:10314000FEF7F5F80125CDE9004500240294694613
:1031500040460394FDF7C2FFCDE900546946484656
:103160000295FDF7BBFF07208DE831006946584600
:10317000FDF7B4FF0096CDE9015469464846039433
:10318000FDF7ACFF04200090CDE90154694650469C
:103190000394FDF7A3FF0097CDE901546946584613
:1031A0000394FDF79BFF07B0BDE8F08F00100240CD
:1031B00000080048000C00480004004810B594B016
:1031C0001C210DA8FDF72BF834216846FDF727F8E0
:1031D0001F481E490024016041F63F71C0E90114F7
:1031E0006321C0E9031444618461FEF7D4FE08B191
:1031F000FDF79CFB1648FFF726FB08B1FDF796FB91
:103200006020CDE90D040F941094119412940022C3
:103210000DA90F481394FFF784FA08B1FDF786FB58
:1032200000944FF40050CDE90440019402940394BB
:103230000694694606480C94FEF704FE08B1FDF7B3
:1032400075FB0348FFF744FA14B010BD0048014075
:103250003001002010B58CB000240594214804945E
:103260000694079408940A94099400940194029493
:103270004FF08041039401604F21C0E90114611EA9
:10328000C0E903148461FEF786FE08B1FDF74EFB2A
:103290004FF48050049004A91248FEF743FF08B190
:1032A000FDF744FB0F48FFF74DF808B1FDF73EFB73
:1032B000089408A90B480A94FEF71EFE08B1FDF712
:1032C00035FB0120CDE90040029400226946054803
:1032D0000394FEF7A8FF002801D0FDF727FB0CB0F0
:1032E00010BD00009800002010B588B000241748D9
:1032F0000094019402940394049405941249069452
:1033000001604F21C0E9011442F20F71C0E90314BA
:103310008461FEF740FE08B1FDF708FB4FF48050D2
:10332000009069460948FEF7FDFE08B1FDF7FEFA78
:10333000049404A905480694FEF7DEFD002801D098
:10334000FDF7F4FA08B010BD00040040E4000020CE
:10335000FEE77047704730B501210020FFF746FDBA
:103360004FF47A70FDF7D4FA00210120FFF73EFDFB
:1033700041F290711020FFF739FD4FF41C5160208D
:10338000FFF734FD01216120FFF730FD02214620C7
:10339000FFF72CFD48F210011320FFF727FD48F23C
:1033A000FE011220FFF722FD4FF4A0610220FFF77B
:1033B0001DFD41F230010320FFF718FD40F20334F8
:1033C00021463020FFF712FD21463120FFF70EFD88
:1033D00021463220FFF70AFDE51E29463320FFF77C
:1033E00005FD03213420FFF701FD21463520FFF7BD
:1033F000FDFC14213620FFF7F9FC21463720FFF7AA
:10340000F5FC21463820FFF7F1FC21463920FFF773
:10341000EDFC29463A20FFF7E9FC03213B20FFF7AA
:10342000E5FC21463C20FFF7E1FC4FF4A0513D2094
:10343000FFF7DCFC4FF400719220FFF7D7FC214628
:103440009320FFF7D3FC40F60D019020FFF7CEFC50
:1034500041F218010320FFF7C9FCBDE8304040F2FB
:1034600073110720FFF7C2BC10B543F20801E32037
:10347000FFF7BCFC1221E720FFF7B8FC41F2312135
:10348000EF20FFF7B3FC00210120FFF7AFFC4FF462
:10349000E0610220FFF7AAFC41F230010320FFF7B0
:1034A000A5FC00210420FFF7A1FC40F20721082021
:1034B000FFF79CFC00210920FFF798FC00210A205F
:1034C000FFF794FC00210C20FFF790FC00210D2059
:1034D000FFF78CFC00210F20FFF788FC0021102053
:1034E000FFF784FC07211120FFF780FC0021122048
:1034F000FFF77CFC00211320FFF778FCC820FDF7C4
:10350000DBFD41F290611020FFF770FC40F22721B3
:103510001120FFF76BFC3220FDF7CEFD1D2112209C
:10352000FFF764FC3220FDF7C7FD4FF40061132064
:10353000FFF75CFC14212920FFF758FC0B212B20FE
:10354000FFF754FC3220FDF7B7FD00212020FFF7E4
:103550004DFC00212120FFF749FC07213020FFF717
:1035600045FC40F207713120FFF740FC0621322074
:10357000FFF73CFC40F204713520FFF737FC41F6C1
:1035800004713620FFF732FC04213720FFF72EFCB0
:1035900000213820FFF72AFC40F206713920FFF79E
:1035A00025FC40F201713C20FFF720FC0F213D205B
:1035B000FFF71CFC00215020FFF718FCEF215120E1
:1035C000FFF714FC00215220FFF710FC40F23F11DE
:1035D0005320FFF70BFC4FF41C516020FFF706FC53
:1035E00001216120FFF702FC00216A20FFF7FEFBAA
:1035F00000218020FFF7FAFB00218120FFF7F6FB76
:1036000000218220FFF7F2FB00218320FFF7EEFB71
:1036100000218420FFF7EAFB00218520FFF7E6FB6D
:1036200010219020FFF7E2FB00219220FFF7DEFB44
:1036300003219320FFF7DAFB4FF488719520FFF701
:10364000D5FB00219720FFF7D1FB00219820FFF741
:10365000CDFB41F218010320FFF7C8FBBDE8104085
:1036600040F273110720FFF7C1BB7047FDF76ABE38
:1036700000B593B038216846FCF7D1FD14210EA89F
:10368000FCF7CDFD4FF40070FDF7EEFE0220C10106
:103690000391402104910090079008901421CDE9F6
:1036A00009010B900C900D906846FEF7ADF90F20C4
:1036B0000E9003200F900020109011901290022184
:1036C0000EA8FEF77BF813B000BD000005480168A6
:1036D00041F47001016003494FF0006080390860D7
:1036E0007047000088ED00E00148FEF7F3BE0000DF
:1036F000980000200148FEF7EDBE0000E400002025
:103700002DE9F0430268234B234D244E244C4FF007
:103710008049984207D0484505D0A84203D0B0421E
:1037200001D0A04203D122F070074A683A431D4FEE
:10373000DFF874C0DFF8748098420DD048450BD094
:10374000A84209D0B04207D0A04205D0B84203D069
:10375000604501D0404503D122F44075CA682A4330
:103760004D6922F080022A4302608A68C2620A68B8
:103770008262984207D0A04205D0B84203D060458B
:1037800001D0404501D10969016301214161BDE8D2
:10379000F0830000002C01400004004000080040BD
:1037A0000034014000400140004401400048014015
:1037B00010B501F01F030121046A99408C43046293
:1037C000016A9A401143016210BD10B5846842EA53
:1037D000032224F47F440A432243826010BD000088
:1037E0008268034B1A400A4342F007018160704728
:1037F0008FFFCFFF2DE9F043026A22F0010202623F
:10380000056A436882691C4C25F0020522400C6859
:1038100022F0030214438A68194E2A43174D194FA8
:10382000DFF864C0DFF86490A84207D0B04205D04A
:10383000B84203D0604501D0484506D122F00808BF
:10384000CA6842EA080222F00402A84207D0B04245
:1038500005D0B84203D0604501D0484505D14D6937
:1038600023F440731D438B692B4343608461496893
:1038700041630262BDE8F0838FFFFEFF002C014030
:103880000034014000400140004401400048014034
:10389000F0B5026A22F010020262056A426883698A
:1038A000194C1B4E23400C6823F4407343EA042454
:1038B00025F020038D6843EA0513144DA84201D07A
:1038C000B04206D1CF6823F0800343EA071323F008
:1038D0004003A8420AD0B04208D00E4DA84205D0FD
:1038E0000D4DA84202D00D4DA84207D14D6922F4DA
:1038F000406242EA85028D6942EA85024260846143
:10390000496881630362F0BDFF8FFFFE002C014018
:1039100000340140004001400044014000480140A3
:10392000F0B5026A22F480720262056A4368C269D5
:10393000194C1B4E22400C6822F00302144325F45C
:1039400000728D6842EA0522144DA84201D0B042AF
:1039500006D1CF6822F4006242EA072222F4806294
:10396000A8420AD0B04208D00E4DA84205D00E4D54
:10397000A84202D00D4DA84207D14D6923F440530F
:1039800043EA05138D6943EA05134360C46149683E
:10399000C1630262F0BD00008FFFFEFF002C0140FA
:1039A0000034014000400140004401400048014013
:1039B000F0B5026A22F480520262056A4268C36965
:1039C000194C1B4E23400C6823F4407343EA042433
:1039D00025F400538D6843EA0533144DA84201D005
:1039E000B04206D1CF6823F4004343EA073323F4FF
:1039F0008043A8420AD0B04208D00E4DA84205D05C
:103A00000D4DA84202D00D4DA84207D14D6922F4B8
:103A1000404242EA85128D6942EA85124260C461E1
:103A2000496801640362F0BDFF8FFFFE002C014076
:103A30000034014000400140004401400048014082
:103A400030B5026A22F480320262046A4268036D71
:103A5000114D2B400D681D4324F400330C8943EABB
:103A600004430E4CA0420BD00D4CA04208D00D4C8C
:103A7000A04205D00C4CA04202D00C4CA04204D174
:103A80004C6922F4803242EA0422426005654968AA
:103A90008164036230BD00008FFFFEFF002C0140F7
:103AA0000034014000400140004401400048014012
:103AB00030B5026A22F480120262046A4268036D21
:103AC000114D24F400142B400D6843EA05230D89A1
:103AD00044EA05540D4DA8420BD00D4DA84208D024
:103AE0000C4DA84205D00C4DA84202D00B4DA84267
:103AF00004D14D6922F4802242EA852242600365A6
:103B00004968C164046230BDFF8FFFFE002C014094
:103B100000340140004001400044014000480140A1
:103B200010B5036A046A24F001040462846924F075
:103B3000F00444EA021423F00A020A438461026298
:103B400010BD000070B5046A24F0010404628469A9
:103B5000056A124EB0420ED0B0F1804F0BD0104E1D
:103B6000B04208D00F4EB04205D00F4EB04202D046
:103B70000E4EB04203D124F00304144301E044F09C
:103B800001041A0724F0F00444EA126225F00A0343
:103B900001F00A0119438261016270BD002C0140ED
:103BA0000004004000080040003401400040014093
:103BB00010B5036A23F0100303628369046A23F4D7
:103BC000704343EA023224F0A00343EA0111826108
:103BD000016210BD30B5046A24F0100404628469E7
:103BE000056A24F4407444EA022222F470444FF639
:103BF000FF7202EA03322243A02425F0A00304EA64
:103C0000011119438261016230BDFEE70FB4084B18
:103C100010B504A902AA039800F0EEF8044602A920
:103C2000002000F080FC204610BC5DF814FB000072
:103C3000274500080907090E002804DB00F1E020F1
:103C400080F80014704700F00F0000F1E02080F8C9
:103C5000141D704702E008C8121F08C1002AFAD1DB
:103C600070477047002001E001C1121F002AFBD1FC
:103C7000704700002DE9FF5F82B00021DDE90430CC
:103C8000020DDDF840B0034318D044F61050A2F204
:103C9000FF3242431514119801281FD0A5EB0B00E9
:103CA000401C5FEA000A4FF000064E4FDFF83891E3
:103CB000B046504615D5CAF1000413E0119801240E
:103CC0004AA3012801D16FEA0B010298119AC0E9B9
:103CD0000031C0E9024206B0BDE8F09FCBF1000020
:103CE000DFE704460021404A491842EB0450CDE981
:103CF000001012E0E00707D032463B4640464946F6
:103D0000FCF798FA8046894632463B4610461946EB
:103D1000FCF790FA06460F466410002CEAD1DDE964
:103D20000401DDE90023BAF1000F06DAFCF782FA9C
:103D300042464B46FCF77EFA05E0FCF7EDFA4246B8
:103D40004B46FCF7E9FA04460E460022284BFCF7E6
:103D500057FD03D84FF0FF30014607E00022254B06
:103D600020463146FCF78DFCFCF732FD102409E0BB
:103D7000002C0ADB0A220023FCF7AEFB039B303247
:103D80001A55641E50EA0102F2D1641C039AC4F170
:103D900011031444119A012A03D0012208430DD1C2
:103DA0000AE0084304D000204FF0110B119072E795
:103DB000A3EB0B056D1E0DE05B4504DD4FF000022B
:103DC00005F1010504E003DA4FF00002A5F1010559
:103DD000002AECD002981199C0E90231C0E90045EF
:103DE00079E70000000014400000F03F30000000C0
:103DF0000000F0430000E03F2DE9FF4F95B09B46E7
:103E00008946064600250FE2252877D1002427465B
:103E1000F84A0121059400E0044316F8013F203BD5
:103E200001FA03F01042F7D130782A2811D06FF050
:103E30002F033078A0F13002092A16D8059A44F0F1
:103E4000020402EB820203EB42021044761C05904E
:103E5000EFE759F8042B0592002A03DA504244F4A4
:103E60000054059044F00204761C30782E2816D1B8
:103E700016F8010F44F004042A280DD06FF02F0229
:103E80003078A0F13003092B09D807EB870302EB48
:103E90004303C718761CF3E759F8047B761C307887
:103EA0006C280FD006DC4C2817D068280DD06A2863
:103EB00014D104E0742810D07A280FD10DE044F416
:103EC00000140AE044F4801401E044F440147278D1
:103ED000824202D104F58014761C761C3078662864
:103EE0000BD013DC582877D009DC002875D0452882
:103EF000F6D04628F4D047281AD19DE118E063286F
:103F000035D0642879D0652812D195E1702873D016
:103F100008DC6728F1D069286FD06E280DD06F2893
:103F200006D1B5E073282CD0752875D0782874D0C8
:103F30005A46179990476D1C75E1C4F30250022848
:103F400009D003280DD0D9F8001004280DD00D6039
:103F500009F1040967E1D9F80010EA17C1E9005234
:103F6000F6E7D9F800100D80F2E70D70F0E719F8C8
:103F7000041B8DF8001000208DF80100EA46012096
:103F800003E059F804AB4FF0FF3061074FF0000138
:103F900002D40DE008F101018846B9420FDA8045EC
:103FA000F8DB1AF808100029F4D108E008F1010143
:103FB00088468142FADB1AF808100029F6D10598E4
:103FC0005B46A0EB080721463846179A00F094FAA2
:103FD000284400EB080507E04DE029E10DE01AF860
:103FE000010B5A4617999047B8F10108F7D25B4682
:103FF00021463846179A13E142E00A220092C4F3A0
:1040000002524FF0000A022A08D059F804CB032AC2
:104010004FEAEC710AD00DE029E02AE009F107012E
:1040200021F00702F2E802C1914609E00FFA8CFC88
:104030004FEAEC71042A03D14FFA8CFC4FEAEC7181
:10404000002907DA0A460021DCF1000C61EB0201CD
:104050002D2202E0220504D52B228DF80420012216
:1040600003E0E20701D02022F7E7904659E00A2159
:1040700002E010220DE010214FF0000A00910BE049
:1040800010224FF0000A44F004040827009203E0D5
:1040900008224FF0000A0092C4F30252022A05D00F
:1040A00059F804CB0021032A08D009E009F10701DF
:1040B00021F00702F2E802C1914605E01FFA8CFCEC
:1040C000042A01D10CF0FF0C4FF00008220728D57C
:1040D000702806D0009B83F0100353EA0A0305D032
:1040E0000EE040228DF80420012208E05CEA010283
:1040F00006D030228DF804208DF80500022290466B
:10410000009B83F0080353EA0A030AD15CEA010228
:1041100001D1620705D530228DF804204FF0010847
:104120007F1E582804D034A003900EA802900DE002
:1041300036A0F9E753466046009AFCF7CDF984466D
:104140000398825C0298401E029002705CEA0100B3
:10415000F0D1029806A9081A00F1200A600702D5DA
:1041600024F4803400E00127574502DDA7EB0A0064
:1041700000E0002000EB0A01009005984144401A3D
:104180000590E00306D45B462146179A059800F097
:10419000B3F90544002706E001A85A46C05D179907
:1041A00090476D1C7F1C4745F6DBE0030CD55B4652
:1041B0002146179A059800F09FF9054404E0302045
:1041C0005A46179990476D1C0099481E0090002987
:1041D000F5DC08E0029802995A460078491C0291E1
:1041E000179990476D1CBAF10001AAF1010AF1DCA0
:1041F00065E10000092801003031323334353637AB
:104200003839616263646566000000003031323322
:1042100034353637383941424344454600000000C2
:1042200000F058F90544761C307800287FF4ECAD96
:1042300019B02846BDE8F08F620700D4062709F1BF
:10424000070222F0070CFCE80223E14603F00048D5
:104250005FEA080C02D00FF2702C0DE05FEA045CFC
:1042600002D50FF2682C07E05FEAC47C02D00FF29F
:10427000602C01E0AFF2700C4FF0FF3823F00043E8
:10428000CDF850C065280CD006DC452809D046285A
:104290001DD047283DD13DE0662818D067287ED143
:1042A00038E00021112F01DB112000E0781CCDE95E
:1042B000000106A90EA8FFF7DDFCDDE90F010E9A4B
:1042C00003910021009207F1010A04914DE04FF0A3
:1042D00000400097CDE9011006A90EA8FFF7CAFC1F
:1042E000DDE90F0203920E9B11990022DDF80CA06C
:1042F0000093049211B9791C00EB010AB7EB0A0094
:1043000004D4C0F1FF3007F1010A0490AAEB0700C2
:10431000019044E0012F00DA01270021112F01DD77
:10432000112000E03846CDE9000106A90EA8FFF7EC
:10433000A1FCDDE90F010E9A039100210491009286
:10434000BA4621070CD40399514500DA8A46BAF1DE
:10435000010F05DD009AAAF10101515C302908D056
:10436000B84202DA10F1040F06DA0121CDE901109A
:1043700015E0AAF10101E9E7002805DC04990144F0
:104380000491AAEB000102E0411C514500DD8A4680
:104390000499401A401C01904FF000400290200701
:1043A00004D40198504501DBCDF8048000208DF83D
:1043B0004F0002980DF14F07B0F1004F25D02B2090
:1043C0000E9002984FF0020800280CDA404202904A
:1043D0002D200E9007E00A210298FCF767F8303193
:1043E000029007F8011DB8F10001A8F10108F2DC04
:1043F00002980028EFD1791E0E980870307800F0EE
:10440000200040F0450007F8020D12A8C01B00F183
:1044100007081498007800B1012000EB0A01019808
:1044200001EBE07105984144401A401E0590E003FD
:1044300006D45B462146179A059800F05DF80544BE
:104440001498007818B15A46179990476D1CE003EC
:1044500024D55B462146179A059800F04DF805448F
:104460001CE00498002807DBDDE90301884203DD36
:104470000098405C179901E0179930205A46904700
:10448000049805F10105401C04900198401E01901C
:1044900004D12E205A46179990476D1CBAF100019D
:1044A000AAF1010ADDDC05E017F8010B5A4617995D
:1044B00090476D1CB8F10001A8F10108F4DC5B46DF
:1044C0002146179A0598ABE62D0000002B0000004E
:1044D000200000002DE9F041044600251E46174645
:1044E000880404D405E039462020B0476D1C641EC2
:1044F000F9D52846BDE8F0812DE9F04104460025B4
:104500001E469046C80301D5302700E020278804C6
:1045100004D505E041463846B0476D1C641EF9D508
:104520002846BDE8F0810A68531C0B601070704784
:1045300010B5244C86B02078002824D122A16846EA
:10454000FFF764FB69461820FEF73EFB234824A1D1
:1045500002886846FFF75AFB69464820FEF734FB9D
:10456000254800F075F810EE100AFBF770FF41ECDB
:10457000100B22A153EC102B6846FFF747FB69464E
:104580007820FEF721FB2078012819D121A1684667
:10459000FFF73CFB69461820FEF716FB607822A166
:1045A00042006846FFF732FB69464820FEF70CFBE5
:1045B00022A16846FFF72AFB69467820FEF704FB34
:1045C00006B010BD0600002020202020202020441E
:1045D00061746120202020202000000018000020AD
:1045E0002020204652513A2564487A20202020205D
:1045F00020202020200000002C000020202020521D
:1046000033373A252E3266562020202020202020C5
:1046100020200000202020202020205061726120D6
:104620002020202020000000202020202020523A9E
:104630002564202020202020202020002020202051
:1046400020202020202020202020202020000000CA
:1046500010B50446FCF7B6FC2046FCF775FBFBF7EB
:10466000CAFE9FED081B53EC112BFBF7E3FD9FEDFA
:10467000071B53EC112BFBF7DDFDFBF7FBFE00EEF8
:10468000100A10BD6666666666660A400000000095
:104690000000303F1849194800228B78012B04D1C3
:1046A000037833B1002303708A704B79012B02D059
:1046B0000DE00123F7E70378012B07D143785B1C5A
:1046C000DBB24370052B01D9052343704A710B7A85
:1046D000012B0BD10378012B07D143785B1E13F01C
:1046E000FF03437001D1012343700A72C87A012885
:1046F00000D1CA7270470000200000200600002090
:1047000010B501224FF47F410748FCF710FE074C1B
:10471000012204212046FCF70AFE20460022BDE8C3
:1047200010400421FCF703BE00080048000C0048BC
:1047300010B5FFF7E5FF18480078B0B1FEF7D4FBDD
:10474000FEF78AFB1548FFF783FF10EE100AB0F161
:104750007E5F07DB1148FFF77BFF10EE100A104960
:10476000884207DBFEF7F0FB06E0FEF78DFBFEF765
:10477000A3FBE7E7FEF7D0FB0A480088A0F57A70B4
:10478000B0F57A6F03D3BDE81040FEF70DBCBDE86D
:104790001040FEF7F1BB0000060000202C000020B6
:1047A0000000404018000020FCF7D4FDFEF760FF39
:1047B000FEF776FCFEF798FDFEF734FCFEF74AFDA7
:1047C000FEF7FCFCFEF742FA1B48FDF76FFC0421E4
:1047D0001A48FDF7E9FD00211948FEF767F8194866
:1047E000FFF736FF10EE100AFBF731FE9FED161BA8
:1047F00053EC112BFBF790FD9FED151B53EC112B88
:10480000FBF718FDFBF704FE0D490968486300201B
:10481000FEF774F90020FEF773FA4FF6FF70FEF70B
:1048200083FA00BFFFF784FEFFF734FF00F014F8AF
:10483000FFF77EFFF6E70000E4000020980000206C
:10484000300100202C0000206666666666660A401D
:10485000000000000000594070B51848FFF7F8FE4E
:1048600010EE100AFBF7F3FD9FED151B53EC112B17
:10487000FBF752FD9FED141B53EC112BFBF7DAFCF9
:10488000FBF7C6FD12490A6850630868026822F403
:10489000407202600F48114A03880F484078B3FB0A
:1048A000F0F4B2FBF4F50C68266835432560B3FBE1
:1048B000F0F0B2FBF0F0086170BD00002C000020A9
:1048C0006666666666660A400000000000005940A1
:1048D00030010020180000200600002000B4C404AD
:1048E00000000000000000000000000000000000C8
:1048F00000000000000000000000000000000000B8
:1049000000000000000000000000000000000000A7
:104910000000800180018001800180018001800110
:104920008001800180018001800180010000000081
:104930008001800100000000000000000000000075
:1049400000000000CC00CC00CC00CC00CC00CC009F
:104950000000000000000000000000000000000057
:104960000000000000000000000000000000000047
:10497000000000000000000000000000600C600C5F
:10498000600C30063006FE1FFE1F30063807180385
:10499000FE1FFE1F180318038C018C018C01000000
:1049A00000008000E003F80F9C0E8C1C8C188C001B
:1049B0009800F801E007800E801C8C188C189C1859
:1049C000B80CF00FE0038000800000000000000041
:1049D0000000000000000E181B0C110C110611063F
:1049E000110311039B018E01C038C06C6044604408
:1049F000304430441844186C0C38000000000000AB
:104A00000000E001F0033807180618063003F00133
:104A1000F000F8009C310E33061E061C061C063FF3
:104A2000FC73F02100000000000000000000000006
:104A3000000000000C000C000C000C000C000C002E
:104A40000000000000000000000000000000000066
:104A50000000000000000000000000000000000056
:104A60000000000200038001C000C0006000600080
:104A700030003000300030003000300030003000B6
:104A800060006000C000C000800100030002000060
:104A9000000020006000C0008001800100030003CE
:104AA00000060006000600060006000600060006D6
:104AB0000003000380018001C000600020000000AE
:104AC000000000000000000000000000C000C00066
:104AD000D806F807E00130033807000000000000A6
:104AE00000000000000000000000000000000000C6
:104AF00000000000000000000000000080018001B4
:104B0000800180018001FC3FFC3F80018001800129
:104B10008001800100000000000000000000000093
:104B20000000000000000000000000000000000085
:104B30000000000000000000000000000000000075
:104B400000008001800100010001800000000000E1
:104B50000000000000000000000000000000000055
:104B60000000000000000000E007E0070000000077
:104B70000000000000000000000000000000000035
:104B80000000000000000000000000000000000025
:104B90000000000000000000000000000000000015
:104BA0000000C000C0000000000000000000000085
:104BB0000000000C000C00060006000600030003C5
:104BC00000038003800180018001C000C000C0009C
:104BD0006000600000000000000000000000000015
:104BE0000000E003F007380E180C0C180C180C1815
:104BF0000C180C180C180C180C180C18180C380E73
:104C0000F007E003000000000000000000000000CA
:104C1000000000018001C001F001980188018001BD
:104C2000800180018001800180018001800180017C
:104C30008001800100000000000000000000000072
:104C40000000E003F80F180C0C180C1800180018DE
:104C5000000C000600038001C00060003000180056
:104C6000FC1FFC1F0000000000000000000000000E
:104C70000000E001F807180E0C0C0C0C000C0006EC
:104C8000C003C007000C001800180C180C18180CF2
:104C9000F807E00300000000000000000000000032
:104CA0000000000C000E000F000F800DC00C600C07
:104CB000600C300C180C0C0CFC3FFC3F000C000C82
:104CC000000C000C000000000000000000000000CC
:104CD0000000F80FF80F180018000C00EC03FC0798
:104CE0001C0E001C0018001800180C181C0C180EC4
:104CF000F807E003000000000000000000000000D2
:104D00000000C007F00F381C181818000C00CC0366
:104D1000EC0F3C0E1C1C0C180C180C18181C380E30
:104D2000F007E003000000000000000000000000A9
:104D30000000FC1FFC1F000C00060006000380039F
:104D40008001C001C000E000600060007000300021
:104D500030003000000000000000000000000000F3
:104D60000000E003F007380E180C180C180C380679
:104D7000F007F007180C0C180C180C180C18380C4D
:104D8000F80FE00300000000000000000000000039
:104D90000000E003F007380E1C0C0C180C180C185F
:104DA0001C1C381EF81BE0190018000C000C1C0E0F
:104DB000F807F00100000000000000000000000003
:104DC00000000000000000000000000080018001E1
:104DD00000000000000000000000000000000000D3
:104DE00080018001000000000000000000000000C1
:104DF00000000000000000000000000080018001B1
:104E000000000000000000000000000000000000A2
:104E1000800180010001000180000000000000000E
:104E20000000000000000000000000000000000082
:104E30000010001C800FE003F8001800F800E003E9
:104E4000800F001C001000000000000000000000A7
:104E50000000000000000000000000000000000052
:104E6000F81F000000000000F81F00000000000014
:104E70000000000000000000000000000000000032
:104E80000000000000000000000000000000000022
:104E900008003800F001C007001F0018001FC007FD
:104EA000F0013800080000000000000000000000D1
:104EB0000000E003F80F180C0C180C180018000C78
:104EC000000600038001C000C000C0000000000018
:104ED000C000C00000000000000000000000000052
:104EE00000000000E00718180420C229224A1144DB
:104EF00009440944094409221113E20C0240042028
:104F00001818E0070000000000000000000000008A
:104F1000000080038003C006C006C006600C600C61
:104F2000301830183018F83FF83F1C700C600C60D7
:104F300006C006C0000000000000000000000000E5
:104F40000000FC03FC0F0C0C0C180C180C180C0CBB
:104F5000FC07FC0F0C180C300C300C300C300C180B
:104F6000FC1FFC0700000000000000000000000023
:104F70000000C007F01F38381C300C7006600600B7
:104F80000600060006000600060006600C701C30D5
:104F9000F01FE0070000000000000000000000001B
:104FA0000000FE03FE0F060E061806180630063037
:104FB0000630063006300630063006180618060E93
:104FC000FE0FFE03000000000000000000000000D3
:104FD0000000FC3FFC3F0C000C000C000C000C001F
:104FE000FC1FFC1F0C000C000C000C000C000C0043
:104FF000FC3FFC3F0000000000000000000000003B
:105000000000F83FF83F18001800180018001800BA
:10501000F81FF81F180018001800180018001800D2
:105020001800180000000000000000000000000050
:105030000000E00FF83F3C780E6006E007C0030078
:10504000030003FE03FE03C007C006C00EC03CF011
:10505000F83FE00F0000000000000000000000002A
:1050600000000C300C300C300C300C300C300C309C
:10507000FC3FFC3F0C300C300C300C300C300C3052
:105080000C300C30000000000000000000000000A8
:105090000000800180018001800180018001800189
:1050A00080018001800180018001800180018001F8
:1050B00080018001000000000000000000000000EE
:1050C00000000006000600060006000600060006B6
:1050D0000006000600060006000618061806380737
:1050E000F003E001000000000000000000000000EC
:1050F000000006300618060C060606038601C600E8
:1051000066007600DE008E0106030606060C061811
:1051100006300660000000000000000000000000F3
:1051200000001800180018001800180018001800D7
:1051300018001800180018001800180018001800AF
:10514000F81FF81F00000000000000000000000031
:1051500000000EE01EF01EF01EF036D836D836D80D
:1051600036D866CC66CC66CCC6C6C6C6C6C6C6C66B
:1051700086C386C30000000000000000000000009D
:1051800000000C301C303C303C306C306C30CC308B
:10519000CC308C310C330C330C360C360C3C0C3CC4
:1051A0000C380C300000000000000000000000007F
:1051B0000000E007F81F1C380E70066003C003C033
:1051C00003C003C003C003C003C006600E701C38D8
:1051D000F81FE007000000000000000000000000D1
:1051E0000000FC0FFC1F0C380C300C300C300C3065
:1051F0000C18FC1FFC070C000C000C000C000C0031
:105200000C000C0000000000000000000000000086
:105210000000E007F81F1C380E70066003E003C0B2
:1052200003C003C003C003C007E006630E3F1C3C7D
:10523000F83FE0F700C000000000000000000000A0
:105240000000FE0FFE1F0638063006300630063816
:10525000FE1FFE0706030606060C06180618063093
:1052600006300660000000000000000000000000A2
:105270000000E003F80F1C0C0C180C180C001C00AC
:10528000F803E00F001E0038063006300E301C1CFC
:10529000F80FE00700000000000000000000000020
:1052A0000000FE7FFE7F800180018001800180017F
:1052B00080018001800180018001800180018001E6
:1052C00080018001000000000000000000000000DC
:1052D00000000C300C300C300C300C300C300C302A
:1052E0000C300C300C300C300C300C300C301818EA
:1052F000F81FE007000000000000000000000000B0
:10530000000003600630063006300C180C180C182C
:10531000180C180C380E3006300670076003600356
:10532000C001C001000000000000000000000000FB
:1053300000000360C361C361C361663366336633D3
:105340006633663366336C1B6C1B6C1B2C1A3C1E5D
:10535000380E380E000000000000000000000000C1
:1053600000000FE00C7018303018700C600EC00791
:1053700080038003C003E006700C301C18180C304A
:105380000E6007E0000000000000000000000000C8
:10539000000003C006600C301C383818300C600662
:1053A000E007C0038001800180018001800180014D
:1053B00080018001000000000000000000000000EB
:1053C0000000FC7FFC7F006000300018000C00062D
:1053D00000038001C0006000300018000C000600CF
:1053E000FE7FFE7F000000000000000000000000C3
:1053F0000000E003E0036000600060006000600007
:10540000600060006000600060006000600060009C
:1054100060006000600060006000E003E0030000E6
:10542000000030003000600060006000C000C0007C
:10543000C000C0018001800180010003000300035F
:105440000006000600000000000000000000000050
:105450000000E003E0030003000300030003000377
:105460000003000300030003000300030003000324
:1054700000030003000300030003E003E003000057
:1054800000000000C001C00160036003600330063B
:105490003006180C180C000000000000000000008E
:1054A00000000000000000000000000000000000FC
:1054B00000000000000000000000000000000000EC
:1054C00000000000000000000000000000000000DC
:1054D0000000FFFFFFFF00000000000000000000D0
:1054E00000000C000C000C000C000C000C00000074
:1054F00000000000000000000000000000000000AC
:10550000000000000000000000000000000000009B
:10551000000000000000000000000000F003F80799
:105520001C0C0C0C000FF00FF80C0C0C0C0C1C0FCE
:10553000F80FF0180000000000000000000000005C
:10554000000018001800180018001800D803F80F01
:10555000380C181818181818181818181818380CA3
:10556000F80FD80300000000000000000000000059
:10557000000000000000000000000000C003F00771
:10558000300E180C1800180018001800180C300EF7
:10559000F007C00300000000000000000000000051
:1055A000000000180018001800180018C01BF01F99
:1055B000301C181818181818181818181818301C33
:1055C000F01FC01B000000000000000000000000F1
:1055D000000000000000000000000000C003F00F09
:1055E000300C1818F81FF81F180018003818301C55
:1055F000F00FC007000000000000000000000000E5
:105600000000800FC00FC000C000C000F007F0070E
:10561000C000C000C000C000C000C000C000C0008A
:10562000C000C000000000000000000000000000FA
:10563000000000000000000000000000E00DF80F76
:10564000180E0C0C0C0C0C0C0C0C0C0C0C0C180E7E
:10565000F80FE00D000C0C0C1C06F807F001000020
:10566000000018001800180018001800D807F80FDC
:10567000381C181818181818181818181818181886
:1056800018181818000000000000000000000000BA
:105690000000C000C000000000000000C000C0000A
:1056A000C000C000C000C000C000C000C000C000FA
:1056B000C000C0000000000000000000000000006A
:1056C0000000C000C000000000000000C000C000DA
:1056D000C000C000C000C000C000C000C000C000CA
:1056E000C000C000C000C000C000F800780000008A
:1056F00000000C000C000C000C000C000C0C0C0644
:105700000C038C01CC006C00FC009C018C030C038E
:105710000C060C0C0000000000000000000000005F
:105720000000C000C000C000C000C000C000C00039
:10573000C000C000C000C000C000C000C000C00069
:10574000C000C000000000000000000000000000D9
:105750000000000000000000000000007C3CFF7E14
:10576000C7E383C183C183C183C183C183C183C1B3
:1057700083C183C1000000000000000000000000A1
:105780000000000000000000000000009807F80F73
:10579000381C181818181818181818181818181865
:1057A0001818181800000000000000000000000099
:1057B000000000000000000000000000C003F00F27
:1057C000300C181818181818181818181818300C41
:1057D000F00FC00300000000000000000000000007
:1057E000000000000000000000000000D803F80FD7
:1057F000380C181818181818181818181818380C01
:10580000F80FD8031800180018001800180000003E
:10581000000000000000000000000000C01BF01F9E
:10582000301C181818181818181818181818301CC0
:10583000F01FC01B00180018001800180018000006
:10584000000000000000000000000000B007F003AE
:105850007000300030003000300030003000300088
:1058600030003000000000000000000000000000D8
:10587000000000000000000000000000E003F00352
:10588000380E180C3800F003C007000C180C380E46
:10589000F007E0030000000000000000000000002E
:1058A000000000008000C000C000C000F007F0074A
:1058B000C000C000C000C000C000C000C000C000E8
:1058C000C00780070000000000000000000000008A
:1058D0000000000000000000000000001818181868
:1058E0001818181818181818181818181818381C14
:1058F000F01FE019000000000000000000000000A0
:105900000000000000000000000000000C18180C4F
:10591000180C180C30063006300660036003600374
:10592000C001C001000000000000000000000000F5
:10593000000000000000000000000000C141C14163
:10594000C3616363636363633636363636361C1C65
:105950001C1C1C1C000000000000000000000000D7
:105960000000000000000000000000001C38381C8F
:10597000300C600660036003600360036006300C57
:10598000381C1C380000000000000000000000006F
:105990000000000000000000000000001830301877
:1059A00030187018600C600CE00CC006C006800354
:1059B0008003800380018001C001F00070000000BE
:1059C000000000000000000000000000FC1FFC1FA1
:1059D000000C000600038001C000600030001800C9
:1059E000FC1FFC1F00000000000000000000000081
:1059F000000000038001C000C000C000C000C00063
:105A0000C00060006000300060004000C000C000C6
:105A1000C000C000C000C000800100030000000002
:105A200000008001800180018001800180018001EF
:105A3000800180018001800180018001800180015E
:105A400080018001800180018001800180010000CF
:105A500000006000C000C001800180018001800161
:105A600080010003000300060003000180018001A3
:105A70008001800180018001C00060000000000002
:105A80000000000000000000000000000000000016
:105A9000F010F81F080F00000000000000000000D8
:105AA00000000000000000000000000000000000F6
:105AB00000000000000000000102030406070809BE
:105AC000E05A0008000000202C000000543C0008B0
:105AD0000C5B00082C00002054050000643C00080A
