:020000040800F2
:10000000D8050020ED01000817340008632D000812
:1000100015340008DD08000809440008000000004D
:100020000000000000000000000000002F37000862
:10003000DF0800080000000019340008313700080C
:10004000070200080702000807020008070200086C
:10005000070200080702000807020008070200085C
:10006000070200080702000807020008070200084C
:10007000070200080702000807020008070200083C
:10008000070200080000000007020008070200083D
:10009000070200080702000807020008070200081C
:1000A00007020008AD370008070200080702000831
:1000B00007020008B9370008070200080702000815
:1000C00007020008070200080702000807020008EC
:1000D00007020008FD4300080702000807020008A5
:1000E00007020008070200080702000807020008CC
:1000F00007020008070200080702000800000000CD
:1001000000000000070200080000000007020008CD
:1001100007020008000000000702000807020008AC
:10012000070200080702000807020008070200088B
:10013000070200080000000000000000070200089D
:10014000070200080702000800000000000000008D
:10015000000000000000000000000000000000009F
:10016000000000000000000000000000070200087E
:10017000070200080000000000000000000000006E
:10018000000000000702000800000000000000005E
:10019000000000000000000000000000000000005F
:1001A000000000000000000007020008070200082D
:1001B000070200080702000807020008000000000C
:1001C000000000000702000800000000000000001E
:1001D0000702000807020008DFF80CD000F020FB3F
:1001E00000480047E14E0008D80500200648804737
:1001F00006480047FEE7FEE7FEE7FEE7FEE7FEE70C
:10020000FEE7FEE7FEE7FEE791370008D9010008A8
:100210002DE9F05F0546002092469B46884606463B
:10022000814640241BE0284641464746224600F0CE
:100230000CF953465A46C01A914110D3114618463C
:10024000224600F0F3F82D1A67EB01084F462246CC
:100250000120002100F0EAF817EB00094E41201EB2
:10026000A4F10104DFDC484631462A464346BDE896
:10027000F09FD2B201E000F8012B491EFBD270477B
:100280000022F6E710B513460A4604461946FFF762
:10029000F0FF204610BD421C10F8011B0029FBD1C5
:1002A000801A70472DE9FE4F81EA030404F00044F0
:1002B00021F0004100944FF0000B23F0004350EA7E
:1002C00001045ED052EA03045BD0C3F30A54C1F3C5
:1002D0000A552C44A4F2F3340194A0FB0254C1F358
:1002E000130141F48011C3F3130343F4801301FBA2
:1002F000024400FB034E840A970A44EA815447EA09
:100300008357A4FB076802958D0A05FB07854FEA12
:10031000932C04FB0C542705029D4FEA065847EA2C
:100320001637B5EB08056EEB070C870E920E47EA01
:10033000811742EA8312A7FB0201B6EB0B0164EBC3
:1003400000042B0D43EA0C335E1844EB1C50DA46D4
:100350005146E7FB0201C5F313044FEA0B3343EAAE
:1003600014534FEA0432019C43EA0603A4F10C043F
:100370000294009CCDE900B400F0BDF803B0BDE8E4
:10038000F08F00200146F9E70EB540F233410291AB
:100390000021CDE900110A460B4600F0ACF803B08D
:1003A00000BD00F0004230F000400AD0C10D01F560
:1003B0006071C0F3160042EA0151C20840071143C0
:1003C000704700200146704701F0004330B421F02F
:1003D000004150EA010206D00A0DA2F56072C1F395
:1003E0001301002A02DC30BC00207047440F44EAAD
:1003F000C104C100E01830BC00EBC25000F035B8B9
:1004000030B50B46014600202022012409E021FAE4
:1004100002F59D4205D303FA02F5491B04FA02F5E1
:100420002844151EA2F10102F1DC30BD202A04DBB4
:10043000203A00FA02F1002070479140C2F12003F7
:1004400020FA03F3194390407047202A04DB203A36
:1004500021FA02F00021704721FA02F3D040C2F1E4
:10046000200291400843194670470029A8BF7047F1
:10047000401C490008BF20F00100704710B4B0FADA
:1004800080FC00FA0CF050EA010404BF10BC704775
:1004900049B1CCF1200421FA04F411FA0CF118BF8F
:1004A000012121430843A3EB0C01CB1D4FEA00615E
:1004B0004FEA102042BF002010BC704700EBC35031
:1004C00010440029A4BF10BC7047401C490008BF5D
:1004D00020F0010010BC704710B5141E73F1000429
:1004E00008DA401C41F1000192185B411A4301D126
:1004F00020F0010010BD2DE9F04D92469B4611B150
:10050000B1FA81F202E0B0FA80F220329046FFF7B1
:100510008DFF04460F4640EA0A0041EA0B015346AC
:100520005A46084313D0114653EA010019D0C8F1C6
:1005300040025046FFF789FF05460E465046594691
:100540004246FFF773FF084305D0012004E0204630
:100550003946BDE8F08D0020054346EAE0762C439D
:1005600037430A986305E40AA0EB08000022FD0A5D
:1005700044EA47540A3002D500200146E9E7010564
:1005800010196941DDE9084500196941BDE8F04DE0
:10059000A2E72DE9FE4F804681EA0300C00F0C461A
:1005A000009021F0004123F00045B8EB0200A94182
:1005B00005D24046214690461C460B46024623F093
:1005C0000040104347D0270DC7F30A00C3F30A5178
:1005D0000290401A019040286BDAC3F3130040F4F4
:1005E000801B0098924620B10023D2EB030A63EBF4
:1005F0000B0B01985946C0F140025046FFF716FF19
:1006000006460D4650465946019A00F01BF910EB7C
:1006100008006141002487EA115284EAE7731A4313
:1006200040D0009A62B3019A012A4FEA075215DCC2
:10063000001B61EB02014FF0004202EA0752CDE9D4
:100640000042001C41F5801132462B46FFF753FF54
:1006500003B0BDE8F08F40462146F9E7001B61EB8F
:100660000201001C41F5801300185B412018A2F51F
:10067000001747EB030140EAD570B6196D4111E050
:100680006D084FEA360645EAC0754FEA0752001B6F
:1006900061EB0201001C41F5801149084FEA30006E
:1006A0000019514132462B4603B0BDE8F04FFFF729
:1006B00013BF0098012240000023D0EB020263EB3D
:1006C000E073009821464FEAE074B8EB000061EB5C
:1006D0000401E9E783F000435BE781F0004158E75C
:1006E0002DE9F04D81EA030404F0004B21F00045B0
:1006F00014464FF0000A23F0004150EA050220D0D2
:1007000054EA01021DD0C5F30A570246C5F313038C
:10071000C1F31300C1F30A5640F4801543F480136B
:10072000A7EB0608101BD64608F2FD3873EB050050
:1007300002D308F1010801E092185B41B8F1000F03
:1007400003DA00200146BDE8F08D00204FF480114F
:10075000064684460EE0171B73EB050705D3121BF4
:1007600063EB050306434CEA010C49084FEA3000ED
:1007700092185B4150EA0107EDD152EA030012D012
:1007800082EA040083EA0501084305D0101BAB414F
:1007900006D20122002306E000224FF0004302E0CF
:1007A0006FF0010253101AEB06004CEB085110EBEE
:1007B0000A0041EB0B01BDE8F04DFFF78DBEC1F320
:1007C0000A52C1F3130140F2FF3341F480119A42FF
:1007D00002DA00200146704740F233439A42A2F207
:1007E000334202DC5242FFF730BEFFF71FBE00006B
:1007F00030B5041E71F1000404DB4FF000444042A8
:1008000064EB0101141E73F1000405DB1C464FF07C
:100810000043524263EB0403994208BF904230BD4B
:10082000064C074D06E0E06840F0010394E807003D
:1008300098471034AC42F6D3FFF7D2FC6C62000844
:100840008C620008202A06DBCB17203A41FA02F01E
:1008500043EAE07306E041FA02F3D040C2F120021D
:10086000914008431946704770B504460068816896
:1008700011F0010F2DD18168174A11421AD18168F8
:10088000D5432940491C816000F0ACFD06461BE0C1
:10089000816811F0010F03D181682940491C8160F2
:1008A00000F0A0FD801B02280ED920680068C0431C
:1008B000C00709D0E06D40F01000E065206E40F008
:1008C00001002066012070BD20680168C943C90786
:1008D000DED1002070BD00003F000080FEE77047C1
:1008E000002240F6B83306E00021491C89B2994243
:1008F000FBD3521C92B28242F6D37047704700007D
:100900002DE9F84F00270446009790F85800DFF8CB
:10091000D8930D46B846012811D0012684F85860B6
:10092000206802F005FC60B1E06D40F02000E06559
:100930005FF0010784F858803846BDE8F88F022040
:10094000FBE7D5E900210C23206803EA9113184442
:10095000036B01F01F014FF01F0C0CFA01FCC2F3F6
:10096000846223EA0C038A4013430363206802F085
:10097000DFFB8246206802F0D7FB5AEA00003CD138
:10098000AA6829682068B2F1004F37D002F0D4FB82
:100990002068416921F00041416120686969C268AD
:1009A000C2F3C102520091402A69042A31D000EBFF
:1009B00082002B68026EDFF834C303F0F84302EACA
:1009C0000C020B431A4342F00041016620682A6979
:1009D000A96900EB8200026E22F080720A4302666F
:1009E000297F22682869012910D0002102EB8000AC
:1009F000026E22F000720A4302667DE0002202F0DD
:100A00009BFB2068416941F00041C5E74FF0007150
:100A1000ECE7002102F082FB400320684FF0000168
:100A200072D002F07BFB90FAA0F0B0FA80F1286857
:100A300042036ED090FAA0F0B0FA80F0814204D167
:100A400000221146206802F086FB0121206802F096
:100A500065FB400320684FF001015DD002F05EFBB2
:100A600090FAA0F0B0FA80F12868420359D090FAC9
:100A7000A0F0B0FA80F0814204D100220121206868
:100A800002F069FB0221206802F048FB4003206865
:100A90004FF0020148D002F041FB90FAA0F0B0FA0A
:100AA00080F12868420344D090FAA0F0B0FA80F0B8
:100AB000814204D100220221206802F04CFB032174
:100AC000206802F02BFB400320684FF0030133D075
:100AD00002F024FB90FAA0F0B0FA80F128684203FB
:100AE0002FD090FAA0F0B0FA80F0814204D1002219
:100AF0000321206802F02FFB2068816811F0010FAC
:100B000022D0A8E000E004E002F008FBC0F384611A
:100B10008DE7C0F3846091E702F000FBC0F38461CD
:100B2000A2E7C0F38460A6E702F0F8FAC0F384619C
:100B3000B7E7C0F38460BBE702F0F0FAC0F384616A
:100B4000CCE7C0F38460D0E7EB6829684B4550F8E8
:100B5000B03FC1F3120101D10B4300E08B430360AE
:100B6000E868484577D1286841031CD090FAA0F185
:100B7000B1FA81F1491C01F01F0109294FEA403106
:100B800032D8002912D000BF90FAA0F1B1FA81F159
:100B900001F1010101F01F0106FA01F609D100BFC0
:100BA000C0F3846109E0C0F38461E3E7C0F38461CA
:100BB000EEE790FAA0F1B1FA81F101F1010101F043
:100BC0001F0146EA816102D1C0F3846003E090FA1C
:100BD000A0F0B0FA80F000F1010000F01F0000EB7F
:100BE000400041EA005132E000290ED090FAA0F115
:100BF000B1FA81F101F1010101F01F0106FA01F6DC
:100C000006D100BFC0F3846106E0C0F38461F1E760
:100C100090FAA0F1B1FA81F101F1010101F01F0197
:100C200046EA816102D1C0F3846003E090FAA0F04B
:100C3000B0FA80F000F1010000F01F002C4A00EB38
:100C4000400002EB005041EA000141F00071AA6847
:100C5000206802F071FA27482A6802423FF46AAE1F
:100C600025488168254B01F0E0719A4202D0244B5F
:100C70009A421CD10B021AD42268B2F1A04F7FF421
:100C800059AE826841F4000122F0E0720A438260AA
:100C90001C481D490068B0FBF1F0401C00EB40000F
:100CA000800000E0401E00900028FBD142E6174D76
:100CB000174BAA4207D1CD0105D422689A42F5D03C
:100CC00041F0807109E0134DAA42EFD14A02EDD400
:100CD00022689A42EAD041F48001826822F0E072F0
:100CE0000A43826026E6000000007F4000F0FF0318
:100CF000000020FE0000088000030050000021C317
:100D00001000C09008000020400D0300000052C7F2
:100D100000010050000084CB0068006C70470000A8
:100D2000F8B54FF0000504002E46009502D0E06DA6
:100D300010B107E00120F8BD204600F0EFF826666C
:100D400084F8586020688168C1F3407119B18168E6
:100D50006A4A1140816020688168C1F3007189B9D5
:100D60008168674A114041F0805181606548664959
:100D70000068B0FBF1F04000801C00E0401E0090D5
:100D80000028FBD120688168C1F3007141B9E16D91
:100D900041F01001E165216E41F00101216601255C
:100DA00002F0C6F9E16DC90600D430B1E06D40F043
:100DB0001000E06501252846F8BDE06D20F4807044
:100DC00040F00200E0652068806810F0010F11D14A
:100DD0004FF0A04080684D4900F00100896801F0A3
:100DE0000101084306D14A486168826822F47C12F6
:100DF0000A438260E168E06B627F0843A16841EAD0
:100E00004231084394F8241040EA0140012904D1FA
:100E1000218D404A02EB41410843E16A29B101F4C6
:100E20007871226B014342EA01002168CA683A4B9B
:100E30001A400243CA6020680169626B21F0406178
:100E400011430161206802F073F90646206802F040
:100E50006BF930432ED1207F94F83810800340EA9C
:100E600041022068C16844F2020399431143C16002
:100E700020690028206801690AD041F480310161AD
:100E8000206850F8C01F22696FF30D01114307E07D
:100E900021F480310161206850F8C01F6FF30D010B
:100EA000016094F8400001280CD02068016921F00D
:100EB00001010161606901282068016B21F00F01C7
:100EC00011D013E0D4E911010843D4E913121143FE
:100ED000084321680A6940F2FC739A43104340F0CA
:100EE00001000861E6E7226A521E11430163E06DCA
:100EF00020F0020040F00100E0655CE7C0FFFF5F0A
:100F0000C0FFFF7F08000020400D030000010050DB
:100F1000000300500000FEFF0740F0FF10B598B03E
:100F20000446142111A8FFF7ABF944216846FFF7E6
:100F3000A7F915492068884223D1C40140050094CF
:100F40000F90684600F04CFB08B1FFF7D7FC0F4844
:100F5000C16C41F40051C164C16C01F4005116919F
:100F6000C16C41F00201C164C06C11A900F0020023
:100F700016900320CDE9114000201390044800F0A2
:100F800007F918B010BD0000000100500010024029
:100F9000000400482DE9F04104463848806800F01C
:100FA0001F05206802F0C4F818B102210846BDE808
:100FB000F08194F8580001280CD0012084F85800E2
:100FC0002046FFF751FC01004FF0000304D084F8E5
:100FD0005830EBE70220EAE7E06D40F6016290430B
:100FE00040F48070E065264A20684FF0A0469042A9
:100FF00001D1374600E00746874200D01DB9E76DB2
:1010000027F48017E765E76DFF0404D5276E27F006
:101010000607276600E023661C27076084F858301F
:101020002068904201D1334600E00346834215D048
:10103000A5B1052D12D0092D10D0E36D43F4801316
:10104000E365904200D13046C0688001AED5E06DC6
:1010500020F4005040F48050E065A7E7C268920198
:1010600005D5E26D22F4005242F48052E2658268B6
:10107000044B1A40121D826098E7000000030050E4
:1010800000010050C0FFFF7F10B590F8253000210F
:101090000122022B03D00421C163012122E0036855
:1010A0001C6824F00E041C60836C1C6824F480749B
:1010B0001C6003681C6824F001041C6090F8443034
:1010C000046C03F01F0302FA03F36360D0E91334E6
:1010D0005C60436D33B11C6824F480741C60D0E9FB
:1010E00016345C6080F82520002280F82420084611
:1010F00010BD70B590F82520002401212346022A56
:1011000007D00422C26380F8251080F8243001241F
:1011100029E00268156825F00E051560026815685B
:1011200025F001051560826C156825F48075156041
:1011300090F84420056C02F01F0201FA02F26A6086
:10114000D0E913255560426D32B1156825F48075DC
:101150001560D0E91625556080F8251080F82430F8
:10116000816B01B18847204670BD000070B5044610
:1011700000F038F90546601C02D004484068044479
:1011800000F030F9401BA042FAD370BD18000020D7
:101190002DE9F04FDFF82092002301260324A9F166
:1011A000040B85B00F2709F1040AABF1040EFAE035
:1011B00006FA03F52A407CD091F804C00CF0030C29
:1011C000BCF1010F02D0BCF1020F26D1D0F808C04B
:1011D000CDF800C04FEA430C04FA0CF8CDF810C06B
:1011E000DDF800C02CEA080CCDF800C0D1F80C8066
:1011F000DDF810C008FA0CF8DDF800C048EA0C0869
:10120000C0F80880D0F804C02CEA050C0D79C5F3AD
:1012100000159D4045EA0C0545600D79ED43AD078D
:101220000ED0C5684FEA430804FA08FC25EA0C050D
:10123000D1F808C00CFA08FC4CEA050CC0F80CC048
:101240000D7905F00305022D16D1DD0800EB850CA4
:10125000CDF808C0DCF820805D074FEAD56C07FAAE
:101260000CF528EA05080D6905FA0CF5DDF808C04B
:1012700045EA0805CCF8205005684FEA430CCDF844
:1012800008C004FA0CFC25EA0C0591F804C00CF027
:101290000308DDF808C008FA0CF848EA0508C0F8A9
:1012A00000804D6815F4403F7CD0444DD5F860C0B7
:1012B00000E077E04CF0010CC5F860C02D6E23F023
:1012C000030C05F0010500953D4D65440295AD68A0
:1012D0004FEA837C4FEA1C7807FA08FC25EA0C05E4
:1012E000B0F1904F06D0DFF8DCC0604505D14FF07B
:1012F000010C20E04FF0000C1DE0DFF8CCC0604591
:1013000002D14FF0020C16E0DFF8C0C0604502D1F8
:101310004FF0030C0FE0DFF8B8C0604502D14FF08A
:10132000040C08E0DFF8ACC0604502D14FF0050CBA
:1013300001E04FF0060C0CFA08FC4CEA050C029D8B
:10134000C5F808C0D9F80050CC46D1F804809543C0
:101350005FEAC82800D51543CCF80050DAF80050F1
:10136000D446D1F8048095435FEA882800D5154318
:10137000CCF80050DBF80050DC46D1F804809543EF
:101380005FEA883800D51543CCF80050DEF80050ED
:10139000F446D1F8048095435FEAC83800D5154378
:1013A000CCF800505B1C0A6832FA03F57FF400AFFA
:1013B00005B0BDE8F08F00000804014000100240B5
:1013C000000001400004004800080048000C0048EC
:1013D00000100048001400480AB181617047816222
:1013E0007047000001488068704700001800002026
:1013F00002488168426811448160704718000020EB
:1014000010B50024032000F073F8002000F008F865
:1014100008B1012401E000F025F8204610BD0000CD
:1014200070B50E4E05460024706898B14FF47A717D
:10143000B1FBF0F00A490968B1FBF0F000F064FD7F
:1014400040B9102D06D200222946501E00F030F877
:10145000356000E00124204670BD00001800002027
:10146000080000200A4882B0016E41F001010166C7
:10147000016E01F001010091816D41F080518165A3
:10148000806D00F08050009002B000F0A1B8000024
:1014900000100240002809DB00F01F0201219140EA
:1014A0004009800000F1E020C0F800117047000002
:1014B000F0B40E4B1B680C46C3F30223C3F10705BF
:1014C000042D00D90425191D072901D2002300E0AD
:1014D000DB1E012606FA05F1491E214099409E4077
:1014E000761E16403143F0BC02F0A4BF0CED00E0C4
:1014F000064900F0070208684FF6FF03184040EA6B
:101500000220034A10430860704700000CED00E021
:101510000000FA052B492C4B0A6832214A432B491B
:1015200040B1B0F5007F086829D020F4C06040F4D5
:1015300080602CE00868C0F34120022804D051F8F4
:10154000800F20F4807022E0D1F8800020F48070B9
:10155000C1F88000086820F4C06040F400700860A2
:10156000B2FBF3F0401C00E0401E4A69520501D571
:101570000028F9D1486940050AD503207047C0F317
:101580004120022806D051F8800F40F48070086096
:1015900000207047D1F8800040F48070C1F88000CE
:1015A000086820F4C06040F400700860B2FBF3F0FB
:1015B000401C00E0401E4A695205DBD50028F9D1E5
:1015C000D8E700000800002040420F0000700040F3
:1015D0000248816841F4804181607047007000409A
:1015E0002DE9F8430446006800269D4D00035ED5B2
:1015F000A86D0027C00008D4A86D40F08050A865F1
:10160000A86D012700F080500090DFF85892D9F8BB
:10161000001041F48071C9F80010FFF7E3FE804626
:1016200006E000BFFFF7DEFEA0EB080002282BD883
:10163000D9F80000C005F5D5D5F8900010F4407039
:1016400014D0216C814211D0D5F89000D5F89010BB
:1016500020F4407041F48031C5F89010D5F8901016
:1016600021F48031C5F89010C5F89000C00711D062
:10167000FFF7B8FE804641F2883907E0FFF7B2FE77
:10168000A0EB0801494501D903260BE0D5F89000ED
:101690008007F3D5D5F89000216C20F44070084302
:1016A000C5F890001FB1A86D20F08050A865207883
:1016B000C00707D0D5F88800616820F00300084310
:1016C000C5F888002078800707D5D5F88800A1687C
:1016D00020F00C000843C5F888002078400707D5A3
:1016E000D5F88800E16820F030000843C5F888008C
:1016F0002078000707D5D5F88800216920F0C000C0
:101700000843C5F888002078800607D5D5F88800FA
:10171000616920F440600843C5F8880020784006DD
:1017200007D5D5F88800A16920F440500843C5F8D2
:1017300088002078000607D5D5F88800E16920F4F4
:1017400040400843C5F888002088C00507D5D5F873
:101750008800216A20F440300843C5F888002088BA
:10176000800507D5D5F88800616A20F44020084339
:10177000C5F88800208840050FD5D5F88800A16AF3
:1017800020F440100843C5F88800A06AB0F5801F17
:1017900003D1E86840F48010E860208800050FD588
:1017A000D5F88800E16A20F440000843C5F88800B5
:1017B000E06AB0F5800F03D1E86840F48010E8607B
:1017C0002088C0040FD5D5F88800216B20F0407028
:1017D0000843C5F88800206BB0F1807F03D1E8682A
:1017E00040F48010E86020884FF0006180040ED53E
:1017F000D5F88800626B20F040601043C5F888007F
:10180000606B884203D1E86840F48010E86020886B
:1018100040040ED5D5F88800A26B20F0406010433C
:10182000C5F88800A06B884203D1E86840F48010B6
:10183000E860208800040FD5D5F88800E16B20F01F
:1018400040500843C5F88800E06BB0F1805F03D1D9
:10185000E86840F48030E8603046BDE8F883000076
:1018600000100240007000402DE9F0470E460500D0
:101870004FF0000725D0DFF8AC81D8F8000000F069
:101880000F00B0420CD2D8F8001021F00F01314304
:10189000C8F80010D8F8000000F00F00B04210D1D6
:1018A0002968614CC80741F2883A5AD06868DFF865
:1018B0007C91032808D0022820682DD040050028FC
:1018C0002CDB0120BDE8F08720688001F9D5E068B5
:1018D00000F00302E068C0F30310401C032A19D093
:1018E000534A00BFB2FBF0F0E268C2F30622504355
:1018F000E268C2F34162521C5200B0FBF2F048456C
:1019000017D9A06810F0F00F0CD0880711D5A8687F
:1019100040B10EE0474AE5E78003D0E700F0B6F8B3
:10192000484506D9A06820F0F00040F08000A06093
:101930008027A068696820F003000843A060FFF7D3
:1019400051FD814606E000BFFFF74CFDA0EB090109
:1019500051453AD8A068696800F00C00B0EB810FDF
:10196000F2D12868810714D5400703D5A06840F458
:10197000E060A0602878000705D5A06820F46050DA
:1019800040F4E060A060A068A96820F0F00008437F
:1019900004E0802F03D1A06820F0F000A060D8F808
:1019A0000010404601F00F01B14216D9016821F044
:1019B0000F0131430160FFF715FD074607E000BF47
:1019C000FFF710FDC11B514501D903207AE7D8F874
:1019D000000000F00F00B042F2D12878400705D592
:1019E000A068E96820F4E0600843A0602878000758
:1019F00006D5A068296920F4605040EAC100A060C3
:101A000000F044F8A1680C4AC1F30311515C01F0E5
:101A10001F01C8400949086009480068BDE8F0474F
:101A2000FFF7FEBC002002400010024000B4C404D6
:101A30000024F40000366E012C620008080000202B
:101A4000180000200548064900688968054AC1F366
:101A50000221515C01F01F01C840704708000020BE
:101A6000001002403C620008054806490068896889
:101A7000054AC1F3C221515C01F01F01C840704703
:101A800008000020001002403C620008184910B510
:101A90008868C0F381021748012A0BD08A68164B68
:101AA000C2F38102022A06D08A68C2F38102032AA5
:101AB00003D0002010BD184610BDCA6802F0030410
:101AC000CA68C2F30312521C032C02D0B0FBF2F01E
:101AD00001E0B3FBF2F0CA68C968C2F306225043C2
:101AE000C1F34161491C4900B0FBF1F010BD000099
:101AF000001002400024F40000366E012DE9F84386
:101B000004007AD02078FA4DC00747D0A868E96869
:101B100000F00C0001F003010C2802D0082817D0B7
:101B200001E0032914D06068B0F5803F17D0B0F50C
:101B3000A02F286817D020F480302860286820F46F
:101B4000802028606068E0B1FFF74CFC064614E096
:101B50002868800322D560680028D2D01EE028685B
:101B600040F48030EDE740F480202860F7E700BFC4
:101B7000FFF738FC801B642870D828688003F7D5ED
:101B80000CE0FFF72FFC064605E000BFFFF72AFC3C
:101B9000801B6428F0D828688003F7D42078800759
:101BA0004CD5A868E96800F00C0001F003010C288E
:101BB00002D004280DD001E002290AD0E0680028F4
:101BC00028682BD040F480702860FFF70BFC064695
:101BD00019E02868400502D5E068002891D06868BF
:101BE000217C20F0FE4040EA01606860C148006846
:101BF000FFF716FC002800D120E076E1FFF7F2FBAA
:101C0000801B0228B8D828684005F7D56868217C71
:101C100020F0FE4040EA016068600FE020F4807030
:101C20002860FFF7DFFB064605E000BFFFF7DAFBA1
:101C3000801B0228A0D828684005F7D42078000728
:101C400029D560690028D5F8940013D040F0010030
:101C5000C5F89400FFF7C6FB064606E090E000BF1B
:101C6000FFF7C0FB801B022886D8D5F894008007B8
:101C7000F6D510E020F00100C5F89400FFF7B2FBA4
:101C8000064604E0FFF7AEFB801B022878D8D5F8A3
:101C900094008007F6D42078400761D5A86D00260F
:101CA000C00008D4A86D40F08050A865A86D01263A
:101CB00000F08050009090480168C90511D4016877
:101CC000804641F480710160FFF78CFB074604E019
:101CD000FFF788FBC01B022852D8D8F80000C005C7
:101CE000F6D5A068012815D00528D5F8900016D0A3
:101CF00020F00100C5F89000D5F8900020F0040015
:101D0000C5F89000A06841F28838B8B1FFF76AFBC7
:101D100007460EE0D5F8900040F00100F0E740F0F3
:101D20000400C5F89000F5E7FFF75CFBC11B4145D7
:101D300026D8D5F890008007F6D50CE0FFF752FBC7
:101D4000074604E0FFF74EFBC11B414518D8D5F804
:101D500090008007F6D41EB1A86D20F08050A865D1
:101D60002078800629D5A0690028D5F8980013D0DE
:101D700040F00100C5F89800FFF734FB064606E086
:101D800077E000BFFFF72EFB801B022877D8D5F83D
:101D900098008007F6D510E020F00100C5F8980003
:101DA000FFF720FB064604E0FFF71CFB801B022820
:101DB00065D8D5F898008007F6D4E069F0B3A96833
:101DC000C1F38101032961D00228286820F08070C6
:101DD00028600BD0E86820F00300E860E868474915
:101DE0000840E860FFF7FEFA04464BE0FFF7FAFA16
:101DF000064604E0FFF7F6FA801B02283FD8286861
:101E00008001F7D4F4E908016FF00F0202EB011131
:101E10000843218A5204490802EB4151A26841EA71
:101E200002210843217D4FF07E42490802EB4161C7
:101E30000843217B40EAC160E96800E062E0304A83
:101E400011400843E860286840F080702860E86826
:101E500040F08070E860FFF7C5FA044605E000BF77
:101E6000FFF7C0FA001B022809D828688001F7D5BF
:101E700048E004E0FFF7B6FA001B022802D903206D
:101E8000BDE8F88328688001F4D43BE00128F7D04E
:101E9000E868226A00F00301914226D1616A00F0ED
:101EA000F0020901103991421FD1A26A00F4FE41EB
:101EB000B1EB022F19D194F82C2000F07841B1EB4E
:101EC000C26F12D1218E00F4C00249084905A1F564
:101ED0000011914209D194F8341000F0C060490813
:101EE0004906A1F1007181420CD00120C8E7000031
:101EF000001002401800002000700040FFFFEEFEBE
:101F00000C809F010020BBE710B5401EB0F1807F20
:101F100001D3012010BD4FF0E02460610F21601754
:101F200002F088FA0020A06107202061002010BD87
:101F3000704770477047704770477047F0B590F82A
:101F40003C20012A3AD0012580F83C50022280F83A
:101F50003D2003685A689C68194E1A4FB34201D05D
:101F6000BB4204D122F4700C4A6842EA0C02DFF84A
:101F700058C002EA0C02D1F800C04CEA020CC3F8C7
:101F800004C00268B2420DD0B2F1804F0AD00F4BAC
:101F90009A4207D00E4B9A4204D0BA4202D00D4B5F
:101FA0009A4204D1896824F080031943916080F833
:101FB0003D50002180F83C100846F0BD0220F0BDE5
:101FC000002C0140003401408FFFFFFD0004004061
:101FD0000008004000400140704710B5040003D0E5
:101FE00094F83D0010B107E0012010BD002084F8F6
:101FF0003C00204600F022F8022084F83D00211D1C
:10200000206801F0DFFB012084F8480084F83E00DE
:1020100084F83F0084F8400084F8410084F84200CE
:1020200084F8430084F8440084F8450084F84600AE
:1020300084F8470084F83D00002010BD10B586B03C
:10204000044614216846FEF71BF91F4A21681F4801
:1020500091420ED1816D41F002018165806D0022B7
:1020600000F00200059011461D20FFF721FA1D2007
:1020700025E0174A914224D1016E41F400310166F6
:10208000016E01F400310591C16C41F00201C1649F
:10209000C06C694600F002000590102000900220FC
:1020A0000190002002900390012004900948FFF75E
:1020B0006FF8002211461920FFF7FAF91920FFF7EF
:1020C000E9F906B010BD0000000400400010024015
:1020D000004401400004004890F83D10012901D05F
:1020E00001207047022180F83D100168CA6842F063
:1020F0000102CA600068104988420ED0B0F1804FDA
:102100000BD00E49884208D00D49884205D00D49B0
:10211000884202D00C49884207D181680B4A11409D
:10212000062906D0B1F5803F03D0016841F00101D6
:102130000160002070470000002C014000040040B6
:102140000008004000340140004001400700010049
:1021500070B5044690F83C000025012814D00126F3
:1021600084F83C60022084F83D0022689068364B79
:10217000184020F47F409060086870282ED010DC52
:1021800010F00F0F03D021E04FF0020070BD4FEAB6
:102190002012072A1AD2DFE802F0525252524A386D
:1021A00040002A4BC21A984249D009DCB0F5805F42
:1021B0000DD0B0F5005F1CD0B0F1101F06D13EE08D
:1021C000102A3CD0202A3AD0502A38D0012584F851
:1021D0003D60002084F83C00284670BDCB68D1E902
:1021E0000121206801F053FB2068816841F07701EC
:1021F00009E0CB68D1E90121206801F048FB2068A3
:10220000816841F480418160E1E7CA6849682068DB
:1022100001F052FB5021206806E0CA684968206836
:1022200001F092FB6021206801F03CFBCFE7CA6817
:102230004968206801F040FB40212068F4E72268EB
:1022400001461046F0E7000088FFCEFF2000100096
:10225000084A016891420CD1007F012809D1486ADF
:10226000064B82B204488280B3FBF2F2C2800020A7
:1022700048627047004401400C00002040420F00BB
:102280002DE9F041054690F83C0000260C46012857
:1022900010D0012085F83C0072B1042A1CD0082A15
:1022A0002CD00C2A50D00126002085F83C00304666
:1022B000BDE8F0810220FBE7D4E90012E36828685A
:1022C00001F00CFB2868816921F00C01816128680C
:1022D0008169A26811430FE0D4E90012E36828681D
:1022E00001F044FB2868816921F44061816128681C
:1022F0008169A26841EA02218161D5E72868D4E9B1
:10230000002C277B016A21F480710162C169036A94
:1023100021F0030141EA0C0121F0F00C39074FF4E0
:1023200020674CEA116123F4206307EA02221A4372
:10233000C16102622868C16921F00C01C16128688D
:10234000C169A268114328E02868D4E90027E16840
:10235000036A23F480530362D0F81CC0036A2CF490
:10236000407C4CEA07274FF6FF7C27F470470CEAC5
:10237000013139434FF4204723F4204307EA023266
:102380001A43C16102622868C16921F44061C161D8
:102390002868C169A26841EA0221C16184E710B5D9
:1023A000040003D094F83D0010B107E0012010BDF7
:1023B000002084F83C00204600F022F8022084F837
:1023C0003D00211D206801F0FDF9012084F848003E
:1023D00084F83E0084F83F0084F8400084F841000F
:1023E00084F8420084F8430084F8440084F84500EF
:1023F00084F8460084F8470084F83D00002010BDB2
:102400007047000030B50446002571B1042911D091
:10241000082914D00C2917D0102918D094F843009B
:1024200094F84720012817D114E094F83E0094F85E
:102430004420F7E794F83F0094F84520F2E794F839
:10244000400094F84620EDE794F84100E8E794F85E
:102450004200E5E7012A01D0012030BD022079B118
:10246000042916D008291DD00C2949D010294AD09A
:1024700084F8430084F847000C2947D001253DE04B
:1024800084F83E0084F844002068C26842F00202EA
:1024900010E084F83F0084F845002068C26842F0EC
:1024A000040207E084F8400084F846002068C2680F
:1024B00042F00802C2600122206801F0DBF91649EF
:1024C000206888420ED0B0F1804F0BD0134988426B
:1024D00008D01349884205D01249884202D01249D7
:1024E000884207D18168114A1140062906D0B1F50A
:1024F000803F03D0016841F001010160284630BDF2
:1025000084F84100B6E784F84200B3E72068C26867
:1025100042F01002CEE70000002C01400004004011
:102520000008004000340140004001400700010065
:1025300070B50446006801694FF00005C94389077A
:1025400015D4C168C943890711D4E91E016101206E
:102550002077206880698007204602D0FFF778FE48
:1025600004E000F0E3F8204600F0E1F82577206869
:102570000169C943490717D4C168C943490713D43E
:102580006FF004010161022020772068806910F457
:10259000407F204602D0FFF75BFE04E000F0C6F863
:1025A000204600F0C4F8257720680169C94309076F
:1025B00016D4C168C943090712D46FF0080101613C
:1025C000042020772068C0698007204602D0FFF7EA
:1025D0003FFE04E000F0AAF8204600F0A8F82577B6
:1025E00020680169C943C90617D4C168C943C9062F
:1025F00013D46FF010010161082020772068C069B2
:1026000010F4407F204602D0FFF722FE04E000F0E5
:102610008DF8204600F08BF8257720680169C943C2
:10262000C90708D1C168C943C90704D1891E01611E
:10263000204600F07DF820680169C943090609D4E5
:10264000C168C943090605D46FF0800101612046C5
:10265000FFF76FFC20680169C943C90509D4C16847
:10266000C943090605D46FF4807101612046FFF764
:102670005FFC20680169C943490609D4C168C943A0
:10268000490605D46FF040010161204600F068F86A
:1026900020680169C943890609D4C168C94389060C
:1026A00005D46FF0200101612046FFF743FC20684C
:1026B0000169C943C90209D4C168C943C90205D423
:1026C0006FF4801101612046FFF736FC2068016934
:1026D000C943890209D4C168C943890205D46FF48A
:1026E000001101612046FFF726FC20680169C943FB
:1026F000490209D4C168C943490205D46FF4800175
:1027000001612046FFF719FC20680169C9430902ED
:102710000BD4C168C943090207D46FF400010161F9
:102720002046BDE87040FFF757BC70BD704770474A
:102730000068094988420CD10848002102784AB152
:102740000289521C92B20281B2F5967F01D10181B9
:102750000170704701817047000400400C000020A8
:10276000704790F88010012918D0012180F880105E
:102770002421C0F8841050F8641B0A680B6823F009
:1027800001030B6022F000510022026050F8643C0B
:1027900019602021016202771046704702207047BD
:1027A0007047704770B5044690F8800001281DD02E
:1027B000012084F880002420C4F884002068056883
:1027C000026822F0010202602068826822F06062E2
:1027D0000A438260204601F0E5F820680560202069
:1027E000C4F88400002084F8800070BD022070BD11
:1027F00070B5044690F8800001281DD0012084F8AF
:1028000080002420C4F8840020680568026822F053
:10281000010202602068826822F060420A438260FE
:10282000204601F0BFF8206805602020C4F884002D
:10283000002084F8800070BD022070BD7047704792
:10284000704700002DE9F04103680446D869196813
:102850009A6840F60F0528424FF0000509D1860618
:102860007ED501F0200602F080573E4378D0216FDC
:1028700027E1A94EA94F16400F40374370D0C70734
:1028800009D0CF0507D501271F62D4F88C3043F05B
:102890000103C4F88C3083070AD5D30708D0276812
:1028A00002233B62D4F88C3043F00403C4F88C302C
:1028B00043070AD5D30708D0276804233B62D4F81E
:1028C0008C3043F00203C4F88C3003070CD501F0C0
:1028D0002003334308D0266808233362D4F88C30B1
:1028E00043F00803C4F88C3003050BD54B0109D520
:1028F00026684FF400633362D4F88C3043F0200331
:10290000C4F88C30D4F88C30002B3AD0800609D52E
:1029100001F0200002F08051084303D0216F09B17B
:1029200020468847D4F88C0021688968490602D47B
:1029300010F0280F27D0204601F0F4F820688068B6
:1029400040061BD52068083050E8001F21F04001E8
:1029500040E80012002AF5D1E06F78B1704900E03C
:1029600017E08163E06FFEF7C4FB002809D0E06F39
:10297000816B00E02046BDE8F04108472046FFF7A4
:102980005FFFBDE8F0812046FFF75AFFC4F88C5086
:10299000F7E7E76E2026012F7ED1C7067CD5CF064C
:1029A0007AD51020186220688068400642D5E16F11
:1029B000086840680004000CE3D0B4F85C20824250
:1029C000DFD9A4F85E000868006880062BD4206870
:1029D00050E8001F21F4807140E80012002AF6D16F
:1029E0002068083050E8001F21F0010140E8001283
:1029F000002AF5D12068083050E8001F21F040017E
:102A000040E80012002AF5D1C4F88860E566216824
:102A100051E8000F20F0100041E80002002AF6D132
:102A2000E06FFEF731FBB4F85C00B4F85E10401ABA
:102A300081B22CE0B4F85C00B4F85E10401A81B2A8
:102A4000B4F85E0000289CD000299AD0226852E891
:102A5000000F20F4907042E80003002BF6D12E4BBB
:102A6000DB432068083050E8002F1A4040E8002778
:102A7000002FF6D1C4F88860E5662567226852E821
:102A8000000F20F0100042E80003002BF6D1204692
:102A9000FFF786FE75E7FFE7C70209D5570207D59E
:102AA0004FF4801018622046BDE8F041FFF7C7BE22
:102AB00003060AD501F0800302F40002134304D098
:102AC000616F00297FF456AF5BE7420611D54A06D5
:102AD0000FD52046016851E8002F22F0400241E85E
:102AE0000023002BF6D1C0F88460456700F038F968
:102AF00047E7020206D54A0004D52046BDE8F0416A
:102B0000FFF79CBEC001C5D50029C3DA2046BDE849
:102B1000F041FFF746BE0000010000102001000454
:102B2000113B000810B5040003D0D4F8840010B1A4
:102B300007E0012010BD002084F88000204600F04E
:102B400027F82420C4F884002068016821F00101DE
:102B50000160204601F028FA0128EBD0A06A10B1EC
:102B6000204600F041FF2068416821F49041416017
:102B70002068816821F02A0181602068016841F0A5
:102B8000010101602046BDE8104000F091BF000047
:102B900010B598B00446142111A8FDF771FB44212B
:102BA0006846FDF76DFB1B492068884230D1012043
:102BB0000024CDE900046846FEF712FD08B1FDF7D8
:102BC0009DFE1548016E41F480410166016E01F4DD
:102BD00080411691C16C41F00101C164C06C11A922
:102BE00000F0010016904FF4C06011900220CDE972
:102BF00012040720CDE914404FF09040FEF7C8FAC8
:102C0000002211462520FEF753FC2520FEF742FC4A
:102C100018B010BD003801400010024030B4D0F8A8
:102C20008830202B20D1E1B1DAB190F88030012B2F
:102C30001AD0012380F880300023C3660B4C036850
:102C4000A3420BD05B681B0208D5046854E8003F20
:102C500043F0806344E80035002DF6D130BC01F02C
:102C6000DDBA012030BC70470220FBE70080004045
:102C700030B4094A016891420CD1084A084C917855
:102C800053786354491C91700449012230BC491C9B
:102C9000FFF7C4BF30BC7047003801400C00002073
:102CA000B80100202DE9F8430446D0F884001F46FF
:102CB00016460D46202851D1DDB1D6B194F88000DA
:102CC00001284BD0012084F880004FF00008C4F8A0
:102CD0008C802120C4F884001834FEF783FBA6877B
:102CE0008146E68754F8100C183CB0F5805F03D09D
:102CF00004E00120BDE8F883206920B12E460025BC
:102D000084F8808010E00026FAE78021204601F058
:102D100011FBB8B9C6B116F8010B21688862B4F886
:102D20005600401EA4F85600B4F856004B464FF02B
:102D3000000200970028E8D14FF04001204601F042
:102D4000F9FA30B10320D5E735F8020BC0F30800DB
:102D5000E3E72020C4F884000020CBE70220C9E785
:102D60007047FEE700B585B014216846FDF788FA84
:102D70004FF6FF70009000200321CDE90201019081
:102D800069460248FEF704FA05B000BD0008004895
:102D900000B585B014216846FDF772FA4FF6FF7052
:102DA00000900120019003200390002002906946CA
:102DB0000248FEF7EDF905B000BD0000000800482C
:102DC00070B5002406462146204600F003F900F0C5
:102DD00041F94FF49635304600F010F9641CAC42CE
:102DE000F9D370BD30B587B014216846FDF748FAB5
:102DF0001E48C16C41F00401C164C16C01F00401C2
:102E00000591C16C41F00101C164C16C01F0010187
:102E10000591C16C41F00201C164C06C012500F054
:102E2000020005904FF44870CDE90005002403949A
:102E3000694602940E48FEF7ABF92802039400900D
:102E4000CDE901544FF0904469462046FEF7A0F9C1
:102E5000FFF79EFFA06940F48070A061044818301D
:102E6000016841F40871016007B030BD00100240F4
:102E700000040048203AD2B2034B02EB420203EBBB
:102E8000021200F019B800005C500008F0B50E46C0
:102E90000746002540F23F1407E021463846FFF779
:102EA000E9FF103C6D1CA4B2761C3278002A01D0D8
:102EB000142DF2D3F0BD00002DE9F04791468A466B
:102EC0000026044600F086F8DFF84080012700BFA6
:102ED00000F0C0F85FF0000539F8160007FA05F1B8
:102EE0000842404601D1408800E0008800F086F8A2
:102EF0006D1C102DF0D3641CE4B25146204600F046
:102F000069F8761C182EE3D3BDE8F0870000002096
:102F100010B5FFF767FF002000F014F8084CA08000
:102F2000A088A0F50241303906D000F0FFFA002059
:102F300000F008F8A08010BD00F06FFAF7E700007D
:102F40000000002070B51D490A6842F400720A6052
:102F50000A6842F480720A60184C103C226842F001
:102F600020022260164A1060086840F020000860C5
:102F700000BF00BF00BF206840F020002060206834
:102F800040F480702060FFF7EDFE4FF09041886ABA
:102F900040F48070886200BF00BF00BF0848001F77
:102FA000006885B2886940F480708861FFF7F0FEA0
:102FB000206840F400702060284670BD2804004856
:102FC0001408004801B5BDF800000149488008BD5B
:102FD0000000002010B50C460146202000F068F8E3
:102FE0002146BDE81040212000F062B801B5BDF8CF
:102FF00000000149088008BD00000020134A116844
:1030000041F400711160114910390B6843F4807369
:103010000B600B6843F020030B600D4B18601068C9
:1030200040F02000106000BF00BF00BF086840F003
:1030300020000860086840F48070086000BF00BF8E
:1030400000BF086840F4007008607047280400481A
:10305000140800481449086840F4007008600868C3
:1030600040F48070086010481038026842F0200276
:1030700002600E4B22221A600A6842F020020A60A7
:1030800000BF00BF00BF016841F02001016001687E
:1030900041F48071016000BF00BF00BF016841F4CE
:1030A00000710160704700002804004814080048BF
:1030B000184B10B51A6842F400721A601A6842F48C
:1030C00080721A60134A103A146844F020041460A5
:1030D000114C2060186840F02000186000BF00BF4D
:1030E00000BF106840F020001060106840F480704D
:1030F00010602160186840F02000186000BF00BF19
:1031000000BF106840F020001060106840F480702C
:10311000106010BD280400481408004800EB81002E
:10312000006E00F0F84070478068C0F3C000704740
:103130008068C0F380007047042303EAD15310B5C0
:1031400018444369C1F3045107248C40A3438A40C7
:103150001343436110BD00EB8100016E21F000417B
:10316000114301667047000030B589B020216846E0
:10317000FDF786F819481849002401604902C0E9A2
:103180000114C46004250461C0E90545047744774F
:103190000121016280F82440C462046380F8384051
:1031A000C46380F84040FDF7BBFD08B1FDF7A6FB06
:1031B0000B4800900620CDE901047F200594CDE95D
:1031C000030569460548FDF79BFB002801D0FDF784
:1031D00095FB09B030BD0000000100502400002024
:1031E0000080F03E2DE9F04F87B014216846FDF7CE
:1031F00047F83848C16C41F00401C164C16C01F06A
:1032000004010591C16C41F02001C164C16C01F061
:1032100020010591C16C41F00201C164C16C01F053
:1032200002010591C16C41F00101C164C16C01F062
:1032300001010591C16C41F00801C164C06CDFF867
:10324000988000F008004FF6FF7405900022214698
:103250004046FEF7C1F84FF480764FF090490022C7
:1032600031464846FEF7B8F8DFF870A00022042186
:103270005046FEF7B1F8DFF868B04FF44877002207
:1032800039465846FEF7A8F80125CDE90045002447
:103290000294694640460394FDF77AFF0096CDE913
:1032A0000154694648460394FDF772FF04200090DC
:1032B000CDE90154694650460394FDF769FF009734
:1032C000CDE90154694658460394FDF761FF07B004
:1032D000BDE8F08F0010024000080048000C0048D4
:1032E000000400481FB5002415480094019402947E
:1032F0001249039401604F21C0E901144FF6FF7198
:10330000C0E9031444618461FEF767FE08B1FDF76C
:10331000F5FA0B48FFF743F808B1FDF7EFFA012083
:10332000CDE9004002940022694605480394FEF767
:10333000A7FF002801D0FDF7E1FA1FBD00440140BE
:10334000DC00002010B588B00024174800940194D8
:1033500002940394049405941249069401604F2149
:10336000C0E9011442F20F71C0E903148461FEF751
:1033700034FE08B1FDF7C2FA4FF480500090694660
:103380000948FEF7E5FE08B1FDF7B8FA049404A970
:1033900005480694FEF7D2FD002801D0FDF7AEFAED
:1033A00008B010BD0004004090000020184810B57F
:1033B000164901604FF416514160002181600C22D2
:1033C000C160C0E904128161C16101624162816230
:1033D000FFF7A8FB08B1FDF791FA00210C48FFF7B1
:1033E00007FA08B1FDF78AFA00210948FFF7DAF970
:1033F00008B1FDF783FA0648FFF7B3F9002803D0B8
:10340000BDE81040FDF77ABA10BD00000038014059
:1034100028010020FEE77047704730B501210020E9
:10342000FFF746FE4FF47A70FDF75AFA00210120AB
:10343000FFF73EFE41F290711020FFF739FE4FF486
:103440001C516020FFF734FE01216120FFF730FEA0
:1034500002214620FFF72CFE48F210011320FFF74F
:1034600027FE48F2FE011220FFF722FE4FF4A06172
:103470000220FFF71DFE41F230010320FFF718FE86
:1034800040F2033421463020FFF712FE214631205E
:10349000FFF70EFE21463220FFF70AFEE51E294601
:1034A0003320FFF705FE03213420FFF701FE2146FC
:1034B0003520FFF7FDFD14213620FFF7F9FD2146E9
:1034C0003720FFF7F5FD21463820FFF7F1FD2146B3
:1034D0003920FFF7EDFD29463A20FFF7E9FD0321EA
:1034E0003B20FFF7E5FD21463C20FFF7E1FD4FF4CF
:1034F000A0513D20FFF7DCFD4FF400719220FFF753
:10350000D7FD21469320FFF7D3FD40F60D01902013
:10351000FFF7CEFD41F218010320FFF7C9FDBDE81A
:10352000304040F273110720FFF7C2BD10B543F2DF
:103530000801E320FFF7BCFD1221E720FFF7B8FDEB
:1035400041F23121EF20FFF7B3FD00210120FFF709
:10355000AFFD4FF4E0610220FFF7AAFD41F2300118
:103560000320FFF7A5FD00210420FFF7A1FD40F295
:1035700007210820FFF79CFD00210920FFF798FD97
:1035800000210A20FFF794FD00210C20FFF790FD99
:1035900000210D20FFF78CFD00210F20FFF788FD93
:1035A00000211020FFF784FD07211120FFF780FD87
:1035B00000211220FFF77CFD00211320FFF778FD8A
:1035C000C820FDF7D3FD41F290611020FFF770FD98
:1035D00040F227211120FFF76BFD3220FDF7C6FDD9
:1035E0001D211220FFF764FD3220FDF7BFFD4FF4CF
:1035F00000611320FFF75CFD14212920FFF758FD1F
:103600000B212B20FFF754FD3220FDF7AFFD0021E9
:103610002020FFF74DFD00212120FFF749FD072164
:103620003020FFF745FD40F207713120FFF740FDE4
:1036300006213220FFF73CFD40F204713520FFF7F0
:1036400037FD41F604713620FFF732FD04213720A3
:10365000FFF72EFD00213820FFF72AFD40F206710A
:103660003920FFF725FD40F201713C20FFF720FDD6
:103670000F213D20FFF71CFD00215020FFF718FD12
:10368000EF215120FFF714FD00215220FFF710FD1C
:1036900040F23F115320FFF70BFD4FF41C51602007
:1036A000FFF706FD01216120FFF702FD00216A20DE
:1036B000FFF7FEFC00218020FFF7FAFC00218120AB
:1036C000FFF7F6FC00218220FFF7F2FC00218320A7
:1036D000FFF7EEFC00218420FFF7EAFC00218520A3
:1036E000FFF7E6FC10219020FFF7E2FC002192207A
:1036F000FFF7DEFC03219320FFF7DAFC4FF488711B
:103700009520FFF7D5FC00219720FFF7D1FC002181
:103710009820FFF7CDFC41F218010320FFF7C8FC09
:10372000BDE8104040F273110720FFF7C1BC70479D
:10373000FDF75EBE00B593B038216846FCF7A0FDEA
:1037400014210EA8FCF79CFD4FF40070FDF7E2FE7B
:103750000220C1010391402104910090079008903C
:103760001421CDE909010B900C900D906846FEF7ED
:10377000C5F90F200E9003200F900020109011909B
:10378000129002210EA8FEF76FF813B000BD0000E2
:103790000548016841F47001016003494FF0006081
:1037A000803908607047000088ED00E00148FEF7AE
:1037B000BFBE0000DC0000200148FEF7B9BE0000DB
:1037C000900000202DE9F0430268234B234D244E46
:1037D000244C4FF08049984207D0484505D0A84274
:1037E00003D0B04201D0A04203D122F070074A6852
:1037F0003A431D4FDFF874C0DFF8748098420DD053
:1038000048450BD0A84209D0B04207D0A04205D00D
:10381000B84203D0604501D0404503D122F4407541
:10382000CA682A434D6922F080022A4302608A68EE
:10383000C2620A688262984207D0A04205D0B842AC
:1038400003D0604501D0404501D1096901630121E0
:103850004161BDE8F0830000002C014000040040FD
:103860000008004000340140004001400044014095
:103870000048014010B501F01F030121046A99407E
:103880008C430462016A9A401143016210BD10B575
:10389000846842EA032224F47F440A43224382607C
:1038A00010BD00008268034B1A400A4342F0070132
:1038B000816070478FFFCFFF10B5036A046A24F060
:1038C00001040462846924F0F00444EA021423F041
:1038D0000A020A438461026210BD000070B5046AE6
:1038E00024F0010404628469056A124EB0420ED0CD
:1038F000B0F1804F0BD0104EB04208D00F4EB04206
:1039000005D00F4EB04202D00E4EB04203D124F08B
:103910000304144301E044F001041A0724F0F00406
:1039200044EA126225F00A0301F00A011943826198
:10393000016270BD002C01400004004000080040FE
:10394000003401400040014010B5036A23F0100329
:1039500003628369046A23F4704343EA023224F069
:10396000A00343EA01118261016210BD30B5046A0F
:1039700024F0100404628469056A24F4407444EA63
:10398000022222F470444FF6FF7202EA033222430D
:10399000A02425F0A00304EA011119438261016209
:1039A00030BD000030B5416EB9B1026891689268CF
:1039B000C1F342610B4B520F9C5CE50003F108041C
:1039C000A25CB5FBF2F2A0F86A205A5C615CD200FE
:1039D000B2FBF1F1A0F8681030BD0121A0F86A1027
:1039E000F8E700005C62000890F82810C90706D0CC
:1039F00001684A68C36A22F400321A434A6090F8A8
:103A00002810890706D501684A68036B22F48032C2
:103A10001A434A6090F82810490706D501684A6899
:103A2000436B22F480221A434A6090F82810090759
:103A300006D501684A68836B22F400421A434A6043
:103A400090F82810C90606D501688A68C36B22F46D
:103A500080521A438A6090F82810890606D50168BA
:103A60008A68036C22F400521A438A6090F8281086
:103A7000490611D501684A68436C22F480121A4342
:103A80004A60416CB1F5801F06D101684A68836CB9
:103A900022F4C0021A434A6090F82810090606D59D
:103AA00001684A68C06C22F4002202434A607047F1
:103AB000F8B500260446C0F88C60FDF793FC054677
:103AC000206800686FF07E47000708D52B4600226B
:103AD0004FF400112046009700F02CFC60B92068DC
:103AE000006840070AD52B4600224FF4800120468B
:103AF000009700F01FFC08B10320F8BD2020C4F897
:103B00008400C4F8880044F86C6F00202675F8BD66
:103B100010B5806A0021A0F85E10A0F85610FEF7DC
:103B20008FFE10BD10B5026852E8001F21F490719D
:103B300042E80013002BF6D10E4B0268083252E81F
:103B4000001F194042E80014002CF6D1C16E012973
:103B500008D1016851E8002F22F0100241E800234B
:103B6000002BF6D12021C0F888100021C166016722
:103B700010BD0000FEFFFFEF10B5B0F86020D0F8D8
:103B800088300168222B04D0886940F008008861E1
:103B900010BD496A836D11401980816D891C816552
:103BA000B0F85E10491EA0F85E10B0F85E10002953
:103BB000EED1026852E8001F21F4907142E8001330
:103BC000002BF6D10168083151E8002F22F00102E4
:103BD00041E80023002BF5D12021C0F888100021F6
:103BE0000167C26E012A02D0FFF742F810BDC1661C
:103BF000026852E8001F21F0100142E80013002B78
:103C0000F6D10168CA69D243D20601D410220A62F1
:103C1000B0F85C10FEF7C4FD10BD00002DE9F047C0
:103C20000446B0F860600068C569D0F800A0D0F81C
:103C30000880D4F88810222905D0816941F0080154
:103C40008161BDE8F087B4F868704FF0000963E067
:103C50002068406AA16D30400880A06D801CA0657E
:103C6000B4F85E00401EA4F85E002068C5696907CC
:103C700030D0E9070AD05FEACA5107D501210162B5
:103C8000D4F88C0040F00100C4F88C00A8070BD5D4
:103C90005FEAC87008D0216802200862D4F88C005E
:103CA00040F00400C4F88C0068070BD55FEAC870C8
:103CB00008D0216804200862D4F88C0040F002008B
:103CC000C4F88C00D4F88C0020B12046FEF7B8FD73
:103CD000C4F88C90B4F85E00F0B9216851E8000F88
:103CE00020F4807041E80002002AF6D1264A2068BC
:103CF000083050E8001F114040E80013002BF6D1B7
:103D00002020C4F88800C4F87090E16E484601296C
:103D100023D02046FEF7ACFF0FB1A80698D4B4F824
:103D20005E0000288DD0B4F86810814289D92068DF
:103D3000083050E8001F21F0805140E80012002AAE
:103D4000F5D112482067206850E8001F41F020019B
:103D500040E80012002AF6D173E7E066216851E8D6
:103D6000000F20F0100041E80002002AF6D1206880
:103D7000C169C943C90601D410210162B4F85C10BD
:103D80002046FEF70DFDC7E7FEFFFFEF793B000879
:103D900010B5B0F86020D0F888300168222B04D02C
:103DA000886940F00800886110BD496A1140826D41
:103DB0001170816D491C8165B0F85E10491EA0F834
:103DC0005E10B0F85E100029EED1026852E8001FC4
:103DD00021F4907142E80013002BF6D101680831FC
:103DE00051E8002F22F0010241E80023002BF5D119
:103DF0002021C0F8881000210167C26E012A02D07C
:103E0000FEF736FF10BDC166026852E8001F21F0C0
:103E1000100142E80013002BF6D10168CA69D243B1
:103E2000D20601D410220A62B0F85C10FEF7B8FC8A
:103E300010BD00002DE9F0470446B0F8606000684E
:103E4000C569D0F800A0D0F80880D4F888102229DD
:103E500005D0816941F008018161BDE8F087B4F8BF
:103E600068704FF0000963E02068406AA16D30403F
:103E70000870A06D401CA065B4F85E00401EA4F858
:103E80005E002068C569690730D0E9070AD05FEA9B
:103E9000CA5107D501210162D4F88C0040F001001D
:103EA000C4F88C00A8070BD55FEAC87008D0216859
:103EB00002200862D4F88C0040F00400C4F88C00A2
:103EC00068070BD55FEAC87008D021680420086233
:103ED000D4F88C0040F00200C4F88C00D4F88C00B8
:103EE00020B12046FEF7ACFCC4F88C90B4F85E001C
:103EF000F0B9216851E8000F20F4807041E8000219
:103F0000002AF6D1264A2068083050E8001F1140E8
:103F100040E80013002BF6D12020C4F88800C4F834
:103F20007090E16E4846012923D02046FEF7A0FE9E
:103F30000FB1A80698D4B4F85E0000288DD0B4F86C
:103F40006810814289D92068083050E8001F21F0AC
:103F5000805140E80012002AF5D1124820672168FC
:103F600051E8000F40F0200041E80002002AF6D19D
:103F700073E7E066216851E8000F20F0100041E887
:103F80000002002AF6D12068C169C943C90601D4DC
:103F900010210162B4F85C102046FEF701FCC7E76F
:103FA000FEFFFFEF913D00082DE9F0410446016856
:103FB00080682269E3691043626900251A4310434F
:103FC000DFF82CC20A688B4B1A4002430A60206853
:103FD0004168E26821F44051114341602168A069C1
:103FE000614501D0226A10438A68834B1A4002431C
:103FF0008A602068C16A626A21F00F011143C162C0
:104000007E4923687E488B420DD1D0F8880010F09D
:10401000030006D0012855D0022842D003283FD102
:1040200052E001203DE077498B420BD1D0F8880067
:1040300010F00C0035D0042833D0082840D00C28CC
:104040002ED141E070498B420BD1D0F8880010F09E
:10405000300026D0102835D0202831D030281FD16C
:1040600032E06A498B420BD1D0F8880010F0C000D2
:1040700017D0402826D0802822D0C02810D123E095
:1040800063450DD1D0F8880010F4406009D0B0F538
:10409000806F17D0B0F5006F12D0B0F5406F13D01D
:1040A00010205B495B4F00264FF4004263453BD133
:1040B00060B1022813D004280BD0082872D10DE07B
:1040C0000220EEE70420ECE70820EAE7FDF7BAFC5F
:1040D00001E0FDF7DBFC010001D17CE01146606AE4
:1040E00037F810206768B1FBF2F007EB4703834213
:1040F00070D8B0EB073F6DD8002308461946FCF78F
:1041000087F8090241EA106102027808101871412B
:104110003A460023FCF77CF83F4AA0F540719142F3
:1041200058D82168C86056E0E3694FF6EF789342AB
:104130002CD109284ED2DFE800F00508114D0D4DB5
:104140004D4D1000FDF77EFC01E0FDF78DFC0100F8
:1041500004D140E0FDF79AFCF9E71146606A37F8B0
:104160001000B1FBF0F04100606801EB5001B1FBC1
:10417000F0F0A0F1100141452CD84FF6F07101404C
:10418000C0F3420001432068C16024E0092821D225
:10419000DFE800F0050912200E2020201100FDF7B5
:1041A00051FC02E016E0FDF75FFC010004D112E0D3
:1041B000FDF76CFCF9E71146606A37F81000B1FBB7
:1041C000F0F1606801EB5001B1FBF0F0A0F11001DB
:1041D00041450AD901250120A4F86A0024F8680F96
:1041E0002846A660E660BDE8F08180B299E700004D
:1041F00000800040F369FFCFFFF4FF110038014059
:10420000001002400044004000480040004C0040C4
:104210000024F40044620008FFFC0F0070B58165C3
:10422000A0F85C20A0F85E200021016783684FF4AD
:104230008055FF24AB4204D10369FBB940F2FF1360
:1042400022E07F26C3B1B3F1805F1AD0A0F86010DE
:10425000C0F88C102223C0F888300368083353E874
:10426000004F44F0010443E80046002EF5D1436EB0
:10427000B3F1005F0ED032E0036943B9A0F86040AB
:10428000E6E703691BB13F23A0F86030E0E7A0F840
:104290006060DDE7B0F86830934220D88268AA42B7
:1042A00001D10269CAB11F4A026780F88010016912
:1042B00041B1026852E8001F41F4807142E80013E6
:1042C000002BF6D10168083151E8002F42F08052EE
:1042D00041E80023002BF5D121E0134AE4E782688E
:1042E000AA4201D102697AB1104A026780F88010AF
:1042F000016959B1026852E8001F41F4907142E827
:104300000013002BF6D10AE0094AEEE7026852E8F2
:10431000001F41F0200142E80013002BF6D10020DD
:1043200070BD0000353E00081D3C0008913D0008AE
:10433000793B00082DE9F0479A4617460E46044699
:104340004FF000094FF02008089D4AE0681C48D053
:10435000FDF748F8A0EB0A00A8422AD84DB3206820
:10436000016849073DD5C069C043000539D42168BB
:104370004FF400600862206850E8001F21F4D071FB
:1043800040E80012002AF6D12068083050E8001FEB
:1043900021F0010140E80012002AF5D144F8848F91
:1043A000C4F80480C4F8088004F8049C0320BDE825
:1043B000F087216851E8000F20F4D07041E8000236
:1043C000002AF6D12068083050E8001F21F00101D2
:1043D00040E80012002AF5D144F8848FC4F8048024
:1043E000E2E72068C06936EA000004D00020B84245
:1043F000ACD00020DBE70120F9E700000148FEF720
:1044000021BA000028010020FEE700000FB4084B8D
:1044100010B504A902AA039800F0EEF8044602A918
:10442000002000F080FC204610BC5DF814FB00006A
:10443000274D00080907090E002804DB00F1E020E1
:1044400080F80014704700F00F0000F1E02080F8C1
:10445000141D704702E008C8121F08C1002AFAD1D3
:1044600070477047002001E001C1121F002AFBD1F4
:10447000704700002DE9FF5F82B00021DDE90430C4
:10448000020DDDF840B0034318D044F61050A2F2FC
:10449000FF3242431514119801281FD0A5EB0B00E1
:1044A000401C5FEA000A4FF000064E4FDFF83891DB
:1044B000B046504615D5CAF1000413E01198012406
:1044C0004AA3012801D16FEA0B010298119AC0E9B1
:1044D0000031C0E9024206B0BDE8F09FCBF1000018
:1044E000DFE704460021404A491842EB0450CDE979
:1044F000001012E0E00707D032463B4640464946EE
:10450000FBF7D0FE8046894632463B4610461946A8
:10451000FBF7C8FE06460F466410002CEAD1DDE921
:104520000401DDE90023BAF1000F06DAFBF7BAFE59
:1045300042464B46FBF7B6FE05E0FCF7D1F8424693
:104540004B46FCF7CDF804460E460022284BFCF7FC
:104550004FF903D84FF0FF30014607E00022254B0A
:1045600020463146FCF715F8FCF729F9102409E03C
:10457000002C0ADB0A220023FBF74AFE039B3032A1
:104580001A55641E50EA0102F2D1641C039AC4F168
:1045900011031444119A012A03D0012208430DD1BA
:1045A0000AE0084304D000204FF0110B119072E78D
:1045B000A3EB0B056D1E0DE05B4504DD4FF0000223
:1045C00005F1010504E003DA4FF00002A5F1010551
:1045D000002AECD002981199C0E90231C0E90045E7
:1045E00079E70000000014400000F03F30000000B8
:1045F0000000F0430000E03F2DE9FF4F95B09B46DF
:104600008946064600250FE2252877D10024274653
:10461000F84A0121059400E0044316F8013F203BCD
:1046200001FA03F01042F7D130782A2811D06FF048
:104630002F033078A0F13002092A16D8059A44F0E9
:10464000020402EB820203EB42021044761C059046
:10465000EFE759F8042B0592002A03DA504244F49C
:104660000054059044F00204761C30782E2816D1B0
:1046700016F8010F44F004042A280DD06FF02F0221
:104680003078A0F13003092B09D807EB870302EB40
:104690004303C718761CF3E759F8047B761C30787F
:1046A0006C280FD006DC4C2817D068280DD06A285B
:1046B00014D104E0742810D07A280FD10DE044F40E
:1046C00000140AE044F4801401E044F440147278C9
:1046D000824202D104F58014761C761C307866285C
:1046E0000BD013DC582877D009DC002875D045287A
:1046F000F6D04628F4D047281AD19DE118E0632867
:1047000035D0642879D0652812D195E1702873D00E
:1047100008DC6728F1D069286FD06E280DD06F288B
:1047200006D1B5E073282CD0752875D0782874D0C0
:104730005A46179990476D1C75E1C4F30250022840
:1047400009D003280DD0D9F8001004280DD00D6031
:1047500009F1040967E1D9F80010EA17C1E900522C
:10476000F6E7D9F800100D80F2E70D70F0E719F8C0
:10477000041B8DF8001000208DF80100EA4601208E
:1047800003E059F804AB4FF0FF3061074FF0000130
:1047900002D40DE008F101018846B9420FDA8045E4
:1047A000F8DB1AF808100029F4D108E008F101013B
:1047B00088468142FADB1AF808100029F6D10598DC
:1047C0005B46A0EB080721463846179A00F094FA9A
:1047D000284400EB080507E04DE029E10DE01AF858
:1047E000010B5A4617999047B8F10108F7D25B467A
:1047F00021463846179A13E142E00A220092C4F398
:1048000002524FF0000A022A08D059F804CB032ABA
:104810004FEAEC710AD00DE029E02AE009F1070126
:1048200021F00702F2E802C1914609E00FFA8CFC80
:104830004FEAEC71042A03D14FFA8CFC4FEAEC7179
:10484000002907DA0A460021DCF1000C61EB0201C5
:104850002D2202E0220504D52B228DF8042001220E
:1048600003E0E20701D02022F7E7904659E00A2151
:1048700002E010220DE010214FF0000A00910BE041
:1048800010224FF0000A44F004040827009203E0CD
:1048900008224FF0000A0092C4F30252022A05D007
:1048A00059F804CB0021032A08D009E009F10701D7
:1048B00021F00702F2E802C1914605E01FFA8CFCE4
:1048C000042A01D10CF0FF0C4FF00008220728D574
:1048D000702806D0009B83F0100353EA0A0305D02A
:1048E0000EE040228DF80420012208E05CEA01027B
:1048F00006D030228DF804208DF805000222904663
:10490000009B83F0080353EA0A030AD15CEA010220
:1049100001D1620705D530228DF804204FF001083F
:104920007F1E582804D034A003900EA802900DE0FA
:1049300036A0F9E753466046009AFBF769FC8446C7
:104940000398825C0298401E029002705CEA0100AB
:10495000F0D1029806A9081A00F1200A600702D5D2
:1049600024F4803400E00127574502DDA7EB0A005C
:1049700000E0002000EB0A01009005984144401A35
:104980000590E00306D45B462146179A059800F08F
:10499000B3F90544002706E001A85A46C05D1799FF
:1049A00090476D1C7F1C4745F6DBE0030CD55B464A
:1049B0002146179A059800F09FF9054404E030203D
:1049C0005A46179990476D1C0099481E009000297F
:1049D000F5DC08E0029802995A460078491C0291D9
:1049E000179990476D1CBAF10001AAF1010AF1DC98
:1049F00065E10000092801003031323334353637A3
:104A0000383961626364656600000000303132331A
:104A100034353637383941424344454600000000BA
:104A200000F058F90544761C307800287FF4ECAD8E
:104A300019B02846BDE8F08F620700D4062709F1B7
:104A4000070222F0070CFCE80223E14603F00048CD
:104A50005FEA080C02D00FF2702C0DE05FEA045CF4
:104A600002D50FF2682C07E05FEAC47C02D00FF297
:104A7000602C01E0AFF2700C4FF0FF3823F00043E0
:104A8000CDF850C065280CD006DC452809D0462852
:104A90001DD047283DD13DE0662818D067287ED13B
:104AA00038E00021112F01DB112000E0781CCDE956
:104AB000000106A90EA8FFF7DDFCDDE90F010E9A43
:104AC00003910021009207F1010A04914DE04FF09B
:104AD00000400097CDE9011006A90EA8FFF7CAFC17
:104AE000DDE90F0203920E9B11990022DDF80CA064
:104AF0000093049211B9791C00EB010AB7EB0A008C
:104B000004D4C0F1FF3007F1010A0490AAEB0700BA
:104B1000019044E0012F00DA01270021112F01DD6F
:104B2000112000E03846CDE9000106A90EA8FFF7E4
:104B3000A1FCDDE90F010E9A03910021049100927E
:104B4000BA4621070CD40399514500DA8A46BAF1D6
:104B5000010F05DD009AAAF10101515C302908D04E
:104B6000B84202DA10F1040F06DA0121CDE9011092
:104B700015E0AAF10101E9E7002805DC04990144E8
:104B80000491AAEB000102E0411C514500DD8A4678
:104B90000499401A401C01904FF0004002902007F9
:104BA00004D40198504501DBCDF8048000208DF835
:104BB0004F0002980DF14F07B0F1004F25D02B2088
:104BC0000E9002984FF0020800280CDA4042029042
:104BD0002D200E9007E00A210298FBF711FC3031DE
:104BE000029007F8011DB8F10001A8F10108F2DCFC
:104BF00002980028EFD1791E0E980870307800F0E6
:104C0000200040F0450007F8020D12A8C01B00F17B
:104C100007081498007800B1012000EB0A01019800
:104C200001EBE07105984144401A401E0590E003F5
:104C300006D45B462146179A059800F05DF80544B6
:104C40001498007818B15A46179990476D1CE003E4
:104C500024D55B462146179A059800F04DF8054487
:104C60001CE00498002807DBDDE90301884203DD2E
:104C70000098405C179901E0179930205A469047F8
:104C8000049805F10105401C04900198401E019014
:104C900004D12E205A46179990476D1CBAF1000195
:104CA000AAF1010ADDDC05E017F8010B5A46179955
:104CB00090476D1CB8F10001A8F10108F4DC5B46D7
:104CC0002146179A0598ABE62D0000002B00000046
:104CD000200000002DE9F041044600251E4617463D
:104CE000880404D405E039462020B0476D1C641EBA
:104CF000F9D52846BDE8F0812DE9F04104460025AC
:104D00001E469046C80301D5302700E020278804BE
:104D100004D505E041463846B0476D1C641EF9D500
:104D20002846BDE8F0810A68531C0B60107070477C
:104D300000B585B018A16846FFF768FB69461820E2
:104D4000FEF7A4F8184800F04BF810EE100AFBF735
:104D500028FB41EC100B15A153EC102B6846FFF714
:104D600055FB69464820FEF791F8144814A10288C3
:104D70006846FFF74BFB69466020FEF787F814484A
:104D800014A102786846FFF741FB69467820FEF7D8
:104D90007DF805B000BD00002020202020444154B3
:104DA0004120202020000000240000202020205648
:104DB0003A252E32665620202020000012000020C6
:104DC000202020463A2564487A2020202000000038
:104DD000060000202020204E3A25642020202000BC
:104DE00010B50446FCF7D6F82046FBF795FFFBF715
:104DF000CBFA9FED081B53EC112BFBF753FA9FEDF9
:104E0000071B53EC112BFBF74DFAFBF7DDFA00EE15
:104E1000100A10BD6666666666660A4000000000FD
:104E20000000303F10B502464FF480710748FCF790
:104E3000D3FA074C012204212046FCF7CDFA204684
:104E40000022BDE810400421FCF7C6BA0008004863
:104E5000000C004810B502464FF400710748FCF7FB
:104E6000BBFA074C012204212046FCF7B5FA204684
:104E70000022BDE810400421FCF7AEBA000800484B
:104E8000000C004810B501224FF47F410748FCF7A1
:104E9000A3FA074C012204212046FCF79DFA204684
:104EA0000022BDE810400421FCF796BA0008004833
:104EB000000C004810B5FFF7E5FF0748007880F0C8
:104EC0000100FFF7AFFF05484078BDE8104080F0D3
:104ED0000100FFF7BFBF00000C000020060000200B
:104EE000FCF78EFAFEF726FCFEF77CF9FEF73CF99C
:104EF000FEF7F8F9FEF75AFAFEF724FAFEF708F87B
:104F000000211348FDF77EFA012212491248FDF7ED
:104F100085FE1248FDF7E0F80020FDF751FF002064
:104F2000FEF750F84FF6FF70FEF760F80C4C00BF2C
:104F3000FFF7FEFE25783DB10120FCF717F9207838
:104F4000854201D100F00EF8FFF7B4FFF0E7000052
:104F5000DC0000200D00002028010020900000202F
:104F60000E0000202DE9F041DFF8B480002588B064
:104F700098F80000012816D02AA16846FFF746FAE3
:104F80006846FBF788F982B2322369462748FDF765
:104F900089FE00BF88F8005008B01E21BDE8F0412E
:104FA0002348FBF76DB922480126224C0078224F96
:104FB000402810D023281ED01AA16846FFF726FAF1
:104FC0006846FBF768F982B2322369461748FDF755
:104FD00069FE6670DEE71948FFF702FF10EE100A5F
:104FE000FBF7DFF941EC100B15A153EC102B6846D1
:104FF000FFF70CFA05E0154815A102886846FFF78F
:1050000005FA6846FBF747F982B23223694607483A
:10501000FDF748FE2078401C20703E706570B9E7AF
:105020000E0000206572726F720D0A0028010020C8
:10503000B8010020060000200C0000202400002001
:10504000563A252E3266560D0A0000001200002046
:10505000463A2564487A0D0A00000000000000006E
:105060000000000000000000000000000000000040
:105070000000000000000000000000000000000030
:10508000000000000000000000000000000080019F
:105090008001800180018001800180018001800108
:1050A00080018001800180010000000080018001FA
:1050B00000000000000000000000000000000000F0
:1050C000CC00CC00CC00CC00CC00CC000000000018
:1050D00000000000000000000000000000000000D0
:1050E00000000000000000000000000000000000C0
:1050F0000000000000000000600C600C600C300636
:105100003006FE1FFE1F300638071803FE1FFE1F65
:10511000180318038C018C018C0100000000800032
:10512000E003F80F9C0E8C1C8C188C009800F80182
:10513000E007800E801C8C188C189C18B80CF00F9F
:10514000E00380008000000000000000000000007C
:1051500000000E181B0C110C11061106110311038F
:105160009B018E01C038C06C6044604430443044C0
:105170001844186C0C380000000000000000E0012A
:10518000F0033807180618063003F001F000F800A5
:105190009C310E33061E061C061C063FFC73F021D4
:1051A00000000000000000000000000000000000FF
:1051B0000C000C000C000C000C000C0000000000A7
:1051C00000000000000000000000000000000000DF
:1051D00000000000000000000000000000000002CD
:1051E00000038001C000C00060006000300030009B
:1051F00030003000300030003000300060006000CF
:10520000C000C00080010003000200000000200078
:105210006000C0008001800100030003000600065A
:105220000006000600060006000600060003000354
:1052300080018001C000600020000000000000002C
:105240000000000000000000C000C000D806F80701
:10525000E0013003380700000000000000000000FB
:10526000000000000000000000000000000000003E
:10527000000000000000000080018001800180012A
:105280008001FC3FFC3F80018001800180018001A2
:10529000000000000000000000000000000000000E
:1052A00000000000000000000000000000000000FE
:1052B000000000000000000000000000000080016D
:1052C00080010001000180000000000000000000DB
:1052D00000000000000000000000000000000000CE
:1052E00000000000E007E0070000000000000000F0
:1052F00000000000000000000000000000000000AE
:10530000000000000000000000000000000000009D
:105310000000000000000000000000000000C000CD
:10532000C000000000000000000000000000000CB1
:10533000000C0006000600060003000300038003C3
:10534000800180018001C000C000C00060006000DA
:105350000000000000000000000000000000E0036A
:10536000F007380E180C0C180C180C180C180C1828
:105370000C180C180C180C18180C380EF007E00359
:10538000000000000000000000000000000000011C
:105390008001C001F0019801880180018001800135
:1053A00080018001800180018001800180018001F5
:1053B0000000000000000000000000000000E0030A
:1053C000F80F180C0C180C1800180018000C000628
:1053D00000038001C000600030001800FC1FFC1FAB
:1053E0000000000000000000000000000000E001DC
:1053F000F807180E0C0C0C0C000C0006C003C007BC
:10540000000C001800180C180C18180CF807E00312
:105410000000000000000000000000000000000C80
:10542000000E000F000F800DC00C600C600C300CE3
:10543000180C0C0CFC3FFC3F000C000C000C000C8A
:105440000000000000000000000000000000F80F55
:10545000F80F180018000C00EC03FC071C0E001CD1
:105460000018001800180C181C0C180EF807E003A0
:105470000000000000000000000000000000C00765
:10548000F00F381C181818000C00CC03EC0F3C0E61
:105490001C1C0C180C180C18181C380EF007E00314
:1054A0000000000000000000000000000000FC1FE1
:1054B000FC1F000C00060006000380038001C001F1
:1054C000C000E0006000600070003000300030007C
:1054D0000000000000000000000000000000E003E9
:1054E000F007380E180C180C180C3806F007F007E7
:1054F000180C0C180C180C180C18380CF80FE003CA
:105500000000000000000000000000000000E003B8
:10551000F007380E1C0C0C180C180C181C1C381E2C
:10552000F81BE0190018000C000C1C0EF807F00125
:10553000000000000000000000000000000000006B
:105540000000000000000000800180010000000059
:105550000000000000000000000000008001800149
:10556000000000000000000000000000000000003B
:105570000000000000000000800180010000000029
:105580000000000000000000000000008001800119
:105590000001000180000000000000000000000089
:1055A0000000000000000000000000000010001CCF
:1055B000800FE003F8001800F800E003800F001CE3
:1055C00000100000000000000000000000000000CB
:1055D000000000000000000000000000F81F0000B4
:1055E00000000000F81F00000000000000000000A4
:1055F00000000000000000000000000000000000AB
:10560000000000000000000000000000080038005A
:10561000F001C007001F0018001FC007F00138008C
:105620000800000000000000000000000000E0038F
:10563000F80F180C0C180C180018000C00060003CA
:105640008001C000C000C00000000000C000C00019
:10565000000000000000000000000000000000004A
:10566000E00718180420C229224A114409440944B9
:10567000094409221113E20C024004201818E00723
:105680000000000000000000000000000000800397
:105690008003C006C006C006600C600C30183018CD
:1056A0003018F83FF83F1C700C600C6006C006C054
:1056B0000000000000000000000000000000FC03EB
:1056C000FC0F0C0C0C180C180C180C0CFC07FC0F25
:1056D0000C180C300C300C300C300C18FC1FFC0774
:1056E0000000000000000000000000000000C007F3
:1056F000F01F38381C300C700660060006000600EB
:1057000006000600060006600C701C30F01FE00763
:105710000000000000000000000000000000FE0388
:10572000FE0F060E06180618063006300630063044
:1057300006300630063006180618060EFE0FFE0369
:105740000000000000000000000000000000FC3F1E
:10575000FC3F0C000C000C000C000C00FC1FFC1F9C
:105760000C000C000C000C000C000C00FC3FFC3F7B
:105770000000000000000000000000000000F83FF2
:10578000F83F18001800180018001800F81FF81F3C
:105790001800180018001800180018001800180049
:1057A0000000000000000000000000000000E00F0A
:1057B000F83F3C780E6006E007C00300030003FEDC
:1057C00003FE03C007C006C00EC03CF0F83FE00F68
:1057D00000000000000000000000000000000C308D
:1057E0000C300C300C300C300C300C30FC3FFC3FDB
:1057F0000C300C300C300C300C300C300C300C30C9
:105800000000000000000000000000000000800117
:105810008001800180018001800180018001800180
:105820008001800180018001800180018001800170
:105830000000000000000000000000000000000662
:105840000006000600060006000600060006000628
:10585000000600060006180618063807F003E001E7
:105860000000000000000000000000000000063002
:105870000618060C060606038601C60066007600BA
:10588000DE008E0106030606060C061806300660CA
:1058900000000000000000000000000000001800F0
:1058A0001800180018001800180018001800180038
:1058B000180018001800180018001800F81FF81F2A
:1058C00000000000000000000000000000000EE0EA
:1058D0001EF01EF01EF036D836D836D836D866CC34
:1058E00066CC66CCC6C6C6C6C6C6C6C686C386C392
:1058F00000000000000000000000000000000C306C
:105900001C303C303C306C306C30CC30CC308C3186
:105910000C330C330C360C360C3C0C3C0C380C3075
:105920000000000000000000000000000000E00790
:10593000F81F1C380E70066003C003C003C003C00C
:1059400003C003C003C006600E701C38F81FE007D8
:105950000000000000000000000000000000FC0F3C
:10596000FC1F0C380C300C300C300C300C18FC1FA9
:10597000FC070C000C000C000C000C000C000C00D0
:105980000000000000000000000000000000E00730
:10599000F81F1C380E70066003E003C003C003C08C
:1059A00003C003C007E006630E3F1C3CF83FE0F76E
:1059B00000C0000000000000000000000000FE0F1A
:1059C000FE1F06380630063006300638FE1FFE077A
:1059D00006030606060C0618061806300630066092
:1059E0000000000000000000000000000000E003D4
:1059F000F80F1C0C0C180C180C001C00F803E00F1E
:105A0000001E0038063006300E301C1CF80FE00770
:105A10000000000000000000000000000000FE7F09
:105A2000FE7F800180018001800180018001800172
:105A3000800180018001800180018001800180015E
:105A400000000000000000000000000000000C301A
:105A50000C300C300C300C300C300C300C300C3066
:105A60000C300C300C300C300C301818F81FE007DC
:105A700000000000000000000000000000000360C3
:105A80000630063006300C180C180C18180C180CC0
:105A9000380E30063006700760036003C001C00195
:105AA0000000000000000000000000000000036093
:105AB000C361C361C361663366336633663366337D
:105AC00066336C1B6C1B6C1B2C1A3C1E380E380E7C
:105AD00000000000000000000000000000000FE0D7
