:020000040800F2
:1000000028060020ED0100085F2C00085F2500088D
:100010005D2C0008A7070008CD3E00080000000086
:10002000000000000000000000000000772F000822
:10003000A907000800000000612C0008792F0008C3
:10004000070200080702000807020008070200086C
:10005000070200080702000807020008070200085C
:10006000070200080702000807020008070200084C
:10007000070200080702000807020008070200083C
:10008000070200080000000007020008070200083D
:10009000070200080702000807020008070200081C
:1000A000070200080702000807020008070200080C
:1000B00007020008F52F00080702000807020008E1
:1000C00007020008070200080702000807020008EC
:1000D00007020008C13E00080702000807020008E6
:1000E00007020008070200080702000807020008CC
:1000F00007020008070200080702000800000000CD
:1001000000000000070200080000000007020008CD
:1001100007020008000000000702000807020008AC
:10012000070200080702000807020008070200088B
:10013000070200080000000000000000070200089D
:10014000070200080702000800000000000000008D
:10015000000000000000000000000000000000009F
:10016000000000000000000000000000070200087E
:10017000070200080000000000000000000000006E
:10018000000000000702000800000000000000005E
:10019000000000000000000000000000000000005F
:1001A000000000000000000007020008070200082D
:1001B000070200080702000807020008000000000C
:1001C000000000000702000800000000000000001E
:1001D0000702000807020008DFF80CD000F062FAFE
:1001E00000480047594E000828060020064880476E
:1001F00006480047FEE7FEE7FEE7FEE7FEE7FEE70C
:10020000FEE7FEE7FEE7FEE7D92F0008D901000868
:100210002DE9F05F0546002092469B46884606463B
:10022000814640241BE0284641464746224600F0CE
:1002300071F853465A46C01A914110D311461846D8
:10024000224600F058F82D1A67EB01084F46224667
:100250000120002100F04FF817EB00094E41201E4D
:10026000A4F10104DFDC484631462A464346BDE896
:10027000F09FD2B201E000F8012B491EFBD270477B
:100280000022F6E710B513460A4604461946FFF762
:10029000F0FF204610BD421C10F8011B0029FBD1C5
:1002A000801A704700F0004230F000400AD0C10DC3
:1002B00001F56071C0F3160042EA0151C20840071F
:1002C0001143704700200146704730B50B46014688
:1002D00000202022012409E021FA02F59D4205D3E5
:1002E00003FA02F5491B04FA02F52844151EA2F18F
:1002F0000102F1DC30BD202A04DB203A00FA02F1D1
:10030000002070479140C2F1200320FA03F3194303
:1003100090407047202A04DB203A21FA02F00021A5
:10032000704721FA02F3D040C2F120029140084305
:10033000194670472DE9FE4F804681EA0300C00F41
:100340000C46009021F0004123F00045B8EB02007C
:10035000A94105D24046214690461C460B4602461E
:1003600023F00040104347D0270DC7F30A00C3F322
:100370000A510290401A019040286BDAC3F313002F
:1003800040F4801B0098924620B10023D2EB030A70
:1003900063EB0B0B01985946C0F140025046FFF742
:1003A000AAFF06460D4650465946019A00F08CF9C0
:1003B00010EB08006141002487EA115284EAE773D8
:1003C0001A4340D0009A62B3019A012A4FEA0752B9
:1003D00015DC001B61EB02014FF0004202EA0752FC
:1003E000CDE90042001C41F5801132462B4600F059
:1003F0008CF903B0BDE8F08F40462146F9E7001BB9
:1004000061EB0201001C41F5801300185B412018CC
:10041000A2F5001747EB030140EAD570B6196D410C
:1004200011E06D084FEA360645EAC0754FEA0752FB
:10043000001B61EB0201001C41F5801149084FEAE5
:1004400030000019514132462B4603B0BDE8F04F51
:1004500000F04CB90098012240000023D0EB0202CA
:1004600063EBE073009821464FEAE074B8EB0000BC
:1004700061EB0401E9E783F000435BE781F00041B1
:1004800058E72DE9FE4F81EA030404F0004421F00F
:10049000004100944FF0000B23F0004350EA0104A8
:1004A0005ED052EA03045BD0C3F30A54C1F30A5589
:1004B0002C44A4F2F3340194A0FB0254C1F31301C1
:1004C00041F48011C3F3130343F4801301FB02448E
:1004D00000FB034E840A970A44EA815447EA835793
:1004E000A4FB076802958D0A05FB07854FEA932C4C
:1004F00004FB0C542705029D4FEA065847EA1637BD
:10050000B5EB08056EEB070C870E920E47EA8117D4
:1005100042EA8312A7FB0201B6EB0B0164EB000475
:100520002B0D43EA0C335E1844EB1C50DA4651465F
:10053000E7FB0201C5F313044FEA0B3343EA1453FC
:100540004FEA0432019C43EA0603A4F10C0402942E
:10055000009CCDE900B400F0D8F803B0BDE8F08FFE
:1005600000200146F9E72DE9F04D81EA030404F08B
:10057000004B21F0004514464FF0000A23F00041E3
:1005800050EA050220D054EA01021DD0C5F30A57F3
:100590000246C5F31303C1F31300C1F30A5640F436
:1005A000801543F48013A7EB0608101BD64608F20B
:1005B000FD3873EB050002D308F1010801E0921841
:1005C0005B41B8F1000F03DA00200146BDE8F08D71
:1005D00000204FF48011064684460EE0171B73EB93
:1005E000050705D3121B63EB050306434CEA010C18
:1005F00049084FEA300092185B4150EA0107EDD1FB
:1006000052EA030012D082EA040083EA050108439B
:1006100005D0101BAB4106D20122002306E00022C8
:100620004FF0004302E06FF0010253101AEB060096
:100630004CEB085110EB0A0041EB0B01BDE8F04D0B
:1006400000F054B8C1F30A52C1F3130140F2FF3372
:1006500041F480119A4202DA00200146704740F2CC
:1006600033439A42A2F2334202DC5242FFF752BEB7
:10067000FFF741BE30B5041E71F1000404DB4FF0FA
:100680000044404264EB0101141E73F1000405DBD9
:100690001C464FF00043524263EB0403994208BFEB
:1006A000904230BD064C074D06E0E06840F0010383
:1006B00094E8070098471034AC42F6D3FFF790FD5A
:1006C0005862000878620008202A06DBCB17203A1F
:1006D00041FA02F043EAE07306E041FA02F3D04047
:1006E000C2F12002914008431946704710B5141E0C
:1006F00073F1000408DA401C41F1000192185B41DB
:100700001A4301D120F0010010BD2DE9F04D9246B1
:100710009B4611B1B1FA81F202E0B0FA80F22032C8
:100720009046FFF7E8FD04460F4640EA0A0041EA1A
:100730000B0153465A46084313D0114653EA0100B1
:1007400019D0C8F140025046FFF7E4FD05460E46B9
:10075000504659464246FFF7CEFD084305D00120DA
:1007600004E020463946BDE8F08D0020054346EA06
:10077000E0762C4337430A986305E40AA0EB0800AF
:100780000022FD0A44EA47540A3002D500200146FF
:10079000E9E7010510196941DDE9084500196941DA
:1007A000BDE8F04DA2E7FEE77047002240F6B833FF
:1007B00006E00021491C89B29942FBD3521C92B237
:1007C0008242F6D37047704710B590F8253000216B
:1007D0000122022B03D00421C163012122E003681E
:1007E0001C6824F00E041C60836C1C6824F4807464
:1007F0001C6003681C6824F001041C6090F84430FD
:10080000046C03F01F0302FA03F36360D0E91334AE
:100810005C60436D33B11C6824F480741C60D0E9C3
:1008200016345C6080F82520002280F824200846D9
:1008300010BD70B590F82520002401212346022A1E
:1008400007D00422C26380F8251080F824300124E8
:1008500029E00268156825F00E0515600268156824
:1008600025F001051560826C156825F4807515600A
:1008700090F84420056C02F01F0201FA02F26A604F
:10088000D0E913255560426D32B1156825F48075A5
:100890001560D0E91625556080F8251080F82430C1
:1008A000816B01B18847204670BD000070B50446D9
:1008B00000F03CF90546601C02D00448406804443E
:1008C00000F034F9401BA042FAD370BD480000206C
:1008D0002DE9F04FDFF82092002301260324A9F12F
:1008E000040B85B00F2709F1040AABF1040EFAE0FE
:1008F00006FA03F52A407CD091F804C00CF0030CF2
:10090000BCF1010F02D0BCF1020F26D1D0F808C013
:10091000CDF800C04FEA430C04FA0CF8CDF810C033
:10092000DDF800C02CEA080CCDF800C0D1F80C802E
:10093000DDF810C008FA0CF8DDF800C048EA0C0831
:10094000C0F80880D0F804C02CEA050C0D79C5F376
:1009500000159D4045EA0C0545600D79ED43AD0756
:100960000ED0C5684FEA430804FA08FC25EA0C05D6
:10097000D1F808C00CFA08FC4CEA050CC0F80CC011
:100980000D7905F00305022D16D1DD0800EB850C6D
:10099000CDF808C0DCF820805D074FEAD56C07FA77
:1009A0000CF528EA05080D6905FA0CF5DDF808C014
:1009B00045EA0805CCF8205005684FEA430CCDF80D
:1009C00008C004FA0CFC25EA0C0591F804C00CF0F0
:1009D0000308DDF808C008FA0CF848EA0508C0F872
:1009E00000804D6815F4403F7CD0444DD5F860C080
:1009F00000E077E04CF0010CC5F860C02D6E23F0EC
:100A0000030C05F0010500953D4D65440295AD6868
:100A10004FEA837C4FEA1C7807FA08FC25EA0C05AC
:100A2000B0F1904F06D0DFF8DCC0604505D14FF043
:100A3000010C20E04FF0000C1DE0DFF8CCC0604559
:100A400002D14FF0020C16E0DFF8C0C0604502D1C1
:100A50004FF0030C0FE0DFF8B8C0604502D14FF053
:100A6000040C08E0DFF8ACC0604502D14FF0050C83
:100A700001E04FF0060C0CFA08FC4CEA050C029D54
:100A8000C5F808C0D9F80050CC46D1F80480954389
:100A90005FEAC82800D51543CCF80050DAF80050BA
:100AA000D446D1F8048095435FEA882800D51543E1
:100AB000CCF80050DBF80050DC46D1F804809543B8
:100AC0005FEA883800D51543CCF80050DEF80050B6
:100AD000F446D1F8048095435FEAC83800D5154341
:100AE000CCF800505B1C0A6832FA03F57FF400AFC3
:100AF00005B0BDE8F08F000008040140001002407E
:100B0000000001400004004800080048000C0048B4
:100B100000100048001400480069084000D001207F
:100B200070470AB1816170478162704701488068EF
:100B30007047000048000020024881684268114464
:100B4000816070474800002010B50024032000F0A9
:100B500073F8002000F008F808B1012401E000F06B
:100B600025F8204610BD000070B50E4E0546002445
:100B7000706898B14FF47A71B1FBF0F00A490968D6
:100B8000B1FBF0F000F064FD40B9102D06D2002258
:100B90002946501E00F030F8356000E00124204660
:100BA00070BD000048000020340000200A4882B0D8
:100BB000016E41F001010166016E01F00101009139
:100BC000816D41F080518165806D00F08050009012
:100BD00002B000F0A1B8000000100240002809DBBC
:100BE00000F01F02012191404009800000F1E02047
:100BF000C0F8001170470000F0B40E4B1B680C46A3
:100C0000C3F30223C3F10705042D00D90425191DE0
:100C1000072901D2002300E0DB1E012606FA05F1B8
:100C2000491E214099409E40761E16403143F0BC3B
:100C300003F062B90CED00E0064900F00702086815
:100C40004FF6FF03184040EA0220034A10430860B1
:100C5000704700000CED00E00000FA052B492C4B1A
:100C60000A6832214A432B4940B1B0F5007F086839
:100C700029D020F4C06040F480602CE00868C0F304
:100C80004120022804D051F8800F20F4807022E027
:100C9000D1F8800020F48070C1F88000086820F44A
:100CA000C06040F400700860B2FBF3F0401C00E04C
:100CB000401E4A69520501D50028F9D1486940050E
:100CC0000AD503207047C0F34120022806D051F80E
:100CD000800F40F48070086000207047D1F88000D9
:100CE00040F48070C1F88000086820F4C06040F4CF
:100CF00000700860B2FBF3F0401C00E0401E4A693F
:100D00005205DBD50028F9D1D8E7000034000020D7
:100D100040420F00007000400248816841F4804169
:100D200081607047007000402DE9F8430446006878
:100D300000269D4D00035ED5A86D0027C00008D495
:100D4000A86D40F08050A865A86D012700F0805084
:100D50000090DFF85892D9F8001041F48071C9F87A
:100D60000010FFF7E3FE804606E000BFFFF7DEFE5F
:100D7000A0EB080002282BD8D9F80000C005F5D553
:100D8000D5F8900010F4407014D0216C814211D03D
:100D9000D5F89000D5F8901020F4407041F48031DF
:100DA000C5F89010D5F8901021F48031C5F8901056
:100DB000C5F89000C00711D0FFF7B8FE804641F299
:100DC000883907E0FFF7B2FEA0EB0801494501D9D9
:100DD00003260BE0D5F890008007F3D5D5F89000F6
:100DE000216C20F440700843C5F890001FB1A86D35
:100DF00020F08050A8652078C00707D0D5F888007B
:100E0000616820F003000843C5F888002078800757
:100E100007D5D5F88800A16820F00C000843C5F874
:100E200088002078400707D5D5F88800E16820F0D1
:100E300030000843C5F888002078000707D5D5F8AA
:100E40008800216920F0C0000843C5F88800207898
:100E5000800607D5D5F88800616920F44060084312
:100E6000C5F888002078400607D5D5F88800A16924
:100E700020F440500843C5F888002078000607D5C4
:100E8000D5F88800E16920F440400843C5F888009F
:100E90002088C00507D5D5F88800216A20F44030A5
:100EA0000843C5F888002088800507D5D5F8880054
:100EB000616A20F440200843C5F888002088400576
:100EC0000FD5D5F88800A16A20F440100843C5F872
:100ED0008800A06AB0F5801F03D1E86840F4801054
:100EE000E860208800050FD5D5F88800E16A20F475
:100EF00040000843C5F88800E06AB0F5800F03D1D0
:100F0000E86840F48010E8602088C0040FD5D5F868
:100F10008800216B20F040700843C5F88800206BE2
:100F2000B0F1807F03D1E86840F48010E860208849
:100F30004FF0006180040ED5D5F88800626B20F078
:100F400040601043C5F88800606B884203D1E868B0
:100F500040F48010E860208840040ED5D5F8880061
:100F6000A26B20F040601043C5F88800A06B884257
:100F700003D1E86840F48010E860208800040FD5B1
:100F8000D5F88800E16B20F040500843C5F8880090
:100F9000E06BB0F1805F03D1E86840F48030E86036
:100FA0003046BDE8F88300000010024000700040A9
:100FB0002DE9F0470E4605004FF0000725D0DFF879
:100FC000AC81D8F8000000F00F00B0420CD2D8F885
:100FD000001021F00F013143C8F80010D8F80000CC
:100FE00000F00F00B04210D12968614CC80741F2EF
:100FF000883A5AD06868DFF87C91032808D0022824
:1010000020682DD0400500282CDB0120BDE8F087AA
:1010100020688001F9D5E06800F00302E068C0F3C1
:101020000310401C032A19D0534A00BFB2FBF0F052
:10103000E268C2F306225043E268C2F34162521CE6
:101040005200B0FBF2F0484517D9A06810F0F00F3D
:101050000CD0880711D5A86840B10EE0474AE5E7F3
:101060008003D0E700F0B6F8484506D9A06820F024
:10107000F00040F08000A0608027A068696820F040
:1010800003000843A060FFF751FD814606E000BF62
:10109000FFF74CFDA0EB090151453AD8A0686968FB
:1010A00000F00C00B0EB810FF2D12868810714D555
:1010B000400703D5A06840F4E060A06028780007EE
:1010C00005D5A06820F4605040F4E060A060A068FE
:1010D000A96820F0F000084304E0802F03D1A06845
:1010E00020F0F000A060D8F80010404601F00F0199
:1010F000B14216D9016821F00F0131430160FFF7B9
:1011000015FD074607E000BFFFF710FDC11B514565
:1011100001D903207AE7D8F8000000F00F00B042B0
:10112000F2D12878400705D5A068E96820F4E0608E
:101130000843A0602878000706D5A068296920F434
:10114000605040EAC100A06000F044F8A1680C4A79
:10115000C1F30311515C01F01F01C8400949086047
:1011600009480068BDE8F047FFF7FEBC00200240D8
:101170000010024000B4C4040024F40000366E01E4
:101180001862000834000020480000200548064985
:1011900000688968054AC1F30221515C01F01F0112
:1011A000C840704734000020001002402862000848
:1011B0000548064900688968054AC1F3C221515CA7
:1011C00001F01F01C84070473400002000100240A9
:1011D00028620008184910B58868C0F381021748D2
:1011E000012A0BD08A68164BC2F38102022A06D06C
:1011F0008A68C2F38102032A03D0002010BD18467A
:1012000010BDCA6802F00304CA68C2F30312521C7C
:10121000032C02D0B0FBF2F001E0B3FBF2F0CA689D
:10122000C968C2F306225043C1F34161491C490019
:10123000B0FBF1F010BD0000001002400024F400EB
:1012400000366E012DE9F84304007AD02078FA4D7B
:10125000C00747D0A868E96800F00C0001F003015E
:101260000C2802D0082817D001E0032914D06068A8
:10127000B0F5803F17D0B0F5A02F286817D020F424
:1012800080302860286820F4802028606068E0B101
:10129000FFF74CFC064614E02868800322D56068FE
:1012A0000028D2D01EE0286840F48030EDE740F4FA
:1012B00080202860F7E700BFFFF738FC801B642818
:1012C00070D828688003F7D50CE0FFF72FFC06469E
:1012D00005E000BFFFF72AFC801B6428F0D82868CF
:1012E0008003F7D4207880074CD5A868E96800F01F
:1012F0000C0001F003010C2802D004280DD001E0FD
:1013000002290AD0E068002828682BD040F48070B9
:101310002860FFF70BFC064619E02868400502D557
:10132000E068002891D06868217C20F0FE4040EA07
:1013300001606860C1480068FFF716FC002800D112
:1013400020E076E1FFF7F2FB801B0228B8D828687E
:101350004005F7D56868217C20F0FE4040EA016036
:1013600068600FE020F480702860FFF7DFFB06461E
:1013700005E000BFFFF7DAFB801B0228A0D8286831
:101380004005F7D42078000729D560690028D5F8F2
:10139000940013D040F00100C5F89400FFF7C6FB9D
:1013A000064606E090E000BFFFF7C0FB801B022866
:1013B00086D8D5F894008007F6D510E020F001001B
:1013C000C5F89400FFF7B2FB064604E0FFF7AEFB5A
:1013D000801B022878D8D5F894008007F6D42078AE
:1013E000400761D5A86D0026C00008D4A86D40F064
:1013F0008050A865A86D012600F0805000909048AC
:101400000168C90511D40168804641F4807101600A
:10141000FFF78CFB074604E0FFF788FBC01B0228A0
:1014200052D8D8F80000C005F6D5A068012815D01C
:101430000528D5F8900016D020F00100C5F89000DE
:10144000D5F8900020F00400C5F89000A06841F2A3
:101450008838B8B1FFF76AFB07460EE0D5F8900070
:1014600040F00100F0E740F00400C5F89000F5E717
:10147000FFF75CFBC11B414526D8D5F890008007DB
:10148000F6D50CE0FFF752FB074604E0FFF74EFBF2
:10149000C11B414518D8D5F890008007F6D41EB17D
:1014A000A86D20F08050A8652078800629D5A06915
:1014B0000028D5F8980013D040F00100C5F8980036
:1014C000FFF734FB064606E077E000BFFFF72EFB90
:1014D000801B022877D8D5F898008007F6D510E051
:1014E00020F00100C5F89800FFF720FB064604E055
:1014F000FFF71CFB801B022865D8D5F898008007F1
:10150000F6D4E069F0B3A968C1F38101032961D081
:101510000228286820F0807028600BD0E86820F04E
:101520000300E860E86847490840E860FFF7FEFA12
:1015300004464BE0FFF7FAFA064604E0FFF7F6FA36
:10154000801B02283FD828688001F7D4F4E90801FD
:101550006FF00F0202EB01110843218A520449087F
:1015600002EB4151A26841EA02210843217D4FF07C
:101570007E42490802EB41610843217B40EAC16099
:10158000E96800E062E0304A11400843E8602868FA
:1015900040F080702860E86840F08070E860FFF7F5
:1015A000C5FA044605E000BFFFF7C0FA001B022899
:1015B00009D828688001F7D548E004E0FFF7B6FABB
:1015C000001B022802D90320BDE8F88328688001A7
:1015D000F4D43BE00128F7D0E868226A00F0030168
:1015E000914226D1616A00F0F0020901103991425E
:1015F0001FD1A26A00F4FE41B1EB022F19D194F879
:101600002C2000F07841B1EBC26F12D1218E00F492
:10161000C00249084905A1F50011914209D194F889
:10162000341000F0C06049084906A1F10071814200
:101630000CD00120C8E70000001002404800002044
:1016400000700040FFFFEEFE0C809F010020BBE712
:1016500010B5401EB0F1807F01D3012010BD4FF0C6
:10166000E02460610F21601702F046FC0020A061B9
:1016700007202061002010BD7047704770470000B0
:10168000F0B590F83C20012A4AD0012280F83C2095
:10169000CA688B6822F440721A434B6822F4806255
:1016A0001A430B6822F400621A430B6922F4805239
:1016B0001A434B6922F400521A430B6B22F4804206
:1016C0001A430B8B22F4702242EA0342154C036842
:1016D0000026154DA34201D0AB4203D1CF6922F0C1
:1016E00080523A43A34201D0AB4214D10F8D22F471
:1016F000700242EA07520F6A22F080723A434F6A40
:1017000022F000723A43A34201D0AB4203D1C96A2E
:1017100022F000520A435A6480F83C600020F0BD79
:101720000220F0BD002C014000340140704770479A
:1017300070470000F0B590F83C20012A3AD001250E
:1017400080F83C50022280F83D2003685A689C686B
:10175000194E1A4FB34201D0BB4204D122F4700C8F
:101760004A6842EA0C02DFF858C002EA0C02D1F8DB
:1017700000C04CEA020CC3F804C00268B2420DD0AB
:10178000B2F1804F0AD00F4B9A4207D00E4B9A42CB
:1017900004D0BA4202D00D4B9A4204D1896824F099
:1017A00080031943916080F83D50002180F83C107F
:1017B0000846F0BD0220F0BD002C0140003401407D
:1017C0008FFFFFFD00040040000800400040014082
:1017D000704710B5040003D094F83D0010B107E045
:1017E000012010BD002084F83C00204600F022F8C3
:1017F000022084F83D00211D206801F001FC012039
:1018000084F8480084F83E0084F83F0084F84000E3
:1018100084F8410084F8420084F8430084F84400CE
:1018200084F8450084F8460084F8470084F83D00B9
:10183000002010BD08B5114A01681148914211D12C
:10184000816D41F002018165806D002200F002008F
:10185000009011461D20FFF7CFF9BDE808401D207C
:10186000FFF7BCB9074A914207D1016E41F48021CC
:101870000166006E00F48020009008BD0004004066
:10188000001002400048014090F83D10012901D0AD
:1018900001207047022180F83D100168CA6842F0BB
:1018A0000102CA600068104988420ED0B0F1804F32
:1018B0000BD00E49884208D00D49884205D00D4909
:1018C000884202D00C49884207D181680B4A1140F6
:1018D000062906D0B1F5803F03D0016841F001012F
:1018E0000160002070470000002C0140000400400F
:1018F00000080040003401400040014007000100A2
:1019000070B5044690F83C000025012814D001264B
:1019100084F83C60022084F83D0022689068364BD1
:10192000184020F47F409060086870282ED010DCAA
:1019300010F00F0F03D021E04FF0020070BD4FEA0E
:101940002012072A1AD2DFE802F0525252524A38C5
:1019500040002A4BC21A984249D009DCB0F5805F9A
:101960000DD0B0F5005F1CD0B0F1101F06D13EE0E5
:10197000102A3CD0202A3AD0502A38D0012584F8A9
:101980003D60002084F83C00284670BDCB68D1E95A
:101990000121206801F099FB2068816841F07701FE
:1019A00009E0CB68D1E90121206801F08EFB2068B5
:1019B000816841F480418160E1E7CA684968206834
:1019C00001F02EFD5021206806E0CA6849682068B1
:1019D00001F037FD6021206801F082FBCFE7CA6883
:1019E0004968206801F01CFD40212068F4E7226866
:1019F00001461046F0E7000088FFCEFF20001000EF
:101A0000704770B50446006801694FF00005C9438E
:101A1000890715D4C168C943890711D4E91E01613A
:101A200001202077206880698007204602D0FFF7D8
:101A3000E7FF04E000F00CF9204600F0CEF925772E
:101A400020680169C943490717D4C168C9434907D8
:101A500013D46FF0040101610220207720688069AF
:101A600010F4407F204602D0FFF7CAFF04E000F0E8
:101A7000EFF8204600F0B1F9257720680169C943E5
:101A8000090716D4C168C943090712D46FF00801C9
:101A90000161042020772068C0698007204602D0B9
:101AA000FFF7AEFF04E000F0D3F8204600F095F910
:101AB000257720680169C943C90617D4C168C9439D
:101AC000C90613D46FF01001016108202077206847
:101AD000C06910F4407F204602D0FFF791FF04E078
:101AE00000F0B6F8204600F078F925772068016903
:101AF000C943C90708D1C168C943C90704D1891EB0
:101B00000161204600F0E8F920680169C94309062F
:101B100009D4C168C943090605D46FF08001016189
:101B20002046FFF7AAFD20680169C943C90509D409
:101B3000C168C943090605D46FF48071016120466C
:101B4000FFF79AFD20680169C943490609D4C168B5
:101B5000C943490605D46FF040010161204600F0F9
:101B600005FA20680169C943890609D4C168C943D7
:101B7000890605D46FF0200101612046FFF77EFD44
:101B800020680169C943C90209D4C168C943C902AF
:101B900005D46FF4801101612046FFF7C8FD20686D
:101BA0000169C943890209D4C168C943890205D4BE
:101BB0006FF4001101612046FFF7B8FD206801694C
:101BC000C943490209D4C168C943490205D46FF425
:101BD000800101612046FFF7ABFD20680169C94320
:101BE00009020BD4C168C943090207D46FF400018C
:101BF00001612046BDE87040FFF7EABD70BD0000FE
:101C000010B586B0044614216846FEF739FB0E492C
:101C10002068884216D10D48C16C41F00101C164B1
:101C2000C06C694600F00100059080200090022001
:101C30000190002002900390012004904FF090400A
:101C4000FEF746FE06B010BD0048014000100240FD
:101C5000704770B5044690F83C0000260D460128F8
:101C60000BD0012084F83C000C2A4AD007DC82B15A
:101C7000042A20D0082A06D131E0022070BD102AA3
:101C800053D0142A63D00126002084F83C0030464B
:101C900070BD206801F02EFA2068816941F00801CA
:101CA00081612068816921F0040181612068816976
:101CB0002A69114311E0206801F06AFA20688169FD
:101CC00041F4006181612068816921F48061816152
:101CD000206881692A6941EA02218161D4E720688C
:101CE00001F09EFA2068C16941F00801C1612068D5
:101CF000C16921F00401C1612068C1692A691143E9
:101D000011E0206801F0D4FA2068C16941F4006153
:101D1000C1612068C16921F48061C1612068C16925
:101D20002A6941EA0221C161AEE7206801F008FB9F
:101D30002068016D41F0080101652068016D21F006
:101D4000040101652068016D2A69114311E02068D2
:101D500001F02EFB2068016D41F4006101652068EF
:101D6000016D21F4806101652068016D2A6941EAF5
:101D70000221016588E710B5040003D094F83D0006
:101D800010B107E0012010BD002084F83C0020467F
:101D900000F022F8022084F83D00211D206801F0A7
:101DA0002FF9012084F8480084F83E0084F83F00B1
:101DB00084F8400084F8410084F8420084F843002D
:101DC00084F8440084F8450084F8460084F847000D
:101DD00084F83D00002010BD7047704730B50446C0
:101DE000022269B1042912D0082917D00C291CD06D
:101DF000102921D094F84300012824D0012030BDBF
:101E000094F83E000128F9D184F83E201DE094F8B2
:101E10003F000128F2D184F83F2016E094F84000FA
:101E20000128EBD184F840200FE094F8410001280C
:101E3000E4D184F8412008E094F842000128DDD183
:101E400084F8422001E084F843200122206801F058
:101E50002FF9194B20681949194A984209D088422C
:101E600007D0904205D0174DA84202D0164DA84287
:101E700003D1456C45F400454564206898420CD078
:101E8000B0F1804F09D0114B984206D0104B9842C8
:101E900003D0884201D0904207D181680D4A114099
:101EA000062906D0B1F5803F03D0016841F0010159
:101EB0000160002030BD0000002C014000340140D2
:101EC000004001400044014000480140000400403F
:101ED000000800400700010070B5006820498842F2
:101EE0003DD1204D01212846FEF716FE00B101200C
:101EF0001D4C022120702846FEF70EFE00B1012085
:101F0000E07004212846FEF707FE00B10120A07111
:101F100001214FF09040FEF7FFFD00B101206072FB
:101F2000002001234FEA000500EB400211194E7812
:101F300026B1012E06D0022E0ED109E0A25C5AB9BC
:101F40004B7009E0A25C32B98B7002224A7003E048
:101F5000A25C012A00D14D70401C0428E4DB70BD56
:101F600000040040000400483A000020704790F848
:101F70008010012918D0012180F880102421C0F898
:101F8000841050F8641B0A680B6823F001030B608F
:101F900022F000510022026050F8643C19602021B8
:101FA0000162027710467047022070477047704701
:101FB00070B5044690F8800001281DD0012084F8F7
:101FC00080002420C4F8840020680568026822F09C
:101FD000010202602068826822F060620A43826027
:101FE000204601F041FA206805602020C4F88400F2
:101FF000002084F8800070BD022070BD70B50446DA
:1020000090F8800001281DD0012084F88000242051
:10201000C4F8840020680568026822F001020260AA
:102020002068826822F060420A438260204601F004
:102030001BFA206805602020C4F88400002084F882
:10204000800070BD022070BD70477047704700006F
:102050002DE9F04103680446D86919689A6840F68A
:102060000F0528424FF0000509D186067ED501F004
:10207000200602F080573E4378D0216F27E1A94E19
:10208000A94F16400F40374370D0C70709D0CF057E
:1020900007D501271F62D4F88C3043F00103C4F840
:1020A0008C3083070AD5D30708D0276802233B6208
:1020B000D4F88C3043F00403C4F88C3043070AD5BD
:1020C000D30708D0276804233B62D4F88C3043F050
:1020D0000203C4F88C3003070CD501F0200333430E
:1020E00008D0266808233362D4F88C3043F0080304
:1020F000C4F88C3003050BD54B0109D526684FF485
:1021000000633362D4F88C3043F02003C4F88C3081
:10211000D4F88C30002B3AD0800609D501F020008D
:1021200002F08051084303D0216F09B1204688474F
:10213000D4F88C0021688968490602D410F0280F71
:1021400027D0204601F050FA2068806840061BD551
:102150002068083050E8001F21F0400140E80012DC
:10216000002AF5D1E06F78B1704900E017E0816393
:10217000E06FFEF75EFB002809D0E06F816B00E0A6
:102180002046BDE8F04108472046FFF75FFFBDE865
:10219000F0812046FFF75AFFC4F88C50F7E7E76E4E
:1021A0002026012F7ED1C7067CD5CF067AD51020F8
:1021B000186220688068400642D5E16F0868406870
:1021C0000004000CE3D0B4F85C208242DFD9A4F80C
:1021D0005E000868006880062BD4206850E8001F65
:1021E00021F4807140E80012002AF6D120680830FE
:1021F00050E8001F21F0010140E80012002AF5D14B
:102200002068083050E8001F21F0400140E800122B
:10221000002AF5D1C4F88860E566216851E8000F0E
:1022200020F0100041E80002002AF6D1E06FFEF72E
:10223000CBFAB4F85C00B4F85E10401A81B22CE01E
:10224000B4F85C00B4F85E10401A81B2B4F85E00D5
:1022500000289CD000299AD0226852E8000F20F470
:10226000907042E80003002BF6D12E4BDB43206830
:10227000083050E8002F1A4040E80027002FF6D120
:10228000C4F88860E5662567226852E8000F20F0F0
:10229000100042E80003002BF6D12046FFF786FE2F
:1022A00075E7FFE7C70209D5570207D54FF480103D
:1022B00018622046BDE8F041FFF7C7BE03060AD505
:1022C00001F0800302F40002134304D0616F00297F
:1022D0007FF456AF5BE7420611D54A060FD520467C
:1022E000016851E8002F22F0400241E80023002B52
:1022F000F6D1C0F88460456700F030F947E7020284
:1023000006D54A0004D52046BDE8F041FFF79CBE43
:10231000C001C5D50029C3DA2046BDE8F041FFF76A
:1023200046BE00000100001020010004D535000861
:1023300010B5040003D0D4F8840010B107E00120E8
:1023400010BD002084F88000204600F027F82420EB
:10235000C4F884002068016821F001010160204672
:1023600001F084FB0128EBD0A06A10B1204601F0F7
:102370009DF82068416821F490414160206881689F
:1023800021F02A0181602068016841F001010160AB
:102390002046BDE8104001F0EDB8000010B598B03F
:1023A0000446142111A8FDF76BFF44216846FDF790
:1023B00067FF1B492068884230D101200024CDE905
:1023C00000046846FEF7B0FC08B1FEF7FCF91548BA
:1023D000016E41F480410166016E01F48041169165
:1023E000C16C41F00101C164C06C11A900F0010091
:1023F00016904FF4C06011900220CDE9120407201E
:10240000CDE914404FF09040FEF762FA00221146E9
:102410002520FEF7F1FB2520FEF7E0FB18B010BDEC
:10242000003801400010024030B4D0F88830202B32
:1024300020D1E1B1DAB190F88030012B1AD001231C
:1024400080F880300023C3660B4C0368A3420BD096
:102450005B681B0208D5046854E8003F43F08063C2
:1024600044E80035002DF6D130BC01F039BC012024
:1024700030BC70470220FBE7008000400549064B56
:1024800048780A781A54401C487001220348FFF724
:10249000CBBF00003800002004020020740100209F
:1024A0002DE9F8430446D0F884001F4616460D4631
:1024B000202851D1DDB1D6B194F8800001284BD04D
:1024C000012084F880004FF00008C4F88C8021209F
:1024D000C4F884001834FEF729FBA6878146E687F6
:1024E00054F8100C183CB0F5805F03D004E00120D4
:1024F000BDE8F883206920B12E46002584F880804D
:1025000010E00026FAE78021204601F075FCB8B9FA
:10251000C6B116F8010B21688862B4F85600401E57
:10252000A4F85600B4F856004B464FF0000200974E
:102530000028E8D14FF04001204601F05DFC30B1A9
:102540000320D5E735F8020BC0F30800E3E72020AD
:10255000C4F884000020CBE70220C9E77047FEE7FB
:1025600000B585B014216846FDF78AFE4FF6FF706E
:10257000009000200321CDE9020101906946024844
:10258000FEF7A6F905B000BD0008004800B585B00B
:1025900014216846FDF774FE4FF6FF70009001208D
:1025A0000190032003900020029069460248FEF744
:1025B0008FF905B000BD00000008004870B5002488
:1025C00006462146204600F003F900F041F94FF499
:1025D0009635304600F010F9641CAC42F9D370BD5A
:1025E00030B587B014216846FDF74AFE1E48C16C1D
:1025F00041F00401C164C16C01F004010591C16C9A
:1026000041F00101C164C16C01F001010591C16C8F
:1026100041F00201C164C06C012500F00200059088
:102620004FF44870CDE900050024039469460294F4
:102630000E48FEF74DF9280203940090CDE90154AD
:102640004FF0904469462046FEF742F9FFF79EFF9F
:10265000A06940F48070A06104481830016841F41A
:102660000871016007B030BD00100240000400484E
:10267000203AD2B2034B02EB420203EB021200F00B
:1026800019B8000048500008F0B50E46074600256E
:1026900040F23F1407E021463846FFF7E9FF103CBF
:1026A0006D1CA4B2761C3278002A01D0142DF2D30E
:1026B000F0BD00002DE9F04791468A460026044609
:1026C00000F086F8DFF84080012700BF00F0C0F876
:1026D0005FF0000539F8160007FA05F10842404698
:1026E00001D1408800E0008800F086F86D1C102DB4
:1026F000F0D3641CE4B25146204600F069F8761C21
:10270000182EE3D3BDE8F0870000002010B5FFF7D6
:1027100067FF002000F014F8084CA080A088A0F506
:102720000241303906D000F025FB002000F008F807
:10273000A08010BD00F095FAF7E70000000000202F
:1027400070B51D490A6842F400720A600A6842F4D2
:1027500080720A60184C103C226842F0200222600D
:10276000164A1060086840F02000086000BF00BFF3
:1027700000BF206840F020002060206840F4807096
:102780002060FFF7EDFE4FF09041886A40F48070C2
:10279000886200BF00BF00BF0848001F006885B204
:1027A000886940F480708861FFF7F0FE206840F48B
:1027B00000702060284670BD2804004814080048B6
:1027C00001B5BDF800000149488008BD00000020A7
:1027D00010B50C460146202000F068F82146BDE8FF
:1027E0001040212000F062B801B5BDF80000014999
:1027F000088008BD00000020134A116841F40071F0
:102800001160114910390B6843F480730B600B6839
:1028100043F020030B600D4B1860106840F020005F
:10282000106000BF00BF00BF086840F020000860D3
:10283000086840F48070086000BF00BF00BF0868EF
:1028400040F40070086070472804004814080048ED
:102850001449086840F400700860086840F480700B
:10286000086010481038026842F0200202600E4BE7
:1028700022221A600A6842F020020A6000BF00BFEC
:1028800000BF016841F020010160016841F48071DE
:10289000016000BF00BF00BF016841F4007101602A
:1028A000704700002804004814080048184B10B571
:1028B0001A6842F400721A601A6842F480721A6050
:1028C000134A103A146844F020041460114C20603C
:1028D000186840F02000186000BF00BF00BF1068FB
:1028E00040F020001060106840F48070106021609B
:1028F000186840F02000186000BF00BF00BF1068DB
:1029000040F020001060106840F48070106010BD2E
:10291000280400481408004810B501221102084894
:10292000FEF7FFF8074C012204212046FEF7F9F8D4
:1029300020460022BDE810400421FEF7F2B8000056
:1029400000080048000C004810B500224FF48071C8
:102950000748FEF7E6F8074C012204212046FEF75F
:10296000E0F820460022BDE810400421FEF7D9B867
:1029700000080048000C004810B501225102084828
:10298000FEF7CFF8074C012204212046FEF7C9F8D4
:1029900020460022BDE810400421FEF7C2B8000026
:1029A00000080048000C004810B500224FF40071E8
:1029B0000748FEF7B6F8074C012204212046FEF72F
:1029C000B0F820460022BDE810400421FEF7A9B867
:1029D00000080048000C00482DE9F04F87B0142192
:1029E0006846FDF74DFC3F48C16C41F00401C164ED
:1029F000C16C01F004010591C16C41F02001C1647A
:102A0000C16C01F020010591C16C41F00101C1646C
:102A1000C16C01F001010591C16C41F00201C1647A
:102A2000C16C01F002010591C16C41F00801C16463
:102A3000C06CDFF8B48000F008004FF6FF7405901A
:102A4000002221464046FEF76CF84FF480764FF0A6
:102A50009049002231464846FEF763F8DFF88CA023
:102A6000002204215046FEF75CF8DFF884B04FF4F2
:102A70004877002239465846FEF753F80125CDE93C
:102A8000004500240294694640460394FDF720FF68
:102A9000CDE90054694648460295FDF719FF072025
:102AA0008DE8310069465846FDF712FF0096CDE9E2
:102AB0000154694648460394FDF70AFF042000903C
:102AC000CDE90154694650460394FDF701FF009794
:102AD000CDE90154694658460394FDF7F9FE07B065
:102AE000BDE8F08F0010024000080048000C0048CC
:102AF0000004004810B594B01C210DA8FDF7C0FBE0
:102B000034216846FDF7BCFB1F481E4900240160C4
:102B100040F28F11C0E901146321C0E9031444613C
:102B20008461FEF756FE08B1FDF74DFE1648FFF72B
:102B300022F908B1FDF747FE6020CDE90D040F949E
:102B400010941194129400220DA90F481394FFF7CA
:102B500080F808B1FDF737FE00944FF40050CDE93E
:102B600004400194029403940694694606480C9428
:102B7000FEF786FD08B1FDF726FE0348FFF740F893
:102B800014B010BD004801402801002010B588B0E5
:102B9000002417480094019402940394049405942B
:102BA0001249069401604F21C0E9011442F20F71ED
:102BB000C0E903148461FEF70CFE08B1FDF703FEC3
:102BC0004FF48050009069460948FEF799FE08B11D
:102BD000FDF7F9FD049404A905480694FEF7AAFD43
:102BE000002801D0FDF7EFFD08B010BD0004004043
:102BF000DC000020184810B5164901604FF416514A
:102C00004160002181600C22C160C0E90412816131
:102C1000C161016241628162FFF78AFB08B1FDF781
:102C2000D2FD00210C48FFF7E9F908B1FDF7CBFD13
:102C300000210948FFF7BCF908B1FDF7C4FD0648BB
:102C4000FFF795F9002803D0BDE81040FDF7BBBDA4
:102C500010BD00000038014074010020FEE77047FD
:102C6000704730B501210020FFF720FE4FF47A7045
:102C7000FDF79BFD00210120FFF718FE41F2907146
:102C80001020FFF713FE4FF41C516020FFF70EFEDB
:102C900001216120FFF70AFE02214620FFF706FE10
:102CA00048F210011320FFF701FE48F2FE01122046
:102CB000FFF7FCFD4FF4A0610220FFF7F7FD41F2A2
:102CC00030010320FFF7F2FD40F2033421463020AB
:102CD000FFF7ECFD21463120FFF7E8FD21463220C9
:102CE000FFF7E4FDE51E29463320FFF7DFFD032152
:102CF0003420FFF7DBFD21463520FFF7D7FD1421F7
:102D00003620FFF7D3FD21463720FFF7CFFD2146C0
:102D10003820FFF7CBFD21463920FFF7C7FD2946B4
:102D20003A20FFF7C3FD03213B20FFF7BFFD2146FB
:102D30003C20FFF7BBFD4FF4A0513D20FFF7B6FD4F
:102D40004FF400719220FFF7B1FD21469320FFF769
:102D5000ADFD40F60D019020FFF7A8FD41F21801EE
:102D60000320FFF7A3FDBDE8304040F273110720B8
:102D7000FFF79CBD10B543F20801E320FFF796FD75
:102D80001221E720FFF792FD41F23121EF20FFF7FA
:102D90008DFD00210120FFF789FD4FF4E061022045
:102DA000FFF784FD41F230010320FFF77FFD002192
:102DB0000420FFF77BFD40F207210820FFF776FD96
:102DC00000210920FFF772FD00210A20FFF76EFDA8
:102DD00000210C20FFF76AFD00210D20FFF766FDA2
:102DE00000210F20FFF762FD00211020FFF75EFD9C
:102DF00007211120FFF75AFD00211220FFF756FD91
:102E000000211320FFF752FDC820FDF74FFD41F2CE
:102E100090611020FFF74AFD40F227211120FFF7B3
:102E200045FD3220FDF742FD1D211220FFF73EFD3A
:102E30003220FDF73BFD4FF400611320FFF736FD14
:102E400014212920FFF732FD0B212B20FFF72EFD47
:102E50003220FDF72BFD00212020FFF727FD002168
:102E60002120FFF723FD07213020FFF71FFD40F24F
:102E700007713120FFF71AFD06213220FFF716FDFA
:102E800040F204713520FFF711FD41F60471362040
:102E9000FFF70CFD04213720FFF708FD0021382043
:102EA000FFF704FD40F206713920FFF7FFFC40F206
:102EB00001713C20FFF7FAFC0F213D20FFF7F6FCE3
:102EC00000215020FFF7F2FCEF215120FFF7EEFC2C
:102ED00000215220FFF7EAFC40F23F115320FFF798
:102EE000E5FC4FF41C516020FFF7E0FC012161205C
:102EF000FFF7DCFC00216A20FFF7D8FC00218020CE
:102F0000FFF7D4FC00218120FFF7D0FC00218220B4
:102F1000FFF7CCFC00218320FFF7C8FC00218420B0
:102F2000FFF7C4FC00218520FFF7C0FC1021902092
:102F3000FFF7BCFC00219220FFF7B8FC032193208F
:102F4000FFF7B4FC4FF488719520FFF7AFFC002128
:102F50009720FFF7ABFC00219820FFF7A7FC41F278
:102F600018010320FFF7A2FCBDE8104040F27311E6
:102F70000720FFF79BBC7047FDF7DEBD00B593B09F
:102F800038216846FDF77CF914210EA8FDF778F981
:102F90004FF40070FDF762FE0220C1010391402151
:102FA00004910090079008901421CDE909010B903D
:102FB0000C900D906846FEF745F90F200E90032007
:102FC0000F90002010901190129002210EA8FDF792
:102FD000EFFF13B000BD00000548016841F4700127
:102FE000016003494FF000608039086070470000BD
:102FF00088ED00E00148FEF704BD0000DC00002081
:103000002DE9F0430268234B234D244E244C4FF00E
:103010008049984207D0484505D0A84203D0B04225
:1030200001D0A04203D122F070074A683A431D4FF5
:10303000DFF874C0DFF8748098420DD048450BD09B
:10304000A84209D0B04207D0A04205D0B84203D070
:10305000604501D0404503D122F44075CA682A4337
:103060004D6922F080022A4302608A68C2620A68BF
:103070008262984207D0A04205D0B84203D0604592
:1030800001D0404501D10969016301214161BDE8D9
:10309000F0830000002C01400004004000080040C4
:1030A000003401400040014000440140004801401C
:1030B00010B501F01F030121046A99408C4304629A
:1030C000016A9A401143016210BD10B5846842EA5A
:1030D000032224F47F440A432243826010BD00008F
:1030E0008268034B1A400A4342F00701816070472F
:1030F0008FFFCFFF2DE9F043026A22F00102026246
:10310000056A436882691C4C25F0020522400C6860
:1031100022F0030214438A68194E2A43174D194FAF
:10312000DFF864C0DFF86490A84207D0B04205D051
:10313000B84203D0604501D0484506D122F00808C6
:10314000CA6842EA080222F00402A84207D0B0424C
:1031500005D0B84203D0604501D0484505D14D693E
:1031600023F440731D438B692B434360846149689A
:1031700041630262BDE8F0838FFFFEFF002C014037
:10318000003401400040014000440140004801403B
:10319000F0B5026A22F010020262056A4268836991
:1031A000194C1B4E23400C6823F4407343EA04245B
:1031B00025F020038D6843EA0513144DA84201D081
:1031C000B04206D1CF6823F0800343EA071323F00F
:1031D0004003A8420AD0B04208D00E4DA84205D004
:1031E0000D4DA84202D00D4DA84207D14D6922F4E1
:1031F000406242EA85028D6942EA8502426084614A
:10320000496881630362F0BDFF8FFFFE002C01401F
:1032100000340140004001400044014000480140AA
:10322000F0B5026A22F480720262056A4368C269DC
:10323000194C1B4E22400C6822F00302144325F463
:1032400000728D6842EA0522144DA84201D0B042B6
:1032500006D1CF6822F4006242EA072222F480629B
:10326000A8420AD0B04208D00E4DA84205D00E4D5B
:10327000A84202D00D4DA84207D14D6923F4405316
:1032800043EA05138D6943EA05134360C461496845
:10329000C1630262F0BD00008FFFFEFF002C014001
:1032A000003401400040014000440140004801401A
:1032B000F0B5026A22F480520262056A4268C3696C
:1032C000194C1B4E23400C6823F4407343EA04243A
:1032D00025F400538D6843EA0533144DA84201D00C
:1032E000B04206D1CF6823F4004343EA073323F406
:1032F0008043A8420AD0B04208D00E4DA84205D063
:103300000D4DA84202D00D4DA84207D14D6922F4BF
:10331000404242EA85128D6942EA85124260C461E8
:10332000496801640362F0BDFF8FFFFE002C01407D
:103330000034014000400140004401400048014089
:1033400030B5026A22F480320262046A4268036D78
:10335000114D2B400D681D4324F400330C8943EAC2
:1033600004430E4CA0420BD00D4CA04208D00D4C93
:10337000A04205D00C4CA04202D00C4CA04204D17B
:103380004C6922F4803242EA0422426005654968B1
:103390008164036230BD00008FFFFEFF002C0140FE
:1033A0000034014000400140004401400048014019
:1033B00030B5026A22F480120262046A4268036D28
:1033C000114D24F400142B400D6843EA05230D89A8
:1033D00044EA05540D4DA8420BD00D4DA84208D02B
:1033E0000C4DA84205D00C4DA84202D00B4DA8426E
:1033F00004D14D6922F4802242EA852242600365AD
:103400004968C164046230BDFF8FFFFE002C01409B
:1034100000340140004001400044014000480140A8
:1034200010B5036A046A24F001040462846924F07C
:10343000F00444EA021423F00A020A43846102629F
:1034400010BD10B5036A23F0100303628369046A98
:1034500023F4704343EA023224F0A00343EA01114B
:103460008261016210BD000030B5416EB9B10268E1
:1034700091689268C1F342610B4B520F9C5CE5006E
:1034800003F10804A25CB5FBF2F2A0F86A205A5CD2
:10349000615CD200B2FBF1F1A0F8681030BD0121EF
:1034A000A0F86A10F8E700004862000890F82810B9
:1034B000C90706D001684A68C36A22F400321A4379
:1034C0004A6090F82810890706D501684A68036B9E
:1034D00022F480321A434A6090F82810490706D532
:1034E00001684A68436B22F480221A434A6090F8CC
:1034F0002810090706D501684A68836B22F4004248
:103500001A434A6090F82810C90606D501688A68EF
:10351000C36B22F480521A438A6090F828108906FF
:1035200006D501688A68036C22F400521A438A6047
:1035300090F82810490611D501684A68436C22F4B6
:1035400080121A434A60416CB1F5801F06D10168B0
:103550004A68836C22F4C0021A434A6090F828102B
:10356000090606D501684A68C06C22F400220243AD
:103570004A607047F8B500260446C0F88C60FDF735
:10358000D5FA0546206800686FF07E47000708D529
:103590002B4600224FF400112046009700F02CFC2F
:1035A00060B92068006840070AD52B4600224FF416
:1035B00080012046009700F01FFC08B10320F8BDF1
:1035C0002020C4F88400C4F8880044F86C6F002000
:1035D0002675F8BD10B5806A0021A0F85E10A0F82D
:1035E0005610FEF733FD10BD10B5026852E8001FFB
:1035F00021F4907142E80013002BF6D10E4B0268C3
:10360000083252E8001F194042E80014002CF6D19D
:10361000C16E012908D1016851E8002F22F0100283
:1036200041E80023002BF6D12021C0F888100021AA
:10363000C166016710BD0000FEFFFFEF10B5B0F8D6
:103640006020D0F888300168222B04D0886940F0CF
:103650000800886110BD496A836D11401980816D31
:10366000891C8165B0F85E10491EA0F85E10B0F8A4
:103670005E100029EED1026852E8001F21F490711B
:1036800042E80013002BF6D10168083151E8002F01
:1036900022F0010241E80023002BF5D12021C0F8DF
:1036A000881000210167C26E012A02D0FEF7E6FEF3
:1036B00010BDC166026852E8001F21F0100142E807
:1036C0000013002BF6D10168CA69D243D20601D497
:1036D00010220A62B0F85C10FEF768FC10BD000012
:1036E0002DE9F0470446B0F860600068C569D0F87D
:1036F00000A0D0F80880D4F88810222905D081696C
:1037000041F008018161BDE8F087B4F868704FF0BE
:10371000000963E02068406AA16D30400880A06D18
:10372000801CA065B4F85E00401EA4F85E0020680E
:10373000C569690730D0E9070AD05FEACA5107D5E1
:1037400001210162D4F88C0040F00100C4F88C0023
:10375000A8070BD55FEAC87008D02168022008626C
:10376000D4F88C0040F00400C4F88C0068070BD536
:103770005FEAC87008D0216804200862D4F88C0081
:1037800040F00200C4F88C00D4F88C0020B1204630
:10379000FEF75CFCC4F88C90B4F85E00F0B92168C8
:1037A00051E8000F20F4807041E80002002AF6D1B1
:1037B000264A2068083050E8001F114040E80013F6
:1037C000002BF6D12020C4F88800C4F87090E16E78
:1037D0004846012923D02046FEF750FE0FB1A80627
:1037E00098D4B4F85E0000288DD0B4F868108142F7
:1037F00089D92068083050E8001F21F0805140E846
:103800000012002AF5D112482067206850E8001FF6
:1038100041F0200140E80012002AF6D173E7E0668B
:10382000216851E8000F20F0100041E80002002A52
:10383000F6D12068C169C943C90601D410210162CB
:10384000B4F85C102046FEF7B1FBC7E7FEFFFFEFC0
:103850003D36000810B5B0F86020D0F88830016817
:10386000222B04D0886940F00800886110BD496AA5
:103870001140826D1170816D491C8165B0F85E1038
:10388000491EA0F85E10B0F85E100029EED1026863
:1038900052E8001F21F4907142E80013002BF6D18A
:1038A0000168083151E8002F22F0010241E80023AD
:1038B000002BF5D12021C0F8881000210167C26ECD
:1038C000012A02D0FEF7DAFD10BDC166026852E897
:1038D000001F21F0100142E80013002BF6D101680F
:1038E000CA69D243D20601D410220A62B0F85C1031
:1038F000FEF75CFB10BD00002DE9F0470446B0F870
:1039000060600068C569D0F800A0D0F80880D4F8DD
:103910008810222905D0816941F008018161BDE844
:10392000F087B4F868704FF0000963E02068406ADF
:10393000A16D30400870A06D401CA065B4F85E0019
:10394000401EA4F85E002068C569690730D0E90709
:103950000AD05FEACA5107D501210162D4F88C0070
:1039600040F00100C4F88C00A8070BD55FEAC870CE
:1039700008D0216802200862D4F88C0040F00400CE
:10398000C4F88C0068070BD55FEAC87008D02168BE
:1039900004200862D4F88C0040F00200C4F88C00C7
:1039A000D4F88C0020B12046FEF750FBC4F88C9070
:1039B000B4F85E00F0B9216851E8000F20F480707F
:1039C00041E80002002AF6D1264A2068083050E873
:1039D000001F114040E80013002BF6D12020C4F84E
:1039E0008800C4F87090E16E4846012923D0204633
:1039F000FEF744FD0FB1A80698D4B4F85E00002885
:103A00008DD0B4F86810814289D92068083050E818
:103A1000001F21F0805140E80012002AF5D1124821
:103A20002067216851E8000F40F0200041E80002C3
:103A3000002AF6D173E7E066216851E8000F20F014
:103A4000100041E80002002AF6D12068C169C9438C
:103A5000C90601D410210162B4F85C102046FEF7BB
:103A6000A5FAC7E7FEFFFFEF553800082DE9F04142
:103A70000446016880682269E36910436269002591
:103A80001A431043DFF82CC20A688B4B1A400243DA
:103A90000A6020684168E26821F4405111434160A6
:103AA0002168A069614501D0226A10438A68834B6E
:103AB0001A4002438A602068C16A626A21F00F01DD
:103AC0001143C1627E4923687E488B420DD1D0F8F4
:103AD000880010F0030006D0012855D0022842D0FB
:103AE00003283FD152E001203DE077498B420BD1C2
:103AF000D0F8880010F00C0035D0042833D0082806
:103B000040D00C282ED141E070498B420BD1D0F827
:103B1000880010F0300026D0102835D0202831D071
:103B200030281FD132E06A498B420BD1D0F888008F
:103B300010F0C00017D0402826D0802822D0C028FE
:103B400010D123E063450DD1D0F8880010F4406017
:103B500009D0B0F5806F17D0B0F5006F12D0B0F576
:103B6000406F13D010205B495B4F00264FF400429A
:103B700063453BD160B1022813D004280BD008283C
:103B800072D10DE00220EEE70420ECE70820EAE71E
:103B9000FDF7FCFA01E0FDF71DFB010001D17CE01F
:103BA0001146606A37F810206768B1FBF2F007EB46
:103BB0004703834270D8B0EB073F6DD80023084617
:103BC0001946FCF725FB090241EA10610202780858
:103BD000101871413A460023FCF71AFB3F4AA0F542
:103BE0004071914258D82168C86056E0E3694FF6A9
:103BF000EF7893422CD109284ED2DFE800F0050877
:103C0000114D0D4D4D4D1000FDF7C0FA01E0FDF7CF
:103C1000CFFA010004D140E0FDF7DCFAF9E71146E4
:103C2000606A37F81000B1FBF0F04100606801EB0A
:103C30005001B1FBF0F0A0F1100141452CD84FF636
:103C4000F0710140C0F3420001432068C16024E0EC
:103C5000092821D2DFE800F0050912200E202020DB
:103C60001100FDF793FA02E016E0FDF7A1FA01005A
:103C700004D112E0FDF7AEFAF9E71146606A37F8B1
:103C80001000B1FBF0F1606801EB5001B1FBF0F006
:103C9000A0F1100141450AD901250120A4F86A00CC
:103CA00024F8680F2846A660E660BDE8F08180B27F
:103CB00099E7000000800040F369FFCFFFF4FF1197
:103CC000003801400010024000440040004800401D
:103CD000004C00400024F40030620008FFFC0F009C
:103CE00070B58165A0F85C20A0F85E200021016716
:103CF00083684FF48055FF24AB4204D10369FBB9BC
:103D000040F2FF1322E07F26C3B1B3F1805F1AD0E7
:103D1000A0F86010C0F88C102223C0F88830036827
:103D2000083353E8004F44F0010443E80046002EF6
:103D3000F5D1436EB3F1005F0ED032E0036943B9B1
:103D4000A0F86040E6E703691BB13F23A0F86030AC
:103D5000E0E7A0F86060DDE7B0F86830934220D873
:103D60008268AA4201D10269CAB11F4A026780F87B
:103D70008010016941B1026852E8001F41F480716E
:103D800042E80013002BF6D10168083151E8002FFA
:103D900042F0805241E80023002BF5D121E0134A84
:103DA000E4E78268AA4201D102697AB1104A026747
:103DB00080F88010016959B1026852E8001F41F48F
:103DC000907142E80013002BF6D10AE0094AEEE7B1
:103DD000026852E8001F41F0200142E80013002B66
:103DE000F6D1002070BD0000F9380008E136000867
:103DF000553800083D3600082DE9F0479A46174629
:103E00000E4604464FF000094FF02008089D4AE096
:103E1000681C48D0FCF78AFEA0EB0A00A8422AD80A
:103E20004DB32068016849073DD5C069C04300050E
:103E300039D421684FF400600862206850E8001F00
:103E400021F4D07140E80012002AF6D12068083031
:103E500050E8001F21F0010140E80012002AF5D1CE
:103E600044F8848FC4F80480C4F8088004F8049CE3
:103E70000320BDE8F087216851E8000F20F4D070DE
:103E800041E80002002AF6D12068083050E8001FFF
:103E900021F0010140E80012002AF5D144F8848F96
:103EA000C4F80480E2E72068C06936EA000004D064
:103EB0000020B842ACD00020DBE70120F9E7000089
:103EC0000148FEF7C5B8000074010020FEE70000BD
:103ED0000FB4084B10B504A902AA039800F0EEF83D
:103EE000044602A9002000F080FC204610BC5DF8CA
:103EF00014FB0000EB4700080907090E002804DB4B
:103F000000F1E02080F80014704700F00F0000F18D
:103F1000E02080F8141D704702E008C8121F08C195
:103F2000002AFAD170477047002001E001C1121F3A
:103F3000002AFBD1704700002DE9FF5F82B000210D
:103F4000DDE90430020DDDF840B0034318D044F63B
:103F50001050A2F2FF3242431514119801281FD0CD
:103F6000A5EB0B00401C5FEA000A4FF000064E4F25
:103F7000DFF83891B046504615D5CAF1000413E079
:103F8000119801244AA3012801D16FEA0B0102987C
:103F9000119AC0E90031C0E9024206B0BDE8F09FC5
:103FA000CBF10000DFE704460021404A491842EB0C
:103FB0000450CDE9001012E0E00707D032463B463E
:103FC00040464946FCF75DFA8046894632463B4604
:103FD00010461946FCF755FA06460F466410002CA9
:103FE000EAD1DDE90401DDE90023BAF1000F06DAC8
:103FF000FCF747FA42464B46FCF743FA05E0FCF76C
:10400000B2FA42464B46FCF7AEFA04460E46002290
:10401000284BFCF72FFB03D84FF0FF30014607E099
:104020000022254B20463146FCF784F9FCF70AFBB9
:10403000102409E0002C0ADB0A220023FCF7E8F830
:10404000039B30321A55641E50EA0102F2D1641CFF
:10405000039AC4F111031444119A012A03D00122D6
:1040600008430DD10AE0084304D000204FF0110BA3
:10407000119072E7A3EB0B056D1E0DE05B4504DDAF
:104080004FF0000205F1010504E003DA4FF00002F1
:10409000A5F10105002AECD002981199C0E902317E
:1040A000C0E9004579E70000000014400000F03F3F
:1040B000300000000000F0430000E03F2DE9FF4F1A
:1040C00095B09B468946064600250FE2252877D104
:1040D00000242746F84A0121059400E0044316F81D
:1040E000013F203B01FA03F01042F7D130782A2833
:1040F00011D06FF02F033078A0F13002092A16D8C2
:10410000059A44F0020402EB820203EB42021044DF
:10411000761C0590EFE759F8042B0592002A03DA84
:10412000504244F40054059044F00204761C307868
:104130002E2816D116F8010F44F004042A280DD0B9
:104140006FF02F023078A0F13003092B09D807EB6C
:10415000870302EB4303C718761CF3E759F8047B87
:10416000761C30786C280FD006DC4C2817D06828D5
:104170000DD06A2814D104E0742810D07A280FD109
:104180000DE044F400140AE044F4801401E044F427
:1041900040147278824202D104F58014761C761C99
:1041A000307866280BD013DC582877D009DC00283B
:1041B00075D04528F6D04628F4D047281AD19DE17D
:1041C00018E0632835D0642879D0652812D195E1AC
:1041D000702873D008DC6728F1D069286FD06E286A
:1041E0000DD06F2806D1B5E073282CD0752875D076
:1041F000782874D05A46179990476D1C75E1C4F31E
:104200000250022809D003280DD0D9F80010042844
:104210000DD00D6009F1040967E1D9F80010EA1723
:10422000C1E90052F6E7D9F800100D80F2E70D70F1
:10423000F0E719F8041B8DF8001000208DF801003C
:10424000EA46012003E059F804AB4FF0FF30610764
:104250004FF0000102D40DE008F101018846B94297
:104260000FDA8045F8DB1AF808100029F4D108E0CD
:1042700008F1010188468142FADB1AF8081000298A
:10428000F6D105985B46A0EB080721463846179AF9
:1042900000F094FA284400EB080507E04DE029E11E
:1042A0000DE01AF8010B5A4617999047B8F101082A
:1042B000F7D25B4621463846179A13E142E00A22BC
:1042C0000092C4F302524FF0000A022A08D059F8B3
:1042D00004CB032A4FEAEC710AD00DE029E02AE072
:1042E00009F1070121F00702F2E802C1914609E055
:1042F0000FFA8CFC4FEAEC71042A03D14FFA8CFCC4
:104300004FEAEC71002907DA0A460021DCF1000CC3
:1043100061EB02012D2202E0220504D52B228DF84B
:104320000420012203E0E20701D02022F7E79046B3
:1043300059E00A2102E010220DE010214FF0000A9E
:1043400000910BE010224FF0000A44F0040408270B
:10435000009203E008224FF0000A0092C4F30252D8
:10436000022A05D059F804CB0021032A08D009E01D
:1043700009F1070121F00702F2E802C1914605E0C8
:104380001FFA8CFC042A01D10CF0FF0C4FF000083E
:10439000220728D5702806D0009B83F0100353EA2B
:1043A0000A0305D00EE040228DF80420012208E027
:1043B0005CEA010206D030228DF804208DF8050059
:1043C00002229046009B83F0080353EA0A030AD1B5
:1043D0005CEA010201D1620705D530228DF8042084
:1043E0004FF001087F1E582804D034A003900EA877
:1043F00002900DE036A0F9E753466046009AFBF7BD
:1044000007FF84460398825C0298401E0290027067
:104410005CEA0100F0D1029806A9081A00F1200A0E
:10442000600702D524F4803400E00127574502DDFF
:10443000A7EB0A0000E0002000EB0A0100900598BD
:104440004144401A0590E00306D45B462146179A82
:10445000059800F0B3F90544002706E001A85A4684
:10446000C05D179990476D1C7F1C4745F6DBE00344
:104470000CD55B462146179A059800F09FF9054434
:1044800004E030205A46179990476D1C0099481E49
:1044900000900029F5DC08E0029802995A4600785D
:1044A000491C0291179990476D1CBAF10001AAF1BD
:1044B000010AF1DC65E100000928010030313233E6
:1044C0003435363738396162636465660000000050
:1044D000303132333435363738394142434445463A
:1044E0000000000000F058F90544761C30780028E0
:1044F0007FF4ECAD19B02846BDE8F08F620700D418
:10450000062709F1070222F0070CFCE80223E14626
:1045100003F000485FEA080C02D00FF2702C0DE0A7
:104520005FEA045C02D50FF2682C07E05FEAC47C06
:1045300002D00FF2602C01E0AFF2700C4FF0FF38A8
:1045400023F00043CDF850C065280CD006DC452888
:1045500009D046281DD047283DD13DE0662818D017
:1045600067287ED138E00021112F01DB112000E007
:10457000781CCDE9000106A90EA8FFF7DDFCDDE9F6
:104580000F010E9A03910021009207F1010A049194
:104590004DE04FF000400097CDE9011006A90EA8AC
:1045A000FFF7CAFCDDE90F0203920E9B119900226E
:1045B000DDF80CA00093049211B9791C00EB010AFC
:1045C000B7EB0A0004D4C0F1FF3007F1010A0490F0
:1045D000AAEB0700019044E0012F00DA0127002137
:1045E000112F01DD112000E03846CDE9000106A9B8
:1045F0000EA8FFF7A1FCDDE90F010E9A039100213F
:1046000004910092BA4621070CD40399514500DA6F
:104610008A46BAF1010F05DD009AAAF10101515C49
:10462000302908D0B84202DA10F1040F06DA01216D
:10463000CDE9011015E0AAF10101E9E7002805DC48
:10464000049901440491AAEB000102E0411C514588
:1046500000DD8A460499401A401C01904FF000404A
:104660000290200704D40198504501DBCDF8048066
:1046700000208DF84F0002980DF14F07B0F1004F68
:1046800025D02B200E9002984FF0020800280CDA5B
:10469000404202902D200E9007E00A210298FBF77D
:1046A00014FE3031029007F8011DB8F10001A8F1A5
:1046B0000108F2DC02980028EFD1791E0E980870EC
:1046C000307800F0200040F0450007F8020D12A8F5
:1046D000C01B00F107081498007800B1012000EB1E
:1046E0000A01019801EBE07105984144401A401E0F
:1046F0000590E00306D45B462146179A059800F022
:104700005DF805441498007818B15A4617999047F7
:104710006D1CE00324D55B462146179A059800F0EE
:104720004DF805441CE00498002807DBDDE903018F
:10473000884203DD0098405C179901E0179930200A
:104740005A469047049805F10105401C04900198D1
:10475000401E019004D12E205A46179990476D1C97
:10476000BAF10001AAF1010ADDDC05E017F8010B3E
:104770005A46179990476D1CB8F10001A8F101083D
:10478000F4DC5B462146179A0598ABE62D00000045
:104790002B000000200000002DE9F0410446002518
:1047A0001E461746880404D405E039462020B04749
:1047B0006D1C641EF9D52846BDE8F0812DE9F04155
:1047C000044600251E469046C80301D5302700E068
:1047D0002027880404D505E041463846B0476D1CC3
:1047E000641EF9D52846BDE8F0810A68531C0B60A9
:1047F0001070704710B52F4C86B02078002829D152
:104800002DA16846FFF764FB69461820FDF73CFFC1
:10481000A2782DA16846FFF75BFB69464820FDF7AB
:1048200033FFE2782CA16846FFF752FB69467820F7
:10483000FDF72AFFA078E178C0F10800421A2AA10A
:104840006846FFF745FB6946A820FDF71DFF207865
:1048500000282DD028A16846FFF73AFB69461820AA
:10486000FDF712FFE068FBF71DFD41EC100B26A1E0
:1048700053EC102B6846FFF72BFB69464820FDF7E9
:1048800003FF2069FBF70EFD41EC100B23A153EC55
:10489000102B6846FFF71CFB69467820FDF7F4FEF5
:1048A00023A16846FFF714FB6946A820FDF7ECFE3C
:1048B00006B010BD08000020202020202020204429
:1048C0006174612020202000202020434E42523A73
:1048D0002564202020200000202020564E42523AFD
:1048E000256420202020000020202049444C453A07
:1048F000256420202020000020202020202020507F
:104900006172612020202000202020434E42523A34
:10491000252E326620202020000000002020205676
:104920004E42523A252E3266202020200000000000
:1049300020202020202020202020202000000000F7
:104940002DE9F04F0020E84C83462DED028B95B009
:1049500004F125092071034699F800E099F8010057
:10496000069099F80200009099F8030008902046FC
:1049700004F1200A8779C1790991017A0591417A78
:104980000491817A03918178C0789AF80060D74ABF
:1049900003EB0315154495F810C0BCF1000F7DD052
:1049A00095F80580C64579D195F80680DDF818C0E0
:1049B000C445F8D195F80780DDF800C0C445F2D1B0
:1049C00095F80880DDF820C0C445ECD1D046432ED0
:1049D00002D0562E03D004E0491EA17001E0401E13
:1049E000E07003EB03101044BF49C27AC04BC87992
:1049F00058430B7AC3EB4316C6EB032300EB0310BB
:104A00004B7A897AC3EB031300EB83004318BA4255
:104A100001D9B8A11BE015D1E87B297B40F2A32284
:104A200011FB02F100EBC110697B4FF4616211FBD5
:104A300002F1AA7BC2EB021201EB82010844C4E935
:104A4000050358E0A7EB020001280DDDADA102A887
:104A5000FFF73EFA02A8FBF71EFC82B2322302A93E
:104A6000AC48FDF71DFD46E045D1E87B297B40F2CF
:104A7000A32611FB06F100EBC111687B4FF46166C0
:104A800010FB06F0AE7B9A4FC6EB061600EB8600D5
:104A9000084460619448A049C67900E0D1E006FB73
:104AA00007F6077A0D2AC7EB471CCCEB072706EB66
:104AB0000716477A807AC7EB071706EB870630445C
:104AC000964E0144304416D2DFE802F01507080B79
:104AD0000C0D0E0F101112131400A061904A1A440D
:104AE000A261A061A161A061A161A061A061A161B9
:104AF000A061A161A061D4E905010E1A4FF46167BC
:104B0000B6FBF7F007FB1060E661002898F800009C
:104B100002D043283DD061E09FED828A432822D114
:104B200000EE106AD4ED030AB8EE400A60EE800A87
:104B300080EE880A10EE100AFBF7B4FBB6FBF7F222
:104B4000694BCDE90201253300925A1F76A104A8D2
:104B5000FFF7BEF904A8FBF79EFB82B2322304A93B
:104B60006C48FDF79DFC98F80000562860D1E66976
:104B7000D4ED040A00EE106AB8EE400A60EE800A36
:104B800080EE880A10EE100AFBF78CFBB6FBF7F2FA
:104B90003BE0B6FBF7F0401C00EE100AD4ED030A30
:104BA000B8EE400A20EE200A10EE100AFBF77AFB5E
:104BB000B6FBF7F24C4B521CCDE9020125330092B3
:104BC0005A1F59A104A8FFF783F904A8FBF763FB58
:104BD00082B2322304A94F48FDF762FC98F8000026
:104BE000562825D1E669D4ED040AB6FBF7F0401C3F
:104BF00000EE100AB8EE400A20EE200A10EE100A6D
:104C0000FBF750FBB6FBF7F2521C374BCDE9020124
:104C1000253300925A1F44A104A8FFF759F904A8AC
:104C2000FBF739FB82B2322304A93A48FDF738FC7E
:104C300085F810B00120207115B0BDEC028BBDE8E5
:104C4000F08F5B1C082BFFF6A3AE5FEA0B03F3D1DA
:104C50000B18082B0CD0002505EB0513134493F813
:104C600010C0BCF1000F0ED06D1C082DF4DBE3E783
:104C700031A16846FFF72CF96846FBF70CFB82B2BE
:104C8000322369462BE05246432E02D0562E03D0E3
:104C900004E0491CA17001E0401CE070002049467E
:104CA0001E180D5C7571155C1D54401C0428F7DB43
:104CB00060799872DF720998187305985873049890
:104CC00098730398D873012018741EA10AA8FFF7DF
:104CD000FFF80AA8FBF7DFFA82B232230AA90D48CF
:104CE000FDF7DEFBA8E700000800002054000020CC
:104CF0008051010077726F6E672074696D650D0ACF
:104D000000000000746F6F206C6F6E672074696D17
:104D1000650D0A0074010020008D270080DE280048
:104D200000EA24000000614525733A25733A2564A2
:104D30003A252E32660D0A004E4F20504C41434515
:104D4000210D0A00696E707574206F6B0D0A0000EA
:104D50002449254800228B78012B04D1037883F065
:104D6000010303708A704B79B6EE000A012B0ED155
:104D700003785BB1D0ED030A70EE800AC0ED030A40
:104D8000D0ED040A70EE800AC0ED040A4A710B7A75
:104D9000012B1ED10378DBB1D0ED030A9FED131A6E
:104DA00070EEC00AC0ED030AF5EEC00AF1EE10FA8B
:104DB00001D280ED031AD0ED040A30EEC00A80ED76
:104DC000040AB5EEC00AF1EE10FA01D280ED041A21
:104DD0000A72CB7A012B04D1437883F0010343702C
:104DE000CA7270473A00002008000020000000004E
:104DF00010B501224FF47F410748FBF792FE074CA4
:104E0000012204212046FBF78CFE20460022BDE84B
:104E100010400421FBF785BE00080048000C004844
:104E200010B5FFF7E5FF0B4CA078E178C0F1080062
:104E3000884202D1FDF770FD01E0FDF785FD607845
:104E400018B1BDE81040FDF7AFBDBDE81040FDF75B
:104E500093BD000008000020FBF776FEFEF78EF8F9
:104E6000FDF7BAFDFDF792FEFDF744FEFDF7C2FE29
:104E7000FDF74CFC1648FCF707FD012215491648C2
:104E8000FDF7D2FA00211548FCF7A8FF13490020CE
:104E900009684863FDF792FB0020FDF791FC4FF68F
:104EA000FF70FDF7A1FC0E4DFFF752FFFFF7A2FCCC
:104EB00000F018F8FFF7B4FF2C78002CF4D0012094
:104EC000FBF7F4FC28788442EED100F017F8EBE70A
:104ED000DC000020380000207401002028010020A0
:104EE00039000020034841780348006801B11421CB
:104EF000416370470800002028010020F0B54C4DA8
:104F000089B0287800287AD00024162879D1494819
:104F10000178432901D0562973D141784E2970D1A7
:104F2000817842296DD1C17852296AD101793A2913
:104F300067D1417A3A2964D13F4A0021435C5354F6
:104F4000491C0429FADB14713B4A0021521D431805
:104F50005B795354491C0429F9DB1471817AC37AB3
:104F6000303901EB81016FF02F0202EB41010B445C
:104F7000314920394B71037B467B303B03EB830384
:104F800002EB4303334403F0FF0C81F806C0837B3C
:104F9000C67B303B03EB830302EB43033344DFB2B6
:104FA000CF71037C467C303B03EB830302EB43036E
:104FB0003344DEB20E72837C90F813E0303B03EB97
:104FC000830302EB43037344DBB24B7290F815E0AA
:104FD000007D303800EB800002EB40007044C0B22E
:104FE0008872BCF10C0F0CD81F2F0AD8172E08D8C6
:104FF0003B2B06D83B2804D8FFF7A2FC0EE015E0B7
:10500000FFE70EA16846FEF763FF6846FBF743F92A
:1050100082B2322369460B48FDF742FA2C7009B080
:105020001E21BDE8F0400348FBF72AB909B0F0BDE6
:105030003900002004020020280000204552524F71
:10504000520D0A0074010020000000000000000062
:105050000000000000000000000000000000000050
:105060000000000000000000000000000000000040
:1050700000000000000000000000800180018001AD
:105080008001800180018001800180018001800118
:10509000800180010000000080018001000000000C
:1050A000000000000000000000000000CC00CC0068
:1050B000CC00CC00CC00CC000000000000000000C0
:1050C00000000000000000000000000000000000E0
:1050D00000000000000000000000000000000000D0
:1050E00000000000600C600C600C30063006FE1FF3
:1050F000FE1F300638071803FE1FFE1F1803180393
:105100008C018C018C01000000008000E003F80F8E
:105110009C0E8C1C8C188C009800F801E007800E07
:10512000801C8C188C189C18B80CF00FE0038000C1
:1051300080000000000000000000000000000E18C9
:105140001B0C110C11061106110311039B018E019A
:10515000C038C06C60446044304430441844186C1B
:105160000C380000000000000000E001F0033807E8
:10517000180618063003F001F000F8009C310E33D9
:10518000061E061C061C063FFC73F02100000000F2
:105190000000000000000000000000000C000C00F7
:1051A0000C000C000C000C000000000000000000CF
:1051B00000000000000000000000000000000000EF
:1051C0000000000000000000000000020003800159
:1051D000C000C000600060003000300030003000CF
:1051E000300030003000300060006000C000C000BF
:1051F0008001000300020000000020006000C000E9
:10520000800180010003000300060006000600067E
:10521000000600060006000600030003800180016E
:10522000C00060002000000000000000000000003E
:1052300000000000C000C000D806F807E0013003FD
:10524000380700000000000000000000000000001F
:10525000000000000000000000000000000000004E
:105260000000000080018001800180018001FC3F7E
:10527000FC3F80018001800180018001000000006E
:10528000000000000000000000000000000000001E
:10529000000000000000000000000000000000000E
:1052A00000000000000000000000800180010001FB
:1052B000000180000000000000000000000000006D
:1052C00000000000000000000000000000000000DE
:1052D000E007E00700000000000000000000000000
:1052E00000000000000000000000000000000000BE
:1052F00000000000000000000000000000000000AE
:1053000000000000000000000000C000C00000001D
:1053100000000000000000000000000C000C00066F
:1053200000060006000300030003800380018001E3
:105330008001C000C000C0006000600000000000EC
:1053400000000000000000000000E003F007380E3D
:10535000180C0C180C180C180C180C180C180C182D
:105360000C180C18180C380EF007E00300000000B1
:105370000000000000000000000000018001C001EA
:10538000F001980188018001800180018001800185
:105390008001800180018001800180010000000007
:1053A00000000000000000000000E003F80F180CEF
:1053B0000C180C1800180018000C000600038001DF
:1053C000C000600030001800FC1FFC1F000000003F
:1053D00000000000000000000000E001F807180EC7
:1053E0000C0C0C0C000C0006C003C007000C0018CD
:1053F00000180C180C18180CF807E0030000000047
:1054000000000000000000000000000C000E000F73
:10541000000F800DC00C600C600C300C180C0C0CD4
:10542000FC3FFC3F000C000C000C000C00000000D6
:1054300000000000000000000000F80FF80F180046
:1054400018000C00EC03FC071C0E001C00180018D0
:1054500000180C181C0C180EF807E00300000000E0
:1054600000000000000000000000C007F00F381C22
:10547000181818000C00CC03EC0F3C0E1C1C0C1868
:105480000C180C18181C380EF007E0030000000080
:1054900000000000000000000000FC1FFC1F000CCA
:1054A00000060006000380038001C001C000E00088
:1054B000600060007000300030003000000000002C
:1054C00000000000000000000000E003F007380EBC
:1054D000180C180C180C3806F007F007180C0C18EC
:1054E0000C180C180C18380CF80FE0030000000022
:1054F00000000000000000000000E003F007380E8C
:105500001C0C0C180C180C181C1C381EF81BE0196D
:105510000018000C000C1C0EF807F0010000000041
:10552000000000000000000000000000000000007B
:105530000000000080018001000000000000000069
:105540000000000000000000800180010000000059
:10555000000000000000000000000000000000004B
:105560000000000080018001000000000000000039
:105570000000000000000000800180010001000127
:10558000800000000000000000000000000000009B
:1055900000000000000000000010001C800FE0036D
:1055A000F8001800F800E003800F001C0010000055
:1055B00000000000000000000000000000000000EB
:1055C0000000000000000000F81F000000000000C4
:1055D000F81F0000000000000000000000000000B4
:1055E00000000000000000000000000000000000BB
:1055F000000000000000000008003800F001C007B3
:10560000001F0018001FC007F0013800080000004C
:1056100000000000000000000000E003F80F180C7C
:105620000C180C180018000C000600038001C000C4
:10563000C000C00000000000C000C000000000006A
:10564000000000000000000000000000E007181843
:105650000420C229224A1144094409440944092268
:105660001113E20C024004201818E00700000000AB
:105670000000000000000000000080038003C0065E
:10568000C006C006600C600C301830183018F83FA7
:10569000F83F1C700C600C6006C006C000000000E3
:1056A00000000000000000000000FC03FC0F0C0CD8
:1056B0000C180C180C180C0CFC07FC0F0C180C30F8
:1056C0000C300C300C300C18FC1FFC0700000000E4
:1056D00000000000000000000000C007F01F383884
:1056E0001C300C700660060006000600060006006E
:1056F000060006600C701C30F01FE0070000000080
:1057000000000000000000000000FE03FE0F060E77
:105710000618061806300630063006300630063009
:10572000063006180618060EFE0FFE0300000000E5
:1057300000000000000000000000FC3FFC3F0C00E7
:105740000C000C000C000C00FC1FFC1F0C000C00DB
:105750000C000C000C000C00FC3FFC3F00000000A3
:1057600000000000000000000000F83FF83F1800B3
:105770001800180018001800F81FF81F180018006B
:105780001800180018001800180018000000000089
:1057900000000000000000000000E00FF83F3C782F
:1057A0000E6006E007C00300030003FE03FE03C013
:1057B00007C006C00EC03CF0F83FE00F000000003C
:1057C000000000000000000000000C300C300C3025
:1057D0000C300C300C300C30FC3FFC3F0C300C30EB
:1057E0000C300C300C300C300C300C300000000051
:1057F0000000000000000000000080018001800126
:105800008001800180018001800180018001800190
:105810008001800180018001800180010000000082
:105820000000000000000000000000060006000666
:105830000006000600060006000600060006000638
:105840000006180618063807F003E0010000000003
:105850000000000000000000000006300618060CE2
:10586000060606038601C60066007600DE008E018D
:1058700006030606060C0618063006600000000047
:1058800000000000000000000000180018001800D0
:105890001800180018001800180018001800180048
:1058A0001800180018001800F81FF81F000000006A
:1058B000000000000000000000000EE01EF01EF0DE
:1058C0001EF036D836D836D836D866CC66CC66CCFC
:1058D000C6C6C6C6C6C6C6C686C386C30000000006
:1058E000000000000000000000000C301C303C30C4
:1058F0003C306C306C30CC30CC308C310C330C33D1
:105900000C360C360C3C0C3C0C380C300000000003
:1059100000000000000000000000E007F81F1C3835
:105920000E70066003C003C003C003C003C003C001
:1059300003C006600E701C38F81FE007000000006E
:1059400000000000000000000000FC0FFC1F0C38ED
:105950000C300C300C300C300C18FC1FFC070C0009
:105960000C000C000C000C000C000C0000000000EF
:1059700000000000000000000000E007F81F1C38D5
:105980000E70066003E003C003C003C003C003C081
:1059900007E006630E3F1C3CF83FE0F700C0000044
:1059A00000000000000000000000FE0FFE1F06388F
:1059B0000630063006300638FE1FFE0706030606D0
:1059C000060C0618061806300630066000000000B7
:1059D00000000000000000000000E003F80F1C0CB5
:1059E0000C180C180C001C00F803E00F001E003807
:1059F000063006300E301C1CF80FE00700000000D7
:105A000000000000000000000000FE7FFE7F80011B
:105A1000800180018001800180018001800180017E
:105A20008001800180018001800180010000000070
:105A3000000000000000000000000C300C300C30B2
:105A40000C300C300C300C300C300C300C300C3076
:105A50000C300C300C301818F81FE0070000000064
:105A60000000000000000000000003600630063067
:105A700006300C180C180C18180C180C380E3006C0
:105A80003006700760036003C001C0010000000021
:105A9000000000000000000000000360C361C3615B
:105AA000C3616633663366336633663366336C1BB5
:105AB0006C1B6C1B2C1A3C1E380E380E00000000AC
:105AC000000000000000000000000FE00C70183023
:105AD0003018700C600EC00780038003C003E0061E
